:020000040800F2
:10000000C02000204501000895130008B50E000827
:1000100091130008F1090008A11900080000000070
:100020000000000000000000000000001D15000896
:10003000E10D000800000000B91300084315000896
:100040005F0100085F0100085F0100085F01000810
:100050005F0100085F0100085F0100085F01000800
:100060005F0100085F010008690E00085F010008D9
:100070005F0100085F0100085F0100085F010008E0
:100080005F0100085F0100085F0100085F010008D0
:100090005F0100085F0100085F0100086B0E0008A7
:1000A0005F0100085F0100085F0100085F010008B0
:1000B000451700085F010008D91700085F01000814
:1000C0005F0100085F0100085F0100085F01000890
:1000D0005F010008AD180008E91800085F0100087A
:1000E0005F0100085F0100085F0100085F01000870
:1000F0005F0100085F0100085F0100085F01000860
:100100005F0100085F0100085F0100085F0100084F
:100110005F0100085F0100085F0100085F0100083F
:100120005F0100085F0100085F0100085F0100082F
:10013000DFF80CD000F072FB00480047553E000885
:10014000C02000200648804706480047FEE7FEE73B
:10015000FEE7FEE7FEE7FEE7FEE7FEE7FEE7FEE777
:100160004D1500083101000840EA01039B0703D048
:1001700009E008C9121F08C0042AFAD203E011F8E6
:10018000013B00F8013B521EF9D27047D2B201E0A8
:1001900000F8012B491EFBD270470022F6E710B58C
:1001A00013460A4604461946FFF7F0FF204610BDE5
:1001B0002DE9FE4F804681EA0300C00F0C460090F7
:1001C00021F0004123F00045B8EB0200A94105D21F
:1001D0004046214690461C460B46024623F000400E
:1001E000104347D0270DC7F30A00C3F30A5102900A
:1001F000401A019040286BDAC3F3130040F4801BCF
:100200000098924620B10023D2EB030A63EB0B0B5C
:1002100001985946C0F14002504600F00AFA0646DD
:100220000D4650465946019A00F022FA10EB08009C
:100230006141002487EA115284EAE7731A4340D0EF
:10024000009A62B3019A012A4FEA075215DC001B9B
:1002500061EB02014FF0004202EA0752CDE9004291
:10026000001C41F5801132462B4600F059FA03B0CC
:10027000BDE8F08F40462146F9E7001B61EB020123
:10028000001C41F5801300185B412018A2F50017EF
:1002900047EB030140EAD570B6196D4111E06D08D6
:1002A0004FEA360645EAC0754FEA0752001B61EB7C
:1002B0000201001C41F5801149084FEA3000001985
:1002C000514132462B4603B0BDE8F04F00F019BA59
:1002D0000098012240000023D0EB020263EBE073A0
:1002E000009821464FEAE074B8EB000061EB04018E
:1002F000E9E783F000435BE781F0004158E72DE92F
:10030000FE4F81EA030404F0004421F00041009410
:100310004FF0000B23F0004350EA01045ED052EA94
:1003200003045BD0C3F30A54C1F30A552C44A4F26E
:10033000F3340194A0FB0254C1F3130141F4801182
:10034000C3F3130343F4801301FB024400FB034E89
:10035000840A970A44EA815447EA8357A4FB076852
:1003600002958D0A05FB07854FEA932C04FB0C547C
:100370002705029D4FEA065847EA1637B5EB0805F0
:100380006EEB070C870E920E47EA811742EA831242
:10039000A7FB0201B6EB0B0164EB00042B0D43EA53
:1003A0000C335E1844EB1C50DA465146E7FB020161
:1003B000C5F313044FEA0B3343EA14534FEA0432F4
:1003C000019C43EA0603A4F10C040294009CCDE9CD
:1003D00000B400F0A5F903B0BDE8F08F002001469D
:1003E000F9E72DE9F04D81EA030404F0004B21F018
:1003F000004514464FF0000A23F0004150EA050280
:1004000020D054EA01021DD0C5F30A570246C5F3B5
:100410001303C1F31300C1F30A5640F4801543F4EB
:100420008013A7EB0608101BD64608F2FD3873EBC5
:10043000050002D308F1010801E092185B41B8F110
:10044000000F03DA00200146BDE8F08D00204FF4D4
:100450008011064684460EE0171B73EB050705D393
:10046000121B63EB050306434CEA010C49084FEAF3
:10047000300092185B4150EA0107EDD152EA0300C7
:1004800012D082EA040083EA0501084305D0101B5C
:10049000AB4106D20122002306E000224FF00043C8
:1004A00002E06FF0010253101AEB06004CEB08510A
:1004B00010EB0A0041EB0B01BDE8F04D00F021B953
:1004C00096230022114600F0EEB80EB540F23341FB
:1004D00002910021CDE900110A460B4600F020F9F7
:1004E00003B000BDC1F30A5210B5C1F3130140F2CD
:1004F000FF3341F480119A4201DA002010BD40F22E
:1005000033439A42A2F2334203DC524200F0A0F895
:1005100010BD904010BD00F0004230F000400AD005
:10052000C10D01F56071C0F3160042EA0151C20825
:1005300040071143704700200146704730B5041E44
:1005400071F1000404DB4FF00044404264EB010110
:10055000141E73F1000405DB1C464FF000435242A9
:1005600063EB04038B4208BF824230BD01F00043BD
:1005700030B421F0004150EA010206D00A0DA2F584
:100580006072C1F31301002A02DC30BC0020704706
:10059000440F44EAC104C100E01830BC00EBC25073
:1005A00000F078B830B50B46014600202022012427
:1005B00009E021FA02F59D4205D303FA02F5491B31
:1005C00004FA02F52844151EA2F10102F1DC30BD47
:1005D0002DE9F05F0546002092469B468846064678
:1005E000814640241BE0284641464746224600F00B
:1005F0002FF853465A46C01A914110D31146184657
:10060000224600F016F82D1A67EB01084F462246E5
:100610000120002100F00DF817EB00094E41201ECB
:10062000A4F10104DFDC484631462A464346BDE8D2
:10063000F09F202A04DB203A00FA02F100207047E4
:100640009140C2F1200320FA03F319439040704710
:10065000202A04DB203A21FA02F00021704721FA17
:1006600002F3D040C2F1200291400843194670477E
:10067000202A06DBCB17203A41FA02F043EAE07366
:1006800006E041FA02F3D040C2F120029140084353
:10069000194670470029A8BF7047401C490008BF91
:1006A00020F00100704710B4B0FA80FC00FA0CF0A2
:1006B00050EA010404BF10BC704749B1CCF12004DA
:1006C00021FA04F411FA0CF118BF01212143084367
:1006D000A3EB0C01CB1D4FEA00614FEA102042BF93
:1006E000002010BC704700EBC35010440029A4BF89
:1006F00010BC7047401C490008BF20F0010010BC2E
:10070000704710B5141E73F1000408DA401C41F163
:10071000000192185B411A4301D120F0010010BD85
:100720002DE9F04D92469B4611B1B1FA81F202E0FB
:10073000B0FA80F220329046FFF77BFF04460F4666
:1007400040EA0A0041EA0B0153465A46084313D0D7
:10075000114653EA010019D0C8F140025046FFF794
:1007600077FF05460E46504659464246FFF761FF61
:10077000084305D0012004E020463946BDE8F08D4D
:100780000020054346EAE0762C4337430A98630588
:10079000E40AA0EB08000022FD0A44EA47540A30AC
:1007A00002D500200146E9E7010510196941DDE99C
:1007B000084500196941BDE8F04DA2E7C1F30A52AE
:1007C000C1F3130140F2FF3341F480119A4202DA7F
:1007D00000200146704740F233439A42A2F233426E
:1007E00002DC5242FFF734BFFFF723BF30B5041ECF
:1007F00071F1000404DB4FF00044404264EB01015E
:10080000141E73F1000405DB1C464FF000435242F6
:1008100063EB0403994208BF904230BD064C074D7C
:1008200006E0E06840F0010394E8070098471034C0
:10083000AC42F6D3FFF780FC5C5100087C51000805
:1008400010B540F20A6003F0FDFC032003F044FC05
:10085000002001F0E9FD00224FF480711B4801F0F7
:100860005AFE00220221194801F055FE01221146CC
:10087000164801F067FD0021144801F058FD0122DF
:100880001146124801F030FD03F0B6FB05230A22A1
:1008900000210E4801F0D6FD4FF4602201210B48E3
:1008A00001F09EFD01221146084801F07AFD07483B
:1008B00001F06EFD012000F095FA044801F0FFFC04
:1008C0000121024801F018FE10BD0000002801407F
:1008D00070B50446002600250AE0681C85B2012098
:1008E00000F080FA0A2D03DD0FA001F05BF805E0AF
:1008F0000221134801F090FD0028EED000BF022134
:100900000F4801F085FD0E4801F0F2FD0646052373
:10091000224600210A4801F095FD0121084801F016
:10092000EBFD304670BD00004552524F523A2061F7
:1009300064632074696D65206F75740D0A00000092
:10094000002801402DE9F05F0A20FFF7C1FF834630
:10095000FFF7BBFD80460022074BFFF7D0FC0646A1
:100960000022064BFFF73DFD0446FFF7BBFD1FFAD3
:1009700080FA5046BDE8F09F008050400000B04033
:1009800010B500F023FD4FF4A06003F009FB4FF415
:10099000C06003F057FC0121124802F079FD00F01D
:1009A00007FE4FF4E131002002F0B2FB00F068FDD9
:1009B00003F036F902F092FB00F0D4FCFFF740FFA1
:1009C00000F000FC03F058F8074800680749B0FB46
:1009D000F1F0401E84B2214640F2E73000F078FE8C
:1009E00010BD0000000230008C00002040420F00CB
:1009F00000BFFEE77047000010B50A4804F092F807
:100A0000C4B2094801780078401C074A10700748B2
:100A1000445410460078202802DB0020114608705C
:100A200010BD000000440040390000209400002068
:100A30002DE9F041054683480078002873D1284607
:100A4000412D71D00ADCA0F130000A281AD2DFE86B
:100A500000F020263C47595C636F878B612871D07A
:100A600008DC42286FD043286ED044286DD04D2832
:100A700008D19FE0622869D0632868D0642867D0D5
:100A80006D2870D0294670A000F08CFF01F0B6FEF2
:100A900000BF7748016877A000F084FF8EE002F085
:100AA000C3FB0646314675A000F07CFF002409E038
:100AB0007848005D00EB8002214677A000F072FFCD
:100AC000601CC4B2072CF3DB78E079480068FFF7BC
:100AD00022FD064632460B4676A000F063FF6DE02D
:100AE00003F054F80646314676A000F05BFF02F0B2
:100AF00011FC401E814951F82060314680A000F071
:100B000051FF5BE003F0ACFA58E0834883A1026830
:100B100083A000F047FF51E002F0FCFB032804DC57
:100B200003F09EFC03E04AE030E003F069FC45E09E
:100B30008248007868B100208049087080A000F0E9
:100B400031FF0CE021E026E02AE02EE022E026E062
:100B50002AE001207949087083A000F023FF2DE0EE
:100B600003F058FA2AE024E08848007830B10020E9
:100B70008649087086A000F015FF05E00120834932
:100B800008708AA000F00EFF18E000BF01202D4978
:100B9000087013E000BF02202A4908700EE000BF71
:100BA00004202849087009E000BF05202549087085
:100BB00004E000BF03202349087000BF3FE0214844
:100BC0000078012807D10121284602F0F9FF002012
:100BD0001C49087033E01B480078022807D1002127
:100BE000284602F0EDFF00201649087027E015485E
:100BF0000078032806D1284604F0D8F800201149CF
:100C000008701CE00F480078042806D1284603F03D
:100C1000EFF800200B49087011E00A480078052819
:100C20000AD1302D02D103F0F7FC01E003F00AFDF8
:100C300000200449087002E0002002490870BDE865
:100C4000F0810000380000204552524F523A2043B4
:100C50006F6D6D616E6420556E6B6E6F7720636D86
:100C600064203D20307825782121210D0A000000E4
:100C70000000002025730D0A000000006C61736500
:100C8000722061726561203D2030782578200D0A40
:100C900000000000810000206C6173657220707795
:100CA0006D5B25645D203D202564200D0A00000059
:100CB0005000002074656D70203D2025302E326676
:100CC0000D0A0000757362206368617267652073A6
:100CD000746174757320256428303A6E6F206368E0
:100CE000617267652C313A6368617267696E672C5F
:100CF000323A66756C6C290D0A000000180000205D
:100D000073797374656D2072756E20737461747578
:100D100073202573200D0A00440000206F666600D2
:100D2000576174636820446F6720537461747573EE
:100D3000203D2025732D2D25640D0A00150000206F
:100D400044697361626C65207374617274206C61B4
:100D5000736572207768656E206368617267696E7B
:100D600067200D0A00000000456E61626C6520730B
:100D700074617274206C61736572207768656E208F
:100D80006368617267696E67200D0A0014000020B5
:100D9000657869742064656275675F6972726563FE
:100DA000765F6D6F64650D0A00000000656E746506
:100DB000722064656275675F6972726563765F6DE4
:100DC0006F64650D0A00000010B5044803F0AAFE28
:100DD000C4B22046FFF72CFE10BD000000380140D1
:100DE000704700000349086000BF024909680029F4
:100DF000FBD1704708000020F0B5034600224FF0F9
:100E0000E0277D69104F3F68DFF840C0B7FBFCF773
:100E1000FEB203FB06F44FF0E027B96910E04FF093
:100E2000E027B86988420BD0884202D20F1A3A44B0
:100E300002E02F1A0F443A440146A24200D300E0D8
:100E4000EDE700BFF0BD00008C00002040420F0025
:100E50000448006820B103480068401E014908604A
:100E60007047000008000020704710B54FF4007074
:100E700001F0A6FF30B102F0E1FC4FF4007001F088
:100E800099FF06E0202001F09BFF10B1202001F027
:100E900091FF10BD10B50121014802F04BFA10BDC1
:100EA0000008014010B50121014802F045FA10BDCB
:100EB0000008014000BFFEE710B5044600212046AF
:100EC00000F01CFA204600F033FB0021204600F021
:100ED00023FA0420FFF790FF0121204600F00EFACC
:100EE0000620FFF789FF0021204600F007FA0320C3
:100EF000FFF782FF10BD10B50446208803F0A2F969
:100F0000608803F09FF902221021E368606802F014
:100F100061FA022210212369A06802F05BFA012124
:100F2000204600F0EBF90121204600F0F5F910BD54
:100F300010B504460021204600F0E0F9204600F0FC
:100F4000F7FA0121204600F0E7F90420FFF754FFEB
:100F50000121204600F0D2F90620FFF74DFF0021C5
:100F6000204600F0CBF90320FFF746FF10BD2DE926
:100F7000F04107460D4600240021384600F0BEF936
:100F8000384600F0CCFA0320FFF736FF00261EE0BB
:100F90000021384600F0B2F90520FFF72DFF0121AE
:100FA000384600F0ABF96006040E0420FFF724FF7A
:100FB000384600F05DFA08B1601CC4B20420FFF7A7
:100FC0001BFF0021384600F099F9701CC6B2082EAC
:100FD000DEDB1DB93846FFF7ABFF02E03846FFF70E
:100FE0006BFF2046BDE8F08170B506460C46002137
:100FF000304600F083F9304600F09AFA00251CE0F4
:101000000320FFF7F9FE04F08001304600F084F978
:101010006006040E0420FFF7EFFE0121304600F0C9
:101020006DF90620FFF7E8FE0021304600F066F972
:101030000320FFF7E1FE681CC5B2082DE0DB70BDA0
:1010400010B504460121204600F066F9204600F064
:101050006FFA0121204600F051F90420FFF7CCFE81
:101060000021204600F058F90620FFF7C5FE0021B8
:10107000204600F043F910BD10B50446002120467B
:1010800000F03CF9204600F053FA0021204600F021
:1010900043F90620FFF7B0FE0121204600F02EF9AB
:1010A0000320FFF7A9FE0121204600F035F90620B4
:1010B000FFF7A2FE10BD70B50546002400212846AA
:1010C00000F01CF90320FFF797FE0121284600F0ED
:1010D00023F90320FFF790FE284600F020FA0121B3
:1010E000284600F00BF90320FFF786FE0BE0601C9A
:1010F000C4B2FA2C04DD2846FFF7BEFF012070BD04
:101100001420FFF779FE284600F0B2F90028EED14E
:101110000021284600F0F2F80320FFF76DFE0020C2
:10112000EDE72DE9F04105460E4600BF02F008FD4F
:1011300042F22830FFF760FE02F012FD41F29410F7
:10114000FFF75AFE00BF00242CE02F5D4FF000088F
:1011500023E007F0010070B100BF02F0F1FC4FF492
:101160000C70FFF749FE02F0FBFC40F29A60FFF7BB
:1011700043FE00BF0EE000BF02F0E2FC4FF40C7033
:10118000FFF73AFE02F0ECFC4FF40C70FFF734FE70
:1011900000BF00BF7F1008F10108B8F1080FD8DBCD
:1011A000601CC4B2B442D0DB00F002F8BDE8F081AC
:1011B00010B502F0C5FC40F28A20FFF71DFE02F0D8
:1011C000CFFC10BD10B502F0ABF902F0A7FB06484A
:1011D00000680649B0FBF1F0401E84B2214642F29D
:1011E0000F7000F091FA10BD8C00002040420F00FB
:1011F00010B504461CB1044803F0B6FB02E00248F7
:1012000003F0ADFB10BD00000008004010B504461F
:101210002046FFF770FE10BD2DE9F04180460F46D5
:1012200015461E464046FFF70BFF47F001014046BA
:10123000FFF7DAFE4046FFF73EFF10B10220BDE89F
:10124000F08100240FE0701EA04205D1002140462D
:10125000FFF78DFE285504E001214046FFF787FE89
:101260002855601CC4B2B442EDDB4046FFF704FFD2
:101270000020E4E72DE9F04781460D4616461F465B
:10128000DDF820804846FFF7DBFE05F0FE0148460A
:10129000FFF7AAFE4846FFF70EFF28B14846FFF7C2
:1012A000EBFE0220BDE8F08731464846FFF79CFE82
:1012B0004846FFF700FF20B14846FFF7DDFE032058
:1012C000F0E7B8F1000F01D1FF20EBE700240EE0BA
:1012D000395D4846FFF788FE4846FFF7ECFE20B12F
:1012E0004846FFF7C9FE0420DCE7601CC4B2444551
:1012F000EEDB4846FFF7C0FE0020D3E770B504469A
:101300000D4625B12169A06802F016F803E02169B5
:10131000A06802F00FF870BD70B504460D4625B107
:10132000E168606802F008F803E0E168606802F0D4
:1013300001F870BD10B5044609480078A04200D1FC
:1013400010BD0748047024B14FF0804003F00CFB3F
:1013500003E04FF0804003F002FB00BFF0E7000025
:101360008B00002010B540F2026002F06BFF0323F7
:1013700002221021054802F02DF80221034801F055
:10138000D9FF0121014801F0D5FF10BD000801403F
:1013900000BFFEE77047000010B50221014801F0D0
:1013A000C9FF10BD0008014010B50221014801F03D
:1013B000C3FF10BD000801407047000010B50821B0
:1013C000014801F0B7FF10BD0010014010B540F218
:1013D000036002F037FF40F2046002F033FF4FF485
:1013E000C04302221021204801F0F4FF4FF40051C5
:1013F0001D4801F09FFF4FF480411B4801F09CFF06
:1014000008211A4801F098FF0823022210211748EA
:1014100001F0E0FF4FF4805302220421124801F052
:10142000D9FF802302220421104801F0D3FF40237A
:10143000022248210D4801F0CDFF4FF40043022263
:101440001021094801F0C6FF4FF40041064801F0A1
:1014500071FF1021054801F06DFF1023022219468B
:10146000024801F0B7FF10BD000C01400010014020
:1014700010B50446E168606802F002F810BD000093
:1014800010B50248FFF7C2FE10BD00005800002052
:101490002DE9F04F87B082464FEA4A60010E0223E1
:1014A00005AA1948FFF7B8FE9DF815009DF814101D
:1014B00040EA012B5846FFF703F80190FFF72BF89D
:1014C0000022124BCDE90201FEF719FF80460022EF
:1014D0000F4BFEF786FF064600220E4BFEF709FF74
:1014E0000446FFF743F80C490860062004900120E9
:1014F00000904FEA4A60010E04AB2C220248FFF72D
:10150000B9FE07B0BDE8F08F5800002000E065404C
:10151000E0FFEF400080464050000020704710B5CB
:10152000044602224821E368606801F053FF10BDC1
:1015300010B5044602221021E368606801F04AFFFA
:1015400010BD10B500F05CF810BD000010B51448D7
:10155000006840F0010012490860084640681149DF
:1015600008400F494860084600680F4908400C4988
:1015700008600846006820F480200860084640683B
:101580000A4908400649486008460068064908407C
:10159000034908604FF41F00886002F02DFF10BD62
:1015A000001002400C00FFE8FFFFF6FEFFFF00F70F
:1015B00010B5124800684FF47A71B0FBF1F4601E68
:1015C000B0F1807F01D301200FE0601E4FF0E021D9
:1015D00048610F214FF0FF3000F0F4F900204FF088
:1015E000E021886107200861002008B100BFFEE704
:1015F0000021481E00F0E6F910BD00008C0000201C
:1016000010B531480068401C2F490860FFF720FCE6
:101610002D4800680A21B0FBF1F201FB120028B945
:101620002A48008840F001002849088026480068C0
:101630003221B0FBF1F201FB12000F2805D1234843
:10164000008840F010002149088001F063FE032863
:1016500038DD1E48008840F002001C4908801A4806
:1016600000684FF47A71B0FBF1F201FB120040F216
:101670009A21884205D11548008840F00800134996
:10168000088011480068FA21B0FBF1F201FB12005A
:10169000B12805D10D48008840F020000B49088092
:1016A000094800684FF4FA71B0FBF1F201FB120037
:1016B00040F24D11884205D10448008840F04000B6
:1016C0000249088010BD00000C000020040000202A
:1016D0007FB505460C464FF4E06002F0B3FD684666
:1016E00003F0CCF90295ADF8004069464FF0804018
:1016F00003F040F9012211461C2002F0FBFB0121FE
:10170000880703F0A7F97FBD7FB505460C4640F278
:10171000027002F097FD684603F0B0F90295ADF84B
:1017200000406946064803F025F9012211461E20B3
:1017300002F0E0FB0121024803F08CF97FBD0000BC
:101740000008004010B50121880703F08BF900283C
:1017500035D01D48007840B31C480078401C1B4918
:1017600008700846007814281BDA174800781849D2
:10177000087000240EE01748005D1449097888427B
:1017800006DC0120A040124909788143104801700D
:10179000601CC4B2072CEEDB0D48007802F0B8FAEA
:1017A0000DE000200949087009E00848007818B1E8
:1017B00000200649087002E0002002F0A9FA012189
:1017C000880703F04BF910BD890000208A00002033
:1017D000880000208100002010B50121054803F099
:1017E00041F908B102F0B2F80121024803F036F9DC
:1017F00010BD00000008004070B52B480078401C68
:101800002949087002F0C2F90546002D1ADD012DA4
:1018100013D1FFF7C1FD244800780A2802DAFFF748
:1018200041FB3FE020480078142802DAFFF732FB42
:1018300038E000201C49087034E0FFF733FBFFF765
:10184000ABFD2FE001F066FD0446032C07D100201C
:1018500015490870FFF71EFBFFF79EFD70BD052CB4
:1018600004D1FFF71FFBFFF797FD1BE0042C13D1FA
:10187000FFF710FB0C4800780A2802DAFFF794FD06
:1018800010E009480078142802DAFFF785FD09E026
:1018900000200549087005E0012C03D1FFF7FAFA92
:1018A000FFF782FD00BFD9E73E00002010B50B49CD
:1018B0000B4803F0D4F930B1FFF786FA074908481E
:1018C00003F0C0F908E00749054803F0C8F918B16A
:1018D0000449034803F0B6F910BD000005030500F4
:1018E000003801400403040010B51749174803F0FD
:1018F000B6F988B1FFF780F81349144803F0A2F94C
:1019000013480078F0B94FF44171104803F08DF995
:1019100001200F49087015E00E490C4803F09FF9AB
:1019200080B1FFF767F80B49084803F08BF90848C6
:10193000007838B14FF44171044803F069F9002090
:101940000349087010BD0000050305000044004075
:1019500049000020040304007CB504460D460E49EE
:1019600003C9CDE90001012C00DD7CBD0120A040B0
:101970000A490978084060B100BF5DF824000721DA
:1019800003F027F90028F8D05DF82400294603F079
:10199000CEF800BFE9E70000604F0008100000200B
:1019A00000BFFEE70FB4054B10B503A9044A029827
:1019B00000F0EEF810BC5DF814FB0000C930000820
:1019C0009000002010B5002804DB0A07130E054A1A
:1019D000135406E00A07140E034A00F00F031B1FFE
:1019E000D45410BD00E400E018ED00E002E008C8A7
:1019F000121F08C1002AFAD170477047002001E089
:101A000001C1121F002AFBD1704700002DE9FF5FC2
:101A100082B00021DDE90430020DDDF840B003435F
:101A200018D044F61050A2F2FF3242431514119818
:101A300001281FD0A5EB0B00401C5FEA000A4FF005
:101A400000064E4FDFF83891B046504615D5CAF122
:101A5000000413E0119801244AA3012801D16FEA80
:101A60000B010298119AC0E90031C0E9024206B0A8
:101A7000BDE8F09FCBF10000DFE704460021404ABB
:101A8000491842EB0450CDE9001012E0E00707D0FE
:101A900032463B4640464946FEF731FC8046894681
:101AA00032463B4610461946FEF729FC06460F46CD
:101AB0006410002CEAD1DDE90401DDE90023BAF16C
:101AC000000F06DAFEF71BFC42464B46FEF717FCFA
:101AD00005E0FEF786FC42464B46FEF782FC0446D4
:101AE0000E460022284BFEF781FE03D84FF0FF3050
:101AF000014607E00022254B20463146FEF758FB01
:101B0000FEF75CFE102409E0002C0ADB0A22002309
:101B1000FEF75EFD039B30321A55641E50EA010247
:101B2000F2D1641C039AC4F111031444119A012ADE
:101B300003D0012208430DD10AE0084304D000205D
:101B40004FF0110B119072E7A3EB0B056D1E0DE02A
:101B50005B4504DD4FF0000205F1010504E003DA06
:101B60004FF00002A5F10105002AECD0029811996E
:101B7000C0E90231C0E9004579E7000000001440E7
:101B80000000F03F300000000000F0430000E03FA4
:101B90002DE9FF4F95B09B468946064600250FE28A
:101BA000252877D100242746F84A0121059400E032
:101BB000044316F8013F203B01FA03F01042F7D12D
:101BC00030782A2811D06FF02F033078A0F130023E
:101BD000092A16D8059A44F0020402EB820203EBAC
:101BE00042021044761C0590EFE759F8042B059249
:101BF000002A03DA504244F40054059044F00204F1
:101C0000761C30782E2816D116F8010F44F0040403
:101C10002A280DD06FF02F023078A0F13003092B65
:101C200009D807EB870302EB4303C718761CF3E7D9
:101C300059F8047B761C30786C280FD006DC4C28D1
:101C400017D068280DD06A2814D104E0742810D069
:101C50007A280FD10DE044F400140AE044F4801413
:101C600001E044F440147278824202D104F58014F9
:101C7000761C761C307866280BD013DC582877D079
:101C800009DC002875D04528F6D04628F4D047282E
:101C90001AD19DE118E0632835D0642879D06528F1
:101CA00012D195E1702873D008DC6728F1D069283B
:101CB0006FD06E280DD06F2806D1B5E073282CD0D8
:101CC000752875D0782874D05A46179990476D1C9E
:101CD00075E1C4F30250022809D003280DD0D9F8C9
:101CE000001004280DD00D6009F1040967E1D9F84E
:101CF0000010EA17C1E90052F6E7D9F800100D808C
:101D0000F2E70D70F0E719F8041B8DF800100020C1
:101D10008DF80100EA46012003E059F804AB4FF0CA
:101D2000FF3061074FF0000102D40DE008F101011E
:101D30008846B9420FDA8045F8DB1AF80810002906
:101D4000F4D108E008F1010188468142FADB1AF873
:101D500008100029F6D105985B46A0EB080721463C
:101D60003846179A00F094FA284400EB080507E07B
:101D70004DE029E10DE01AF8010B5A4617999047FA
:101D8000B8F10108F7D25B4621463846179A13E1AD
:101D900042E00A220092C4F302524FF0000A022AE3
:101DA00008D059F804CB032A4FEAEC710AD00DE0B1
:101DB00029E02AE009F1070121F00702F2E802C157
:101DC000914609E00FFA8CFC4FEAEC71042A03D12A
:101DD0004FFA8CFC4FEAEC71002907DA0A46002121
:101DE000DCF1000C61EB02012D2202E0220504D59A
:101DF0002B228DF80420012203E0E20701D02022EB
:101E0000F7E7904659E00A2102E010220DE0102188
:101E10004FF0000A00910BE010224FF0000A44F04E
:101E200004040827009203E008224FF0000A009201
:101E3000C4F30252022A05D059F804CB0021032A28
:101E400008D009E009F1070121F00702F2E802C118
:101E5000914605E01FFA8CFC042A01D10CF0FF0C1E
:101E60004FF00008220728D5702806D0009B83F089
:101E7000100353EA0A0305D00EE040228DF8042037
:101E8000012208E05CEA010206D030228DF804202D
:101E90008DF8050002229046009B83F0080353EA68
:101EA0000A030AD15CEA010201D1620705D530229A
:101EB0008DF804204FF001087F1E582804D034A06C
:101EC00003900EA802900DE036A0F9E75346604655
:101ED000009AFEF77DFB84460398825C0298401EC0
:101EE000029002705CEA0100F0D1029806A9081A7B
:101EF00000F1200A600702D524F4803400E00127B5
:101F0000574502DDA7EB0A0000E0002000EB0A01C4
:101F1000009005984144401A0590E00306D45B46C2
:101F20002146179A059800F0B3F90544002706E00A
:101F300001A85A46C05D179990476D1C7F1C474504
:101F4000F6DBE0030CD55B462146179A059800F0B6
:101F50009FF9054404E030205A46179990476D1CBC
:101F60000099481E00900029F5DC08E002980299CB
:101F70005A460078491C0291179990476D1CBAF196
:101F80000001AAF1010AF1DC65E100000928010065
:101F900030313233343536373839616263646566DF
:101FA00000000000303132333435363738394142A1
:101FB000434445460000000000F058F90544761CF3
:101FC000307800287FF4ECAD19B02846BDE8F08FDA
:101FD000620700D4062709F1070222F0070CFCE88B
:101FE0000223E14603F000485FEA080C02D00FF23A
:101FF000702C0DE05FEA045C02D50FF2682C07E05C
:102000005FEAC47C02D00FF2602C01E0AFF2700CEA
:102010004FF0FF3823F00043CDF850C065280CD0B6
:1020200006DC452809D046281DD047283DD13DE093
:10203000662818D067287ED138E00021112F01DBF7
:10204000112000E0781CCDE9000106A90EA8FFF7D9
:10205000DDFCDDE90F010E9A03910021009207F1EA
:10206000010A04914DE04FF000400097CDE90110C6
:1020700006A90EA8FFF7CAFCDDE90F0203920E9B2A
:1020800011990022DDF80CA00093049211B9791C7B
:1020900000EB010AB7EB0A0004D4C0F1FF3007F1EE
:1020A000010A0490AAEB0700019044E0012F00DA36
:1020B00001270021112F01DD112000E03846CDE974
:1020C000000106A90EA8FFF7A1FCDDE90F010E9A99
:1020D0000391002104910092BA4621070CD4039980
:1020E000514500DA8A46BAF1010F05DD009AAAF1DE
:1020F0000101515C302908D0B84202DA10F1040F16
:1021000006DA0121CDE9011015E0AAF10101E9E7A4
:10211000002805DC049901440491AAEB000102E0C7
:10212000411C514500DD8A460499401A401C01902B
:102130004FF000400290200704D40198504501DB85
:10214000CDF8048000208DF84F0002980DF14F0764
:10215000B0F1004F25D02B200E9002984FF00208CE
:1021600000280CDA404202902D200E9007E00A2150
:102170000298FEF717FA3031029007F8011DB8F106
:102180000001A8F10108F2DC02980028EFD1791EC5
:102190000E980870307800F0200040F0450007F8F5
:1021A000020D12A8C01B00F107081498007800B1B6
:1021B000012000EB0A01019801EBE0710598414410
:1021C000401A401E0590E00306D45B462146179A4C
:1021D000059800F05DF805441498007818B15A4647
:1021E000179990476D1CE00324D55B462146179A4A
:1021F000059800F04DF805441CE00498002807DB22
:10220000DDE90301884203DD0098405C179901E095
:10221000179930205A469047049805F10105401C53
:1022200004900198401E019004D12E205A4617991F
:1022300090476D1CBAF10001AAF1010ADDDC05E04E
:1022400017F8010B5A46179990476D1CB8F1000119
:10225000A8F10108F4DC5B462146179A0598ABE625
:102260002D0000002B000000200000002DE9F041AF
:10227000044600251E461746880404D405E0394666
:102280002020B0476D1C641EF9D52846BDE8F081BA
:102290002DE9F041044600251E469046C80301D5AD
:1022A000302700E02027880404D505E04146384661
:1022B000B0476D1C641EF9D52846BDE8F0818168E1
:1022C00041F00801816000BF816801F00801002928
:1022D000FAD1816841F00401816000BF816801F09A
:1022E00004010029FAD1704730B5012902D0022932
:1022F0001AD10CE0C36A23F47003C362C36A541E8C
:102300004FF4700505EA04542343C3620DE0836B68
:1023100023F440138363836B541E4FF4401505EA86
:1023200004542343836300E000BF00BF30BD21B1EC
:10233000826842F40062826003E0826822F40062F4
:102340008260704730B5436823F4C053436001296D
:1023500004D0022913D0042916D116E0436823F4CF
:10236000604343604368541E4FF4604505EA4434BB
:1023700023434360436843F40063436006E04368DB
:1023800043F48053436001E000BF00BF00BF30BD95
:10239000816801F0010119B9816841F00101816092
:1023A000704772B101F001031BB1836843F48013DD
:1023B000836001F0020393B1836843F400438360B8
:1023C0000DE001F001031BB1836823F480138360E7
:1023D00001F002031BB1836823F40043836070475C
:1023E000012902D0022910D107E0836823F4602379
:1023F000836083681343836008E0836823F4E043C9
:10240000836083681343836000E000BF00BF7047B0
:1024100002688A43026070470246002013680B403E
:1024200003B10120704700000549096821F47021BB
:10243000034A1160114609680143116070470000AA
:1024400004240140F0B51D4606290CDA436B01EB6C
:1024500081071F26BE40B34301EB810602FA06F650
:102460003343436322E00C290EDA036B8E1F06EB25
:1024700086071F26BE40B3438E1F06EB860602FA70
:1024800006F63343036311E010290FDAC36AA1F1A2
:102490000C0606EB86071F26BE40B343A1F10C06CF
:1024A00006EB860602FA06F63343C3620A2A0CDA02
:1024B000046902EB42070726BE40B44302EB420622
:1024C00005FA06F63443046111E0122A0FDAC468F3
:1024D000A2F10A0606EB46070726BE40B443A2F166
:1024E0000A0606EB460605FA06F63443C460F0BD5C
:1024F0000146C86C80B2704701F001021AB18268CF
:1025000042F48002826001F002021AB1826842F451
:10251000001282607047AAB101F480731BB1436856
:1025200043F48073436001F480631BB1436843F458
:102530008063436001F00203CBB1836843F0020380
:10254000836014E001F480731BB1436823F480734B
:10255000436001F480631BB1436823F480634360EC
:1025600001F002031BB1836823F00203836070470C
:1025700010B501F00BFB40B11548007828B915A043
:10258000FFF710FA01F03CFF10BDFEF7DBF904463F
:1025900001F0FCFA10B119490C7005E017480078F9
:1025A000844201DA15490C7014480078222803DDB2
:1025B000052001F0B9FE09E0104800781E2803DD6F
:1025C000042001F0B1FE01E001F01AFF00BFDBE7DB
:1025D00015000020706F7765725F636861726769CC
:1025E0006E672C2073797374656D20706F776572D8
:1025F0006F66662121212121210D0A00480000205B
:1026000010B500F087FE04462848007860B901F054
:10261000BDFA48B12648008828B100202449088026
:1026200024A0FFF7BFF910BD00F068FD01282AD1F2
:102630001F480088B0F5967F35DC1D480088401C97
:102640001B49088008460088B0F5967F2BDD032CD7
:102650000CDC00BF23A0FFF7A5F97422254926A0B2
:10266000FFF7A0F900BF01F0FBFE1CE000BF1DA0BA
:10267000FFF798F979221F491FA0FFF793F900BFD0
:1026800001F0BEFE0FE00A48008860B100BF15A04F
:10269000FFF788F98622174919A0FFF783F900BFD1
:1026A00000200349088000BFBDE70000150000209E
:1026B0003C000020706F7765725F636861726769C4
:1026C0006E672C2073797374656D20646973616221
:1026D0006C6520746F207374617274212121212133
:1026E000210D0A003C3C4D595F44454255473E3E52
:1026F00020000000684F000825732025640D0A00A3
:1027000025732025642062746E2072656C65617388
:10271000650D0A0030B503460C461D460021002217
:1027200005E055F82200401C00B9491C521CB2F5C6
:10273000007FF6DBB1EB940F01D3084630BD0020DB
:10274000FCE700001CB52648006808B900201CBD45
:1027500023480068000E8DF8070021480068000C2F
:102760008DF806001E480088000A8DF805001C48F8
:1027700000788DF804000020194908601948007895
:102780009DF80410884213D1164840789DF8051032
:1027900088420DD1134880789DF80610884207D1F1
:1027A0001048C0789DF80710884201D10120CEE77B
:1027B0000C48C07800900B488378427801780A482A
:1027C000FFF7F0F89DF8070000909DF806309DF89F
:1027D00005209DF804100548FFF7E4F80220B6E74D
:1027E00074000020934F0008B450000814510008F2
:1027F00000200149088070477A00002010B52DA004
:10280000FFF7D0F834A0FFF7CDF83DA0FFF7CAF8E6
:1028100044A0FFF7C7F84CA0FFF7C4F852A0FFF799
:10282000C1F859A0FFF7BEF866A0FFF7BBF86EA08D
:10283000FFF7B8F878A0FFF7B5F87EA0FFF7B2F879
:1028400085A0FFF7AFF88FA0FFF7ACF898A0FFF7CF
:10285000A9F8A1A0FFF7A6F8AAA0FFF7A3F8B0A0D7
:10286000FFF7A0F8B5A0FFF79DF8B6A0FFF79AF81C
:10287000BBA0FFF797F8C1A0FFF794F8AFA0FFF750
:1028800091F8C5A0FFF78EF8CAA0FFF78BF8D0A08B
:10289000FFF788F8D5A0FFF785F8D7A0FFF782F8F3
:1028A000DCA0FFF77FF8E5A0FFF77CF8EEA0FFF7CC
:1028B00079F810BD64656275675F68656C702C702F
:1028C0006C656173652075736520736F6D6520633A
:1028D0006D64730D0A000000302E207072696E74F2
:1028E0002070726F6772616D206275696C6420740C
:1028F000696D6520616E6420646174650D0A000075
:10290000312E207072696E74206C61736572206163
:10291000726561732070776D2076616C75650D0A44
:1029200000000000322E207072696E74206861749D
:1029300027732074656D7065726174757265207699
:10294000616C75650D0A0000332E207072696E741B
:1029500020757362206368617267652073746174A7
:1029600075730D0A00000000342E207072696E74B9
:10297000206C61736572206C696768747320746978
:102980006D65730D0A000000352E207072696E743B
:1029900020576174636820446F67205374617475B5
:1029A00073286F66662C6E6F7420656E61626C654D
:1029B00020746869732076657273696F6E290D0AD9
:1029C00000000000362E20636F6D20636F6D6D6117
:1029D0006E642073746172742F73746F70206C61F5
:1029E0007365720D0A000000372E20456E61626C1F
:1029F000652F44697361626C652073746172742021
:102A00006C61736572207768656E206368617267B8
:102A1000696E67200D0A0000382E207072696E748E
:102A2000204261747465727920766F6C7461676599
:102A30000D0A0000392E20656E7465722F65786965
:102A4000742064656275675F6972726563765F6D35
:102A50006F64650D0A0000006D312E206D7573697D
:102A600063206F7220737065616B657220636F6E97
:102A700074726F6C3A206E657874206F6E650D0A03
:102A8000000000006D322E206D75736963206F7237
:102A900020737065616B657220636F6E74726F6C0A
:102AA0003A206C617374206F6E650D0A000000009F
:102AB0006D332E206D75736963206F72207370659E
:102AC000616B657220636F6E74726F6C3A20766F03
:102AD0006C207570200D0A006D342E206D757369A1
:102AE00063206F7220737065616B657220636F6E17
:102AF00074726F6C3A20766F6C20646F776E0D0A7B
:102B00000000000041302E20656E61626C65206C13
:102B100061736572206172656120300D0A000000EA
:102B200041312E20656E61626C65206C6173657247
:102B3000206172656120310D0A0000002E2E2E2EBC
:102B40002E0D0A0041362E20656E61626C65206C88
:102B500061736572206172656120360D0A000000A4
:102B600042302E2064697361626C65206C6173650C
:102B700072206172656120300D0A000042312E2002
:102B800064697361626C65206C6173657220617247
:102B9000656120310D0A000042362E2064697361A0
:102BA000626C65206C6173657220617265612036AC
:102BB0000D0A000063302E20736574206C6173650C
:102BC000722070776D20313025250D0A000000003D
:102BD00063312E20736574206C6173657220707789
:102BE0006D20323025250D0A000000002E2E2E2EDD
:102BF0002E2E0D0A0000000063392E20736574200C
:102C00006C617365722070776D2031303025250D31
:102C10000A00000064302E207365742074656D70A6
:102C200020636F6E74726F6C206C617365722070BC
:102C3000776D20656E61626C650D0A0064312E202F
:102C40007365742074656D7020636F6E74726F6C41
:102C5000206C617365722070776D206469736162A6
:102C60006C650D0A000000006F746865722E20709C
:102C700072696E7420746869732068656C700D0ADF
:102C8000000000002DE9F04105460E46EF0AFF0264
:102C900000F098F940F2053000F0F8F84FF4417078
:102CA00000F0F4F840F2023000F0F0F8002417E0F1
:102CB000E1023846FFF72EFD88B14FF4006101FBB9
:102CC000047000F009F940F2053000F0DFF84FF42D
:102CD000417000F0DBF840F2023000F0D7F8641CDD
:102CE000B442E5D300F0E2F8BDE8F08110B52C4B1A
:102CF0001B6883432A4C2360231D1B688343241DC8
:102D00002360231D1B688343241D2360231D1B6830
:102D10008343241D236011B101290ED105E0204B0E
:102D20001B6803431E4C236008E01D4B1B1D1B68E2
:102D300003431B4C241D236000E000BF00BF22B1F1
:102D4000012A0FD0022A27D119E0154B08331B683E
:102D50000343134C08342360231D1B688343241D45
:102D600023601AE00E4B08331B6883430C4C083475
:102D70002360231D1B680343241D23600DE0084BC3
:102D800008331B680343064C08342360231D1B686B
:102D90000343241D236000E000BF00BF10BD0000FE
:102DA00000040140024909680143014A116070476B
:102DB000000401400149086070470000140401400C
:102DC00001460748006800EA010205481438006817
:102DD00000EA010312B10BB1012070470020FCE7AB
:102DE0001404014000B50346012200BF00F00CF8B6
:102DF00002465B1E012A01D1002BF7D1012A00D126
:102E00000422104600BD000000200A49C96801F0F4
:102E1000010109B101200CE00649C96801F0100167
:102E200009B1032005E00349C96801F0040101B1BB
:102E3000022070470020024000B50346012200BF77
:102E400000F00CF802465B1E012A01D1002BF7D1DD
:102E5000012A00D10422104600BD000000200A49CA
:102E6000C96C01F0010109B101200CE00649C96CEF
:102E700001F0100109B1032005E00349C96C01F01C
:102E8000040101B10220704700200240064A02EB13
:102E90009011096800F01F0301229A401143024B70
:102EA00003EB90121160704700200240084800694F
:102EB00040F080000649086106480088B0F5007FB0
:102EC00004D90846006D40F0800008657047000096
:102ED00000200240E0F7FF1F30B505463648008865
:102EE000B0F5007F48D9354885421ED24FF4702096
:102EF000FFF778FF0446002C5BD13148006940F0B1
:102F000002002F49086108464561006940F0400011
:102F100008614FF47020FFF765FF044628480069F8
:102F200020F002002649086143E04FF47020FFF7CB
:102F300083FF0446002C3CD12148006D40F0020084
:102F40001F49086508464565C06900F0020008B1E0
:102F5000084645611A48006D40F040001849086570
:102F60004FF47020FFF768FF04461548006D20F00D
:102F70000200134908651CE04FF47020FFF732FF90
:102F80000446B4B90E48006940F002000C490861DB
:102F900008464561006940F0400008614FF4702028
:102FA000FFF720FF04460648006920F002000449AC
:102FB0000861204630BD0000E0F7FF1FFFFF070853
:102FC000002002400C48006900F0800020B10B484E
:102FD000094948600A4848600A480088B0F5007FFF
:102FE00009D90548006D00F0800020B1034802496E
:102FF0004864034848647047002002402301674545
:10300000AB89EFCDE0F7FF1F70B504460D460026F3
:103010002A480088B0F5007F35D92948844219D262
:103020004FF47020FFF7DEFE0646002E43D1254800
:10303000006940F001002349086125604FF47020C9
:10304000FFF7D0FE06461F48006920F001001D4929
:10305000086130E04FF47020FFF7EEFE064656BBE5
:103060001848006D40F001001649086525604FF4CE
:103070007020FFF7E1FE06461248006D20F00100C7
:103080001049086517E04FF47020FFF7ABFE0646C5
:103090008EB90C48006940F001000A4908612560BA
:1030A0004FF47020FFF79EFE06460648006920F0A8
:1030B000010004490861304670BD0000E0F7FF1FC1
:1030C000FFFF07080020024070B504460D46E1B23C
:1030D0000020FEF741FC204670BD000010B540F214
:1030E000026001F0AFF84FF40043022228210248A9
:1030F00000F070F910BD00000008014010B54FF459
:103100000041024800F0BCF910BD00000008014079
:1031100070B504460D46344E012C00D1334E0120CB
:10312000A04033490978084000B170BD314931F8F9
:10313000140001F087F8304931F8140001F082F8EA
:103140002E4951F824302E4951F82400022218212A
:1031500000F040F92B4951F82430294951F8240056
:103160000222042100F036F9304601F0E5FC294640
:10317000304601F08FFC0021304601F0ACFD00210B
:10318000304601F098FD0021304601F084FD002119
:10319000304601F035FD0021304601F029FD0421C3
:1031A000304601F080FD0821304601F08CFD3046AC
:1031B00001F00AFD40F20531304601F036FD124BB8
:1031C0001B5D03F00302104B1B5D99100F4B13F8AE
:1031D000240000F08FFE0120A04005490978084333
:1031E0000349087000BFA0E70038014000440040D8
:1031F00010000020504F0008344F0008384F0008DE
:10320000484F0008404F00085C4F0008544F00082A
:1032100010B54021034800F033F908B9012010BD72
:103220000020FCE7001001400148007870470000D2
:103230008900002070B54420FEF72AF92D48007857
:10324000002856D02C480068FDF765F90446002296
:103250002A4BFDF773F903D2282000F02BFF48E03A
:1032600025480068FDF757F904460022244BFDF776
:1032700065F903D2232000F01DFF3AE01E480068E4
:10328000FDF749F9044600221E4BFDF757F903D21A
:103290001E2000F00FFF2CE017480068FDF73BF9F7
:1032A00004460022184BFDF749F903D2192000F01B
:1032B00001FF1EE010480068FDF72DF904460022CA
:1032C000124BFDF73BF903D2142000F0F3FE10E09F
:1032D00009480068FDF71FF9044600220C4BFDF772
:1032E0002DF903D20A2000F0E5FE02E0002000F0F4
:1032F000E1FE70BD540000205000002000003E4060
:1033000000804140000044400080464000004840AA
:10331000000049400148007870470000400000204C
:1033200010B54FF48051024800F0AAF810BD00001B
:10333000000C0140416170470161704710B50022E7
:103340008B071C0F0F2303FA04F204290EDA204B1B
:103350009B6893431E4CA36023469B688C07240FF5
:1033600000FA04F423431A4CA3602FE008290EDA74
:10337000174BDB689343164CE3602346DB688C07EE
:10338000240F00FA04F42343114CE3601EE00C29DF
:103390000EDA0F4B1B6993430D4C236123461B69C7
:1033A0008C07240F00FA04F42343094C23610DE039
:1033B000074B5B699343064C636123465B698C074B
:1033C000240F00FA04F42343014C636110BD000094
:1033D00000000140F0B5044616460025002201F029
:1033E0000F0501F0100707B1354300201EE001274B
:1033F00087401F40C7B122684FEA800C0F2707FAA9
:103400000CF7BA43870005FA07F73A43282904D195
:10341000012787401F40676105E0482903D1012744
:1034200087401F4027612260471CB8B20828DED3BE
:10343000082022E0012787401F40E7B16268A0F121
:1034400008074FEA870C0F2707FA0CF7BA43A0F1D9
:103450000807BF0005FA07F73A43282904D10127D6
:1034600087401F40676105E0482903D10127874055
:103470001F4027616260471CB8B21028DAD3F0BD44
:1034800002469068084008B1012070470020FCE720
:10349000F0B50A46002300240021002500F0004674
:1034A000B6F1004F02D11D4EF16901E01B4E71686B
:1034B000C0F3034583B200F44016B6F5401F08D1AF
:1034C00021F07061154E766826F07066134F7E60AD
:1034D00012E000F48016B6F5801F06D1032606FA26
:1034E00005F4A14341F0706106E0460D360103FA90
:1034F00006F6B14341F0706122B1460D360103FA80
:1035000006F6314300F00046B6F1004F02D1034EFB
:10351000F16101E0014E7160F0BD0000000001406A
:1035200010B540F2046000F08DFE4FF4C06000F072
:1035300089FE4FF40073022204210D48FFF74AFF71
:1035400002221146172000F0D5FC09210220FFF7C6
:10355000F5FE022200211002FFF7C8FB4FF40070B5
:10356000FFF728FC4FF40070FFF71CFC10BD0000B3
:103570000010014070B50024FFF7CCFE032807DCE3
:1035800000205E4908805E4908705E49087070BD81
:103590005D4908780978491C5B4A117000EBD071CD
:1035A0004910A0EB410121B904215848FDF7B9FDAC
:1035B000A1E0FFF7C7F80446012C4AD1544800782F
:1035C00010B154A0FEF7EEF9FFF72EFE30B1FFF771
:1035D0002BFE55490870002000F0A0FE49480078F5
:1035E000032805DD4648007810B1002044490870E2
:1035F00044480078401C434908704548007880B131
:10360000087800EBD0714910A0EB410149B13D4869
:103610000078C0F1F00505EBD570411043A0FEF72E
:10362000C1F938480078F02865DD00BF4E4B4FF4F3
:10363000F5724EA153A0FEF7B5F95B48FEF7B2F95B
:1036400000BF00202D4908802E49087000F0D8FEE8
:1036500051E0002C4FD13448007818B1324800783E
:1036600000F05CFE264800780A2810DA244800782A
:10367000401C23490870084600780A283BD121489D
:103680000078002837D000201E49087033E0204819
:10369000007810B145A0FEF785F918480088032886
:1036A0000ED1282000F006FD00BF2F4B40F20A2269
:1036B0002EA134A0FEF776F942A0FEF773F900BF01
:1036C0000E480088401C0D49088008460088B0F567
:1036D000526F10DD00BF244B40F2172223A129A016
:1036E000FEF760F945A0FEF75DF900BF00F088FE27
:1036F00000200249088000BF49E700007A0000204E
:103700007D0000207F0000207E000020934F0008F5
:103710001400002040404069725F726563765F6408
:103720006174610D0A00000080000020646574650A
:10373000637420646576696365206F6666202C3249
:10374000206D696E75746520636F756E74646F7734
:103750006E206C6566742074696D65203D2025645B
:1037600020730D0A00000000984F00087372635C1C
:1037700069725F72656D6F74655F726563762E63E3
:10378000000000003C3C46696C653A257320204CE3
:10379000696E653A2564202046756E6374696F6EA4
:1037A0003A25733E3E200000605000086E6F206E88
:1037B0006F206E6F206E6F2069725F646174610D9F
:1037C0000A00000069725F697271395F646574652F
:1037D00063745F7461736B206465746563742073D4
:1037E0006F6D656F6E65202C616E6420706F7765FC
:1037F000726F6E206C617365720D0A0069725F6989
:103800007271395F6465746563745F7461736B2092
:103810007461736B2069732072756E203238206D6D
:10382000696E732C616E642073797374656D20709A
:103830006F7765726F66660D0A00000010B5064866
:1038400001F087F804460021034801F086F820467D
:1038500000F0A2F810BD0000000800402DE9F04F74
:1038600085B005460C46294830F8140004900CB188
:10387000012C03D1012005B0BDE8F08F032C0DD140
:1038800040F6B830854206D20420214908701F480E
:103890000089049002E01D48C08804900498FCF759
:1038A00014FE82461B4A1C4BFCF729FD074688463E
:1038B0000498FCF70AFE3A464346CDE90001FCF7BE
:1038C00018FDCDE90201FCF70DFE81460498FCF7D6
:1038D000FCFD07460F4A104BFCF711FDCDE9000136
:1038E0000498FCF7F2FD8246DDE90023FCF760FC5A
:1038F000CDE90201FCF7F6FD06464D4503D3B5427E
:1039000001D80120B7E70020B5E70000B40000208F
:103910006C0000209A9999999999C93F002009490A
:1039200008700949088042F2283088804010C88019
:103930004FF40C7048810120488040F6CA0008818D
:10394000704700006C000020B400002010B50E4845
:103950000078B8B100200C4908700C48007820B1FC
:103960000B48006800F072F807E00A48006800F0B1
:103970006DF808480068064908600020054908609D
:103980000249087010BD00006C0000207800002083
:10399000740000207000002010B50446274801780C
:1039A0002046FFF75BFF10B9FFF7D0FF10BD23489B
:1039B000007806283BD2DFE800F003160A0E361224
:1039C00002201E49087000201D49087032E00320C3
:1039D0001A4908702EE00520184908702AE00120D5
:1039E0001649087026E0052014490870154800683B
:1039F000400814490860B4F57A7F04D90846006885
:103A000040F0004008600E480078401C0C490870E7
:103A100008460078202805DB002008700948006867
:103A20000949086006E005200449087002E0FFF734
:103A30008DFF00BF00BF00BFB8E700006C00002092
:103A40007C00002070000020740000202DE9F0416F
:103A50000446260EC4F30725E7B2E819FF2804D16F
:103A60002A46314602A0FDF79DFFBDE8F081000027
:103A700025752025750D0A0030B587B0322440F237
:103A8000017000F0DFFB40F2046000F0DBFB4FF45C
:103A9000C06000F0D7FB4FF4807302221821224847
:103AA000FFF798FC01212148FFF7F2FC642C00DDB0
:103AB000642403A800F0E2FF1D480088401E059022
:103AC0001C4800681C49B0FBF1F0401E80B2ADF804
:103AD0000C0003A9194800F04DFF684600F031FFC3
:103AE0000120ADF800006A460221144800F0C6FD2E
:103AF00070220221114800F0B7FEC4F164000C49A5
:103B000009884843642190FBF1F52A4602210B48BD
:103B100000F0D7FE00220221084800F0E5FE074829
:103B200000F0A6FD07B030BD00100140000C1A00E7
:103B30004A0000208C00002040420F00000400409A
:103B400010B54FF48073022218210348FFF742FC9E
:103B5000024800F009FF10BD0010014000040040C1
:103B600010B5084800F0FBFE4FF4807302221021CC
:103B70000548FFF72FFC4FF480710348FFF7DAFB8D
:103B800010BD0000000400400010014010B5FFF718
:103B9000C7FB08B9002010BDFFF73AFB08B10120B0
:103BA000F9E70220F7E70000072806DA0121814043
:103BB000024A12781143014A1170704789000020AF
:103BC00070B504460D46372C0DDA302C0BDB2DB1C9
:103BD000A4F13001C8B2FFF7E7FF04E0A4F130011F
:103BE000C8B200F02BF9A4F130012A4601A0FDF77C
:103BF000D9FE70BD6C617365725F617265615F63F0
:103C00006F6E74726F6C202061726561203D20259B
:103C10006420206164643D2025640D0A00000000DA
:103C200010B540F2026000F00DFB40F2036000F0BE
:103C300009FB40F2046000F005FB40F2056000F073
:103C400001FB4FF48053022210211B48FFF7C2FBF7
:103C50003823022210211948FFF7BCFB4FF4E05330
:103C6000022210211648FFF7B5FB0423022210217F
:103C70001448FFF7AFFB4FF480510F48FFF75AFB92
:103C800038210E48FFF756FB4FF4E0510C48FFF780
:103C900051FB04210B48FFF74DFB00BF0AA0FDF7C5
:103CA00081FE39220C490DA0FDF77CFE00BF0020EB
:103CB00000F000FA10BD000000080140000C0140B7
:103CC00000100140001401403C3C4D595F44454206
:103CD00055473E3E20000000AC4F000825732025CC
:103CE000640D0A0010B538210648FFF723FB4FF496
:103CF000E0510548FFF71EFB04210448FFF71AFBBB
:103D000010BD0000000C01400010014000140140F3
:103D100010B5044614B9FFF7E5FF10BDFFF7FAFA36
:103D2000032802D1FFF7DEFFF7E704F0010020B11E
:103D300010212C48FFF700FB03E010212948FFF772
:103D4000F9FA04F0020020B108212648FFF7F4FA3E
:103D500003E008212348FFF7EDFA04F0040020B146
:103D600020212048FFF7E8FA03E020211D48FFF753
:103D7000E1FA04F0080020B104211B48FFF7DCFA47
:103D800003E004211848FFF7D5FA04F0100028B129
:103D90004FF480511548FFF7CFFA04E04FF48051FB
:103DA0001248FFF7C7FA04F0200028B14FF4006171
:103DB0000E48FFF7C1FA04E04FF400610B48FFF72B
:103DC000B9FA04F0400028B14FF480610748FFF7CA
:103DD000B3FA04E04FF480610448FFF7ABFA00BF88
:103DE0009BE70000000C014000140140001001405E
:103DF00070B50446392C0ADC302C08DBA4F12F0006
:103E000000EB80004006050E284600F053F92946D5
:103E100001A0FDF7C7FD70BD6C617365725F7077BF
:103E20006D5F636F6E74726F6C202064656772657E
:103E300065203D202564200D0A000000072806DAD1
:103E400001218140024A12788A4301490A70704771
:103E50008900002090B0242107A8FCF79EF91C22BD
:103E600017496846FCF780F9FCF78AFD1548016898
:103E700015A0FDF797FD16A0FDF794FD1EE00024A8
:103E800015E00120A0401A490988084068B10120C6
:103E9000A040174909888143154801805DF8240036
:103EA00018B15DF82400804707E0601CC4B2102CF4
:103EB00003DA0F4800880028E3D100BFDFE70000E5
:103EC000184F00080000002025730D0A00000000B4
:103ED000426F617264496E697420646F6E6521205F
:103EE000323032322D30372D32320D0A00000000D0
:103EF000040000202DE9F04103460D46164600243B
:103F00000027A0462448006800F4E060B0F5A06FE8
:103F100015D006DCB0F5407F18D0B0F5806F19D110
:103F200010E0B0F5C06F06D0B0F5E06F12D10027F9
:103F30004FF0040815E001274FF0030811E00227B5
:103F4000B8460EE003274FF001080AE004274FF0BF
:103F5000000806E04FF4A06000F022F80227B846FF
:103F600000BF00BFC7F1040005FA00F4C8F1040166
:103F70000F20C8403040044324010848C45403F0D3
:103F80001F01012088405911890001F1E021C1F889
:103F90000001BDE8F08100000CED00E000E400E06D
:103FA00002490143024A1160704700000000FA050F
:103FB0000CED00E010B54FF400410448FFF7BCF9E8
:103FC0004FF480410148FFF7B7F910BD000C0140E4
:103FD00010B54FF400510248FFF7ACF910BD0000D6
:103FE000000C014010B54FF400510248FFF7A4F94E
:103FF00010BD0000000C014010B540F2046000F05C
:1040000021F90123032200210148FFF7E3F910BD44
:10401000001001402DE9F04108480078FCF755FAFE
:1040200006460022064BFCF7DCF9044622460B4606
:1040300004A0FDF7B7FCBDE8F081000048000020B7
:1040400000002440426174746572795F766F6C740D
:10405000616765203D20252E31660D0A00000000B5
:1040600070B50949088800EBD0714C103C2094FBD6
:10407000F0F100FB114594FBF0F62A46314603A00F
:10408000FDF790FC70BD00007A0000206C61736544
:10409000725F6C696768745F74696D6573203A203C
:1040A0002564206D696E732C256420736563730D20
:1040B0000A0000000146282900DD2821002006E032
:1040C000052291FBF2F2034B1A54421CD0B207288E
:1040D000F6DB7047810000200F4A51680F4A1140FB
:1040E000082814D2DFE800F004050607130A130BB2
:1040F00000BF00BF00BF41EA803109E000BF20F0EF
:1041000004004FF0805242EA8032114300E000BFC9
:1041100000BF014A5160704700100240FF3FFFEFAF
:104120002DE9F04F8BB00746002009903EA090E8A3
:10413000004CC068CDE905BECDF810A007900FF285
:10414000EC0ADAE9000ACDE9020A0FF2E00ADAE93C
:10415000000ACDE9000A38484068C0F381000A909F
:104160000A9820B1012804D0022829D103E033495C
:1041700028E0324926E03048406800F48038B8F53D
:10418000803F09D12D4C2C48406800F40039B9F526
:10419000003F02D1641000E0294C27484068C0F37A
:1041A00083422548406800F0006008B142F01002E8
:1041B0000F2A01D2921C00E0521C04FB02F101E024
:1041C0001E4900BF00BF1C484068C0F3031504A887
:1041D000465D21FA06F318484068C0F3022502A89C
:1041E000465D23FA06FC14484068C0F3C2251DF85A
:1041F000056023FA06F0089037B1012F06D0022F90
:1042000006D0032F0AD106E0099108E0099306E0E1
:10421000CDF824C003E00898099000E000BF00BF7B
:1042200009980BB0BDE8F08F00000000000000000E
:1042300001020304060708090010024000127A0078
:1042400000093D00064A02EB9011096800F01F03C7
:1042500001229A401143024B03EB90121160704708
:1042600000100240064A02EB9011096800F01F039B
:1042700001229A409143024B03EB90121160704768
:1042800000100240064A02EB9011096800F01F037B
:1042900001229A401143024B03EB901211607047C8
:1042A00000100240F0B503460C4623F0030503F06E
:1042B000030008B1042000E00020054496082946C8
:1042C000002004E051F8207044F82070401CB042F7
:1042D000F8DBF0BD7CB50546002400BF0A4901EBC0
:1042E0008400042201A9FFF7DDFF0198401C10B1F2
:1042F0000198009006E00CB9FF207CBD0098286072
:104300000020FAE7641CE9E700F8030810B5102163
:104310000148FFF711F810BD001001400149087075
:1043200070470000890000200149087070470000B4
:1043300040000020002000212C4A126842F4803204
:104340002A4B1A6000BF401C284A126802F4003150
:1043500019B94FF6FF729042F5D1244A126802F45F
:1043600000320AB900BFFEE7204A52681F4B5A606C
:104370001A4652685A601A46526842F480625A607D
:104380001A46526822F440325A601A46526842F481
:1043900040325A601A465268154B1A40134B5A6005
:1043A0001A465268134B1A43104B5A601A46126849
:1043B00042F080721A6000BF0C4A126802F000726C
:1043C000002AF9D0094A526822F00302074B5A60CA
:1043D0001A46526842F002025A6000BF034A52680D
:1043E00002F00802002AF9D07047000000100240D5
:1043F000FFFFC3F70000280810B5FFF79BFF10BDB3
:1044000010B5FCF7DBFF00BF0EA0FDF7CBFA73225F
:10441000104911A0FDF7C6FA00BF0320FFF784FF83
:104420000020FFF747FE0020FFF772FCFFF7D0FDEA
:104430000020FCF7DDFE0020FCF77CFFFEF7D8F93A
:1044400010BD00003C3C4D595F44454255473E3E3F
:1044500020000000824F000825732025640D0A000B
:1044600038B5002500BF33A0FDF79CFA3522354949
:1044700035A0FDF797FA00BF6846FFF72BFF05460A
:10448000FF2D0AD132A0FDF78DFA012000903449AA
:104490000860684600F066FC0CE0294631A0FDF794
:1044A00081FA0098401C00902D49009808606846E9
:1044B00000F058FC2A48006840F6B831884200D91C
:1044C00038BDFFF763FB30B12948007818B929A03F
:1044D000FDF768FAF4E7FCF735FA044600BF15A0CB
:1044E000FDF760FA2346512216492EA0FDF75AFA2D
:1044F00000BF1E2C0CDC00BF124B54222EA134A096
:10450000FDF750FA21463BA0FDF74CFA00BFD7E774
:104510000520FFF709FF0020FFF7FAFBFFF762FD18
:10452000FFF748FD0120FCF763FE0120FCF702FFC6
:1045300000BFC5E73C3C4D595F44454255473E3EB0
:1045400020000000724F000825732025640D0A002A
:10455000726574203D3D203235350D0A00000000A3
:1045600044000020726574203D3D2025640D0A0042
:1045700015000020706F7765725F6368617267690C
:104580006E672C2073797374656D20646973616242
:104590006C6520746F207374617274212121212154
:1045A000210D0A00257320256420766F6C203D20A4
:1045B00025640D0A000000007372635C6465765F19
:1045C00072756E5F7374617475732E630000000002
:1045D0003C3C46696C653A257320204C696E653A0F
:1045E0002564202046756E6374696F6E3A25733EAC
:1045F0003E2000004552524F523A706F776572204C
:10460000697320746F6F206C6F7720766F6C203D1C
:104610002025640A0000000010B50020024908703F
:1046200002A0FDF7BFF910BD5400002074656D7045
:104630005F636F6E74726F6C5F64697361626C65E7
:104640000D0A000010B501200249087002A0FDF714
:10465000A9F910BD5400002074656D705F636F6E22
:1046600074726F6C5F656E61626C650D0A000000AC
:10467000016841F0800101607047000010B531B160
:1046800001293FD002297DD003297CD1BFE0036AF4
:1046900023F001030362836923F003038361036A48
:1046A000148823430362036A23F002030362036A4C
:1046B0009488234303626A4B984202D0694B984224
:1046C0001FD1036A23F004030362036A548823435F
:1046D0000362036A23F008030362036AD488234356
:1046E0000362436823F4807343604368148923435F
:1046F0004360436823F40073436043685489234351
:104700004360ABE0036A23F010030362836923F480
:1047100040738361036A148843EA04130362036AE3
:1047200023F020030362036A948843EA04130362BC
:104730004B4B984202D04B4B984226D1036A23F050
:1047400040030362036A548843EA04130362036A62
:1047500023F080030362036AD48843EA04130362EC
:10476000436823F4806343604368148943EA840305
:104770004360436823F4006343604368548943EA19
:10478000840301E002E068E0436067E0036A23F429
:1047900080730362C36923F00303C361036A14884F
:1047A00043EA04230362036A23F400730362036A87
:1047B000948843EA04230362294B984202D0294B90
:1047C000984223D1036A23F480630362036A548806
:1047D00043EA04230362036A23F400630362036A67
:1047E000D48843EA04230362436823F4805343607C
:1047F0004368148943EA04134360436823F4005375
:1048000043604368548943EA0413436026E0036A23
:1048100023F480530362C36923F44073C361036AC2
:10482000148843EA04330362036A23F400530362E7
:10483000036A948843EA04330362094B984202D026
:10484000084B984208D1436823F48043436043688F
:10485000148943EA8413436000E000BF00BF10BD29
:10486000002C01400034014031B101290CD0022953
:1048700013D0032922D118E0836923F070038361E8
:104880008369134383611AE0836923F4E0438361FE
:10489000836943EA0223836111E0C36923F0700353
:1048A000C361C3691343C36109E0C36923F4E043EF
:1048B000C361C36943EA0223C36100E000BF00BFD4
:1048C000704731B1012906D0022906D0032908D149
:1048D00005E0426306E0826304E0C26302E0026432
:1048E00000E000BF00BF704731B101290CD00229A0
:1048F00013D0032922D118E0836923F008038361D0
:104900008369134383611AE0836923F4006383613D
:10491000836943EA0223836111E0C36923F008033A
:10492000C361C3691343C36109E0C36923F400632E
:10493000C361C36943EA0223C36100E000BF00BF53
:1049400070470021018041808180C18001814181C7
:10495000704701460020486A70474162704701680D
:1049600021F0010101607047016841F0010101601F
:10497000704700000A888262294A904220D0B0F134
:10498000804F1DD0274A90421AD0274A904217D014
:10499000264A904214D0264A904211D0254A90428D
:1049A0000ED0254A90420BD0244A904208D0244A87
:1049B000904205D0234A904202D0234A90420FD120
:1049C000026822F07002026002688B7803F06003D4
:1049D0001A43026002680B7903F010031A43026065
:1049E0008A68C262194A90420CD0194A904209D092
:1049F000026822F44072026002688B8903F44073FB
:104A00001A430260064A904202D0094A904201D1FC
:104A10008A7B0263426942F00102426170470000F2
:104A2000002C01400004004000080040000C004041
:104A300000340140004C014000500140005401404E
:104A400000180040001C0040002000400010004002
:104A500000140040C2680A43C260704702698A437A
:104A6000026170470246D06800EA010310690840FD
:104A700010B10BB1012070470020FCE7002101803C
:104A8000418081804FF6FF718160002181818173B7
:104A9000704700002DE9F04704460D460027B84650
:104AA000B94600261D49601A8C421CD006DC1C4801
:104AB000204470B1B0F5806F1FD10FE0B0F5806F6A
:104AC00016D0B0F56C4F18D10320FFF729FB07462D
:104AD00014E00220FFF724FB07460FE00220FFF757
:104AE0001FFB07460AE00220FFF71AFB074605E016
:104AF0000220FFF715FB074600E000BF00BF07EBF1
:104B00005500B0FBF5F64FF6F07006EA000806F027
:104B10000F0948EA0900A060BDE8F087004C00409A
:104B200000BCFFBF01464868C0F308007047C1F3EE
:104B3000080242607047000010B504462049601A20
:104B40008C4228D006DC1F48204490B1B0F5806F1D
:104B500033D117E0B0F5806F26D0B0F56C4F2CD173
:104B600040F20E30FFF78EFB40F20E30FFF77AFB7B
:104B700024E040F21140FFF785FB40F21140FFF7BF
:104B800071FB1BE040F21240FFF77CFB40F2124049
:104B9000FFF768FB12E040F21340FFF773FB40F2AF
:104BA0001340FFF75FFB09E040F21440FFF76AFB98
:104BB00040F21440FFF756FB00E000BF00BF10BDFD
:104BC000004C004000BCFFBFC16841F40051C1600F
:104BD000704710B5024602EB9110006801F01F0407
:104BE0000123A340184008B1012010BD0020FCE7BC
:104BF0000A460021416921F4007111434161704767
:104C00000A460021416921F48071114341617047D6
:104C100010B5C1F38912825801F01F040123A3408B
:104C20009A43C1F38913C25010BD10B5C1F3891264
:104C3000825801F01F040123A3401A43C1F38913D2
:104C4000C25010BD10B500EB91521268C1F304447C
:104C50000123A3409A4300EB91531A6010BD70B535
:104C6000024600230024C1F38910105801F01F06EA
:104C70000125B54000EA050302EB91500068C1F33D
:104C800004460125B54000EA050414B10BB101202A
:104C900070BD0020FCE7C26822F4C062C260C26836
:104CA0000A43C26070470A460021C16821F004012E
:104CB0001143C1607047026922F4405202610269E7
:104CC0000A43026170470A460021C16821F00801C9
:104CD0001143C1607047C26822F48052C260C2684A
:104CE0000A43C26070472DE9F04706460F46144656
:104CF00026F0030806F0030008B1042000E00020BD
:104D000080442046E11704EB51514FEAE129E117B5
:104D100004EB5151C912A4EBC12109B1012100E0FA
:104D2000002189444FEAA40AFEF74CF9002512E05D
:104D300057F8251008EB8500FEF766F940F20530BC
:104D4000FEF7A4F84FF44170FEF7A0F840F20230ED
:104D5000FEF79CF86D1C5545EADBFEF7A7F8BDE8A9
:104D6000F087000070B5054604210B48FDF7D2FC22
:104D7000061E05D101210848FDF784FF002403E049
:104D80004FF40060A0EB8604034960180422294612
:104D9000FFF7A9FF002070BD00F8030810B520211F
:104DA0000148FEF7C9FA10BD0010014010B50446D5
:104DB000312C02D100F02CF80DE0322C02D100F0A1
:104DC0001DF808E0332C02D100F092F803E0342CF7
:104DD00001D100F097F8214601A0FCF7E3FD10BDDA
:104DE0007774353838645F636F6E74726F6C20202F
:104DF000627566203D2025640D0A000010B5034948
:104E00000978491EC8B200F00DF810BD4C00002012
:104E100010B503490978491CC8B200F003F810BD69
:104E20004C00002010B504461E2C00DD10BDFFF71D
:104E30006DFA204600F006F80148047000BFF5E75F
:104E40004C00002070B5054600BF02211F48FEF748
:104E500073FA00BF0A20FBF7C5FFFFF79FFF012091
:104E6000FBF7C0FF002424E00120A040284030B11F
:104E700000BF01211548FEF75FFA00BF06E000BF42
:104E800001211248FEF758FA00BF00BF9620FBF739
:104E9000B3FF00BF20210E48FEF74EFA00BF962058
:104EA000FBF7AAFFFFF77AFF3220FBF7A5FF601C94
:104EB000C4B2082CD8DB00BF02210448FEF73CFA3C
:104EC00000BF0120FBF78EFF70BD0000000C014009
:104ED0000010014010B50446E72C06DCE02C04DB92
:104EE0002046FFF7AFFF0148047010BD4D000020C1
:104EF00010B503490978491CC8B2FFF7EBFF10BD94
:104F00004D00002010B503490978491EC8B2FFF7CB
:104F1000E1FF10BD4D000020012600080000000048
:104F20000000000035320008F91700087535000848
:104F3000712500080E0611070002000004000000A1
:104F400000040000080000000008014000080140C3
:104F500002060206250000002600000005050000EC
:104F6000003801400044004062746E735F736361F7
:104F70006E0073797374656D5F706F7765725F6FC4
:104F80006E0073797374656D5F706F7765725F6FB4
:104F9000666600106880030069725F697271395F2C
:104FA0006465746563745F7461736B006C617365D1
:104FB000725F636F6E74726F6C5F696E697400709C
:104FC000776D5F6F757400004275696C6474696D0C
:104FD00065203A4E6F762020362032303232203231
:104FE000303A32333A3333004445565F564F4C5FC4
:104FF0004C453330200000004445565F564F4C5F0F
:105000004C453336200000004445565F434841522A
:10501000474500004445565F504F5745524F46465E
:10502000000000004445565F425547004445565F26
:105030004348415247455F4F4B0000004445565F8F
:1050400052554E5F4E4F524D414C00004445565F05
:1050500045585445524E5F504F574552000000008E
:105060004552524F52203A2069725F697271395F1E
:105070006465746563745F7461736B2064657465E3
:10508000637420646576696365206F6666203220EC
:105090006D696E732C616E642073797374656D2015
:1050A00020676F20746F20706F7765726F66660D72
:1050B0000A0000004552524F523A6F7267206972DF
:1050C0005F53656E645F4441545B305D203D202535
:1050D00023782C69725F53656E645F4441545B3181
:1050E0005D203D202523782C69725F53656E645FD7
:1050F0004441545B325D203D202523782C69725F4A
:1051000053656E645F4441545B335D203D2025232D
:10511000780D0A004552524F523A72656376206408
:105120006174615B305D203D202523782C646174BF
:10513000615B315D203D202523782C646174615BC7
:10514000325D203D202523782C646174615B335DE2
:10515000203D202523780D0A000000007C51000826
:105160000000002094000000EC1900081052000814
:10517000940000202C200000FC190008C84F0008F3
:10518000000000000000000000000000000000001F
:105190000000000024500008E84F000814500008E8
:1051A000F84F00083C500008085000082C50000838
:1051B0004C50000800000000000000000300000048
:1051C0000000000028001A0000E0000000000000BD
:1051D0000100000003060306000C0140000C014022
:1051E00040000000800000000000000000000000FF
:1051F00000000000000000000000000000000000AF
:1052000000000000007F000000F36F0600000000B7
:0400000508000131BD
:00000001FF
