:020000040800F2
:10000000A820002045010008BD120008C90D000805
:10001000B9120008090A0008A91800080000000029
:100020000000000000000000000000009D14000817
:10003000F50C000800000000E11200081915000886
:100040005F0100085F0100085F0100085F01000810
:100050005F0100085F0100085F0100085F01000800
:100060005F0100085F0100087D0D00085F010008C6
:100070005F0100085F0100085F0100085F010008E0
:100080005F0100085F0100085F0100085F010008D0
:100090005F0100085F0100085F0100087F0D000894
:1000A0005F0100085F0100085F0100085F010008B0
:1000B0005F0100085F010008E11600085F01000809
:1000C0005F0100085F0100085F0100085F01000890
:1000D0005F010008B5170008F11700085F0100086C
:1000E0005F0100085F0100085F0100085F01000870
:1000F0005F0100085F0100085F0100085F01000860
:100100005F0100085F0100085F0100085F0100084F
:100110005F0100085F0100085F0100085F0100083F
:100120005F0100085F0100085F0100085F0100082F
:10013000DFF80CD000F072FB00480047F5380008EB
:10014000A82000200648804706480047FEE7FEE753
:10015000FEE7FEE7FEE7FEE7FEE7FEE7FEE7FEE777
:10016000211500083101000840EA01039B0703D074
:1001700009E008C9121F08C0042AFAD203E011F8E6
:10018000013B00F8013B521EF9D27047D2B201E0A8
:1001900000F8012B491EFBD270470022F6E710B58C
:1001A00013460A4604461946FFF7F0FF204610BDE5
:1001B0002DE9FE4F804681EA0300C00F0C460090F7
:1001C00021F0004123F00045B8EB0200A94105D21F
:1001D0004046214690461C460B46024623F000400E
:1001E000104347D0270DC7F30A00C3F30A5102900A
:1001F000401A019040286BDAC3F3130040F4801BCF
:100200000098924620B10023D2EB030A63EB0B0B5C
:1002100001985946C0F14002504600F00AFA0646DD
:100220000D4650465946019A00F022FA10EB08009C
:100230006141002487EA115284EAE7731A4340D0EF
:10024000009A62B3019A012A4FEA075215DC001B9B
:1002500061EB02014FF0004202EA0752CDE9004291
:10026000001C41F5801132462B4600F059FA03B0CC
:10027000BDE8F08F40462146F9E7001B61EB020123
:10028000001C41F5801300185B412018A2F50017EF
:1002900047EB030140EAD570B6196D4111E06D08D6
:1002A0004FEA360645EAC0754FEA0752001B61EB7C
:1002B0000201001C41F5801149084FEA3000001985
:1002C000514132462B4603B0BDE8F04F00F019BA59
:1002D0000098012240000023D0EB020263EBE073A0
:1002E000009821464FEAE074B8EB000061EB04018E
:1002F000E9E783F000435BE781F0004158E72DE92F
:10030000FE4F81EA030404F0004421F00041009410
:100310004FF0000B23F0004350EA01045ED052EA94
:1003200003045BD0C3F30A54C1F30A552C44A4F26E
:10033000F3340194A0FB0254C1F3130141F4801182
:10034000C3F3130343F4801301FB024400FB034E89
:10035000840A970A44EA815447EA8357A4FB076852
:1003600002958D0A05FB07854FEA932C04FB0C547C
:100370002705029D4FEA065847EA1637B5EB0805F0
:100380006EEB070C870E920E47EA811742EA831242
:10039000A7FB0201B6EB0B0164EB00042B0D43EA53
:1003A0000C335E1844EB1C50DA465146E7FB020161
:1003B000C5F313044FEA0B3343EA14534FEA0432F4
:1003C000019C43EA0603A4F10C040294009CCDE9CD
:1003D00000B400F0A5F903B0BDE8F08F002001469D
:1003E000F9E72DE9F04D81EA030404F0004B21F018
:1003F000004514464FF0000A23F0004150EA050280
:1004000020D054EA01021DD0C5F30A570246C5F3B5
:100410001303C1F31300C1F30A5640F4801543F4EB
:100420008013A7EB0608101BD64608F2FD3873EBC5
:10043000050002D308F1010801E092185B41B8F110
:10044000000F03DA00200146BDE8F08D00204FF4D4
:100450008011064684460EE0171B73EB050705D393
:10046000121B63EB050306434CEA010C49084FEAF3
:10047000300092185B4150EA0107EDD152EA0300C7
:1004800012D082EA040083EA0501084305D0101B5C
:10049000AB4106D20122002306E000224FF00043C8
:1004A00002E06FF0010253101AEB06004CEB08510A
:1004B00010EB0A0041EB0B01BDE8F04D00F021B953
:1004C00096230022114600F0EEB80EB540F23341FB
:1004D00002910021CDE900110A460B4600F020F9F7
:1004E00003B000BDC1F30A5210B5C1F3130140F2CD
:1004F000FF3341F480119A4201DA002010BD40F22E
:1005000033439A42A2F2334203DC524200F0A0F895
:1005100010BD904010BD00F0004230F000400AD005
:10052000C10D01F56071C0F3160042EA0151C20825
:1005300040071143704700200146704730B5041E44
:1005400071F1000404DB4FF00044404264EB010110
:10055000141E73F1000405DB1C464FF000435242A9
:1005600063EB04038B4208BF824230BD01F00043BD
:1005700030B421F0004150EA010206D00A0DA2F584
:100580006072C1F31301002A02DC30BC0020704706
:10059000440F44EAC104C100E01830BC00EBC25073
:1005A00000F078B830B50B46014600202022012427
:1005B00009E021FA02F59D4205D303FA02F5491B31
:1005C00004FA02F52844151EA2F10102F1DC30BD47
:1005D0002DE9F05F0546002092469B468846064678
:1005E000814640241BE0284641464746224600F00B
:1005F0002FF853465A46C01A914110D31146184657
:10060000224600F016F82D1A67EB01084F462246E5
:100610000120002100F00DF817EB00094E41201ECB
:10062000A4F10104DFDC484631462A464346BDE8D2
:10063000F09F202A04DB203A00FA02F100207047E4
:100640009140C2F1200320FA03F319439040704710
:10065000202A04DB203A21FA02F00021704721FA17
:1006600002F3D040C2F1200291400843194670477E
:10067000202A06DBCB17203A41FA02F043EAE07366
:1006800006E041FA02F3D040C2F120029140084353
:10069000194670470029A8BF7047401C490008BF91
:1006A00020F00100704710B4B0FA80FC00FA0CF0A2
:1006B00050EA010404BF10BC704749B1CCF12004DA
:1006C00021FA04F411FA0CF118BF01212143084367
:1006D000A3EB0C01CB1D4FEA00614FEA102042BF93
:1006E000002010BC704700EBC35010440029A4BF89
:1006F00010BC7047401C490008BF20F0010010BC2E
:10070000704710B5141E73F1000408DA401C41F163
:10071000000192185B411A4301D120F0010010BD85
:100720002DE9F04D92469B4611B1B1FA81F202E0FB
:10073000B0FA80F220329046FFF77BFF04460F4666
:1007400040EA0A0041EA0B0153465A46084313D0D7
:10075000114653EA010019D0C8F140025046FFF794
:1007600077FF05460E46504659464246FFF761FF61
:10077000084305D0012004E020463946BDE8F08D4D
:100780000020054346EAE0762C4337430A98630588
:10079000E40AA0EB08000022FD0A44EA47540A30AC
:1007A00002D500200146E9E7010510196941DDE99C
:1007B000084500196941BDE8F04DA2E7C1F30A52AE
:1007C000C1F3130140F2FF3341F480119A4202DA7F
:1007D00000200146704740F233439A42A2F233426E
:1007E00002DC5242FFF734BFFFF723BF30B5041ECF
:1007F00071F1000404DB4FF00044404264EB01015E
:10080000141E73F1000405DB1C464FF000435242F6
:1008100063EB0403994208BF904230BD064C074D7C
:1008200006E0E06840F0010394E8070098471034C0
:10083000AC42F6D3FFF780FCBC490008DC49000855
:1008400010B540F20A6003F009FA032003F050F9F2
:10085000002001F06DFD00224FF480711B4801F073
:10086000DEFD00220221194801F0D9FD01221146C6
:10087000164801F0EBFC0021144801F0DCFC0122D9
:100880001146124801F0B4FC03F014F905230A22C2
:1008900000210E4801F05AFD4FF4602201210B485F
:1008A00001F022FD01221146084801F0FEFC074834
:1008B00001F0F2FC012000F01FFA044801F083FC73
:1008C0000121024801F09CFD10BD000000280140FC
:1008D00070B50446002600250AE0681C85B2012098
:1008E00000F00AFA0A2D03DD0FA000F0DFFF05E09B
:1008F0000221134801F014FD0028EED000BF0221B0
:100900000F4801F009FD0E4801F076FD064605236B
:10091000224600210A4801F019FD0121084801F092
:100920006FFD304670BD00004552524F523A206173
:1009300064632074696D65206F75740D0A00000092
:10094000002801402DE9F05F0A20FFF7C1FF834630
:10095000FFF7BBFD064600220C4BFFF7D0FC044618
:1009600000220B4BFFF73DFD8046FFF7BBFD1FFA52
:1009700080FA00BF07A000F099FF514609A000F0DF
:1009800095FF00BF5046BDE8F09F0000008050403A
:100990000000B0403C3C4D595F44454255473E3E07
:1009A00020000000414443676574426174566F6CD7
:1009B000203D2025640D0A0010B500F09BFC4FF48B
:1009C000A06003F03DF84FF4C06003F047F9012147
:1009D0000C4802F0BFFA00F0D5FD4FF4E1310020E1
:1009E00002F0F8F800F0F0FC02F02EFE02F0D8F869
:1009F00000F04CFCFFF724FF00F0C2FB02F050FDBA
:100A000010BD00000002300000BFFEE7704700008C
:100A100010B50A4803F0E8FCC4B209480178007830
:100A2000401C074A1070074844541046007820289C
:100A300002DB00201146087010BD00000044004099
:100A400046000020780000202DE9F0410546674867
:100A50000078002871D1422D72D012DC342D60D084
:100A600008DC302D26D0312D2AD0322D3CD0332D2C
:100A700019D144E0352D55D0362D58D0412D12D105
:100A800057E0622D5BD008DC432D5ED0442D61D051
:100A90004D2D64D0612D06D14AE0632D54D0642DD4
:100AA00057D06D2D5AD0294651A000F0FFFE01F01D
:100AB000FFFD00BF5848016858A000F0F7FE52E063
:100AC00002F014F90646314656A000F0EFFE00246D
:100AD00007E05A48025D214659A000F0E7FE601C7D
:100AE000C4B2072CF5DB3EE05B480068FFF713FD5E
:100AF000064632460B4659A000F0D8FE33E002F01D
:100B000059FD0646314659A000F0D0FE02F064F9C6
:100B1000401E644951F82060314663A000F0C6FED3
:100B200021E020E066A167A000F0C0FE1BE01AE013
:100B300000BF01202D49087015E015E000E000BF5E
:100B400002202A4908700EE000BF042027490870DF
:100B500009E000BF05202549087004E000BF03201C
:100B60002249087000BF3FE020480078012807D1E3
:100B70000121284602F038FD00201C49087033E0AE
:100B80001A480078022807D10021284602F02CFDDF
:100B900000201649087027E014480078032806D181
:100BA000284603F00BFD0020104908701CE00F4898
:100BB0000078042806D1284602F02EFE00200B49BA
:100BC000087011E00948007805280AD1302D02D1BB
:100BD00003F084F901E003F097F90020034908705D
:100BE00002E0002001490870BDE8F08138000020D3
:100BF0004552524F523A20436F6D6D616E642055DD
:100C00006E6B6E6F7720636D64203D2030782578A1
:100C10002121210D0A0000000400002025730D0A87
:100C2000000000006C617365722061726561203D97
:100C30002030782578200D0A000000003A000020BE
:100C40006C617365722070776D5B25645D203D205B
:100C50002564200D0A0000005400002074656D70AA
:100C6000203D2025302E32660D0A0000757362206B
:100C7000636861726765207374617475732025649D
:100C800028303A6E6F206368617267652C313A6371
:100C900068617267696E672C323A66756C6C290DF3
:100CA0000A0000001800002073797374656D2072CB
:100CB000756E20737461747573202573200D0A009E
:100CC0006F666600576174636820446F67205374D1
:100CD00061747573203D2025730D0A0010B504481A
:100CE00003F082FBC4B22046FFF7AEFE10BD000049
:100CF00000380140704700000349086000BF024906
:100D000009680029FBD170470C000020F0B50346AC
:100D100000224FF0E0277D69104F3F68DFF840C0A8
:100D2000B7FBFCF7FEB203FB06F44FF0E027B9690E
:100D300010E04FF0E027B86988420BD0884202D219
:100D40000F1A3A4402E02F1A0F443A440146A242D5
:100D500000D300E0EDE700BFF0BD00007000002010
:100D600040420F000448006820B103480068401E5C
:100D700001490860704700000C000020704710B562
:100D80004FF4007001F0F0FE30B102F057FA4FF46A
:100D9000007001F0E3FE06E0202001F0E5FE10B156
:100DA000202001F0DBFE10BD10B50121014802F04A
:100DB00023F810BD0008014010B50121014802F0E0
:100DC0001DF810BD0008014000BFFEE770B50446E5
:100DD0000D462946204600F0D3F8204600F038F9A9
:100DE00090B100BF094B4FF4857209A10BA000F030
:100DF0005DFD2A462146124800F058FD00BF2046FE
:100E000000F006F9032070BD0020FCE72847000829
:100E10007372635C6969632E630000003C3C466941
:100E20006C653A257320204C696E653A2564202054
:100E300046756E6374696F6E3A25733E3E200000FE
:100E4000F447000810B504460021204600F0C6F91A
:100E5000204600F043FB0021204600F0EBF904207F
:100E6000FFF754FF0121204600F0B8F90620FFF7F4
:100E70004DFF0021204600F0B1F90320FFF746FFA7
:100E800010BD000070B5054640F2036002F0E6FEBA
:100E9000012D02D14FF4406405E0022D02D14FF440
:100EA000407400E0C024234602221021054801F0CE
:100EB000F3FF0121284600F091F90121284600F0B6
:100EC000B9F970BD000C014010B504460021204660
:100ED00000F084F9204600F001FB0121204600F0DB
:100EE000A9F90420FFF712FF0121204600F076F94E
:100EF0000620FFF70BFF0021204600F06FF90320CA
:100F0000FFF704FF10BD2DE9F04107460D46002410
:100F10000021384600F062F9384600F0C1FA03209B
:100F2000FFF7F4FE00261EE00021384600F056F9D7
:100F30000520FFF7EBFE0121384600F04FF960066F
:100F4000040E0420FFF7E2FE384600F025FA08B14F
:100F5000601CC4B20420FFF7D9FE0021384600F01F
:100F60003DF9701CC6B2082EDEDB1DB93846FFF70E
:100F7000ABFF02E03846FFF765FF2046BDE8F08191
:100F800070B506460C460021304600F027F9304681
:100F900000F0A4FA00251CE00320FFF7B7FE04F0E0
:100FA0008001304600F046F96006040E0420FFF789
:100FB000ADFE0121304600F011F90620FFF7A6FE34
:100FC0000021304600F00AF90320FFF79FFE681C5D
:100FD000C5B2082DE0DB70BD10B5044601212046E6
:100FE00000F028F9204600F079FA0121204600F0AF
:100FF000F5F80420FFF78AFE0021204600F01AF9D8
:101000000620FFF783FE0021204600F0E7F810BD20
:1010100010B504460021204600F0E0F8204600F01C
:101020005DFA0021204600F005F90620FFF76EFE6C
:101030000121204600F0D2F80320FFF767FE0121CE
:10104000204600F0F7F80620FFF760FE10BD000014
:1010500070B5054600240021284600F0BFF80320A3
:10106000FFF754FE0121284600F0E4F80320FFF7C3
:101070004DFE284600F014FA0121284600F0AEF893
:101080000320FFF743FE0EE0601CC4B2FA2C07DD1C
:101090002846FFF7BDFF0BA000F008FC012070BD43
:1010A0001420FFF733FE284600F076F90028EBD134
:1010B0000021284600F092F80320FFF727FE0020C9
:1010C000EDE700004552524F523A204949435F57DD
:1010D0006169745F41636B0D0A0000002DE9F04106
:1010E00005460E4600BF02F03FFA42F22830FFF7F5
:1010F0000DFE02F049FA41F29410FFF707FE00BF1F
:1011000000242CE02F5D4FF0000823E007F00100E1
:1011100070B100BF02F028FA4FF40C70FFF7F6FD33
:1011200002F032FA40F29A60FFF7F0FD00BF0EE0E5
:1011300000BF02F019FA4FF40C70FFF7E7FD02F060
:1011400023FA4FF40C70FFF7E1FD00BF00BF7F10E2
:1011500008F10108B8F1080FD8DB601CC4B2B44232
:10116000D0DB00F002F8BDE8F08110B502F0FCF928
:1011700040F28A20FFF7CAFD02F006FA10BD000017
:1011800010B501F02FFF02F0C9F8064800680649C3
:10119000B0FBF1F0401E84B2214642F20F7000F025
:1011A0007FFA10BD7000002040420F0010B50446C9
:1011B0000120A04008490978084000B110BD204630
:1011C000FFF760FE0120A040034909780843024967
:1011D000087000BFF2E700000000002070B505466F
:1011E0000C46012D0BD124B18102114801F006FEFD
:1011F0001DE04FF480610E4801F0FEFD17E0022D66
:101200000BD124B1E9010A4801F0F8FD0FE04FF4D9
:101210008071074801F0F0FD09E024B18021044805
:1012200001F0ECFD03E08021014801F0E5FD70BD17
:10123000000C014070B505460C46012D0BD124B1C0
:10124000C102114801F0DAFD1DE04FF400610E48C3
:1012500001F0D2FD17E0022D0BD124B129020A487A
:1012600001F0CCFD0FE04FF40071074801F0C4FD20
:1012700009E024B14021044801F0C0FD03E0402111
:10128000014801F0B9FD70BD000C014010B540F2FD
:10129000026002F0E3FC032302221021054801F062
:1012A000FBFD0221034801F0A7FD0121014801F0E7
:1012B000A3FD10BD0008014000BFFEE7704700001D
:1012C00010B50221014801F097FD10BD0008014052
:1012D00010B50221014801F091FD10BD0008014048
:1012E0007047000010B50821014801F085FD10BDD0
:1012F0000010014010B540F2036002F0AFFC40F274
:10130000046002F0ABFC4FF4C043022210212048DD
:1013100001F0C2FD4FF400511D4801F06DFD4FF486
:1013200080411B4801F06AFD08211A4801F066FD62
:10133000082302221021174801F0AEFD4FF480531C
:1013400002220421124801F0A7FD80230222042179
:10135000104801F0A1FD4023022248210D4801F070
:101360009BFD4FF4004302221021094801F094FD37
:101370004FF40041064801F03FFD1021054801F0FF
:101380003BFD102302221946024801F085FD10BDE5
:10139000000C01400010014010B50446012C04D19E
:1013A000C102084801F0CEFD10BD022C04D121027B
:1013B000044801F0C7FDF7E74021024801F0C2FDF3
:1013C000F2E70000000C014010B50020FFF7EEFE30
:1013D00010BD00002DE9F04F89B082460020FFF7D4
:1013E000FBFD012000EB4A00C1B20020FFF7EEFC3C
:1013F0000790079888BB01210020FFF784FDADF816
:10140000100000210846FFF77EFDADF81200002015
:10141000FFF7FEFDBDF81200BDF8101040EA0120F4
:101420001FFA80FB5846FFF74BF80190FFF773F85F
:101430000022164BCDE90201FEF761FF06460022AD
:10144000134BFEF7CEFF04460022124BFEF751FF6E
:101450008046FFF78BF8104908600020FFF7BCFDBD
:1014600088210020FFF7B2FC07902C210020FFF715
:10147000ADFC079006210020FFF7A8FC0790002094
:10148000FFF7C6FD09B0BDE8F08F000000E0654041
:10149000E0FFEF400080464054000020704700000D
:1014A00010B50446012C06D1C302022248210A4885
:1014B00001F0F2FC0EE0022C06D1230202224821A8
:1014C000054801F0E9FC05E04023022248210248DA
:1014D00001F0E2FC10BD0000000C014010B5044614
:1014E000012C06D1C302022210210A4801F0D4FCCB
:1014F0000EE0022C06D1230202221021054801F041
:10150000CBFC05E0402302221021024801F0C4FC7C
:1015100010BD0000000C014010B500F05BF810BDDC
:1015200010B51448006840F00100124908600846F0
:101530004068114908400F494860084600680F4953
:1015400008400C4908600846006820F480200860C4
:10155000084640680A49084006494860084600684D
:1015600006490840034908604FF41F00886002F0F4
:1015700015FC10BD001002400C00FFE8FFFFF6FE56
:10158000FFFF00F710B5124800684FF47A71B0FB06
:10159000F1F4601EB0F1807F01D301200FE0601EE6
:1015A0004FF0E02148610F214FF0FF3000F08EF93D
:1015B00000204FF0E021886107200861002008B179
:1015C00000BFFEE70021481E00F080F910BD0000BA
:1015D0007000002010B530480068401C2E4908609B
:1015E000FFF7C0FB2C4800680A21B0FBF1F201FBB9
:1015F000120028B92948008840F0010027490880D6
:10160000254800683221B0FBF1F201FB12000F28DF
:1016100005D12248008840F010002049088001F0E0
:10162000DBFB032836DD1D48008840F002001B4923
:101630000880194800684FF47A71B0FBF1F201FBA1
:10164000120040F29A21884205D11448008840F0E7
:10165000080012490880104800686421B0FBF1F2CC
:1016600001FB12004D2805D10C48008840F02000F5
:101670000A490880084800684FF4FA71B0FBF1F29B
:1016800001FB1200852805D10448008840F0400085
:101690000249088010BD0000100000200800002052
:1016A0007FB505460C4640F2027002F0D7FA684654
:1016B00002F046FE0295ADF800406946074802F088
:1016C000BBFD012211461E2002F064F901210348EE
:1016D00002F022FE014802F0A9FD7FBD0008004093
:1016E00010B50121054802F01FFE08B101F02EFEE1
:1016F0000121024802F014FE10BD00000008004065
:1017000070B52B480078401C2949087001F052FF41
:101710000546002D1ADD012D13D1FFF7D1FD244818
:101720000078052802DAFFF747FB3FE02048007801
:101730000A2802DAFFF738FB38E000201C4908705D
:1017400034E0FFF739FBFFF7BBFD2FE001F044FB6E
:101750000446032C07D1002015490870FFF724FB2D
:10176000FFF7AEFD70BD052C04D1FFF725FBFFF799
:10177000A7FD1BE0042C13D1FFF716FB0C480078E3
:10178000052802DAFFF7A4FD10E0094800780A28CE
:1017900002DAFFF795FD09E000200549087005E031
:1017A000012C03D1FFF700FBFFF792FD00BFD9E743
:1017B0004A00002010B50B490B4802F0B2FE30B1D0
:1017C000FFF78CFA0749084802F09EFE08E0074937
:1017D000054802F0A6FE18B10449034802F094FE41
:1017E00010BD00000503050000380140040304009B
:1017F00010B51749174802F094FE88B1FFF708F9B1
:101800001349144802F080FE13480078F0B94FF4F1
:101810004171104802F06BFE01200F49087015E07D
:101820000E490C4802F07DFE80B1FFF7EFF80B493E
:10183000084802F069FE0848007838B14FF4417159
:10184000044802F047FE00200349087010BD000064
:1018500005030500004400404C0000200403040080
:101860007CB504460D460E4903C9CDE90001012CA3
:1018700000DD7CBD0120A0400A490978084060B124
:1018800000BF5DF82400072102F005FE0028F8D013
:101890005DF82400294602F0ACFD00BFE9E7000036
:1018A000804700081400002000BFFEE70FB4054B7E
:1018B00010B503A9044A029800F0EEF810BC5DF8D8
:1018C00014FB00008D2B00087400002010B50028C8
:1018D00004DB0A07130E054A135406E00A07140E28
:1018E000034A00F00F031B1FD45410BD00E400E0B6
:1018F00018ED00E002E008C8121F08C1002AFAD162
:1019000070477047002001E001C1121F002AFBD17F
:10191000704700002DE9FF5F82B00021DDE904304F
:10192000020DDDF840B0034318D044F61050A2F287
:10193000FF3242431514119801281FD0A5EB0B006C
:10194000401C5FEA000A4FF000064E4FDFF8389166
:10195000B046504615D5CAF1000413E01198012491
:101960004AA3012801D16FEA0B010298119AC0E93C
:101970000031C0E9024206B0BDE8F09FCBF10000A3
:10198000DFE704460021404A491842EB0450CDE904
:10199000001012E0E00707D032463B464046494679
:1019A000FEF7ADFC8046894632463B461046194656
:1019B000FEF7A5FC06460F466410002CEAD1DDE9CF
:1019C0000401DDE90023BAF1000F06DAFEF797FC07
:1019D00042464B46FEF793FC05E0FEF702FD424609
:1019E0004B46FEF7FEFC04460E460022284BFEF74F
:1019F000FDFE03D84FF0FF30014607E00022254BE3
:101A000020463146FEF7D4FBFEF7D8FE102409E04D
:101A1000002C0ADB0A220023FEF7DAFD039B30329A
:101A20001A55641E50EA0102F2D1641C039AC4F1F3
:101A300011031444119A012A03D0012208430DD145
:101A40000AE0084304D000204FF0110B119072E718
:101A5000A3EB0B056D1E0DE05B4504DD4FF00002AE
:101A600005F1010504E003DA4FF00002A5F10105DC
:101A7000002AECD002981199C0E90231C0E9004572
:101A800079E70000000014400000F03F3000000043
:101A90000000F0430000E03F2DE9FF4F95B09B466A
:101AA0008946064600250FE2252877D100242746DF
:101AB000F84A0121059400E0044316F8013F203B59
:101AC00001FA03F01042F7D130782A2811D06FF0D4
:101AD0002F033078A0F13002092A16D8059A44F075
:101AE000020402EB820203EB42021044761C0590D2
:101AF000EFE759F8042B0592002A03DA504244F428
:101B00000054059044F00204761C30782E2816D13B
:101B100016F8010F44F004042A280DD06FF02F02AC
:101B20003078A0F13003092B09D807EB870302EBCB
:101B30004303C718761CF3E759F8047B761C30780A
:101B40006C280FD006DC4C2817D068280DD06A28E6
:101B500014D104E0742810D07A280FD10DE044F499
:101B600000140AE044F4801401E044F44014727854
:101B7000824202D104F58014761C761C30786628E7
:101B80000BD013DC582877D009DC002875D0452805
:101B9000F6D04628F4D047281AD19DE118E06328F2
:101BA00035D0642879D0652812D195E1702873D09A
:101BB00008DC6728F1D069286FD06E280DD06F2817
:101BC00006D1B5E073282CD0752875D0782874D04C
:101BD0005A46179990476D1C75E1C4F302500228CC
:101BE00009D003280DD0D9F8001004280DD00D60BD
:101BF00009F1040967E1D9F80010EA17C1E90052B8
:101C0000F6E7D9F800100D80F2E70D70F0E719F84B
:101C1000041B8DF8001000208DF80100EA46012019
:101C200003E059F804AB4FF0FF3061074FF00001BB
:101C300002D40DE008F101018846B9420FDA80456F
:101C4000F8DB1AF808100029F4D108E008F10101C6
:101C500088468142FADB1AF808100029F6D1059867
:101C60005B46A0EB080721463846179A00F094FA25
:101C7000284400EB080507E04DE029E10DE01AF8E3
:101C8000010B5A4617999047B8F10108F7D25B4605
:101C900021463846179A13E142E00A220092C4F323
:101CA00002524FF0000A022A08D059F804CB032A46
:101CB0004FEAEC710AD00DE029E02AE009F10701B2
:101CC00021F00702F2E802C1914609E00FFA8CFC0C
:101CD0004FEAEC71042A03D14FFA8CFC4FEAEC7105
:101CE000002907DA0A460021DCF1000C61EB020151
:101CF0002D2202E0220504D52B228DF8042001229A
:101D000003E0E20701D02022F7E7904659E00A21DC
:101D100002E010220DE010214FF0000A00910BE0CC
:101D200010224FF0000A44F004040827009203E058
:101D300008224FF0000A0092C4F30252022A05D092
:101D400059F804CB0021032A08D009E009F1070162
:101D500021F00702F2E802C1914605E01FFA8CFC6F
:101D6000042A01D10CF0FF0C4FF00008220728D5FF
:101D7000702806D0009B83F0100353EA0A0305D0B5
:101D80000EE040228DF80420012208E05CEA010206
:101D900006D030228DF804208DF8050002229046EE
:101DA000009B83F0080353EA0A030AD15CEA0102AC
:101DB00001D1620705D530228DF804204FF00108CB
:101DC0007F1E582804D034A003900EA802900DE086
:101DD00036A0F9E753466046009AFEF7F9FB8446C1
:101DE0000398825C0298401E029002705CEA010037
:101DF000F0D1029806A9081A00F1200A600702D55E
:101E000024F4803400E00127574502DDA7EB0A00E7
:101E100000E0002000EB0A01009005984144401AC0
:101E20000590E00306D45B462146179A059800F01A
:101E3000B3F90544002706E001A85A46C05D17998A
:101E400090476D1C7F1C4745F6DBE0030CD55B46D5
:101E50002146179A059800F09FF9054404E03020C8
:101E60005A46179990476D1C0099481E009000290A
:101E7000F5DC08E0029802995A460078491C029164
:101E8000179990476D1CBAF10001AAF1010AF1DC23
:101E900065E100000928010030313233343536372E
:101EA00038396162636465660000000030313233A6
:101EB0003435363738394142434445460000000046
:101EC00000F058F90544761C307800287FF4ECAD1A
:101ED00019B02846BDE8F08F620700D4062709F143
:101EE000070222F0070CFCE80223E14603F0004859
:101EF0005FEA080C02D00FF2702C0DE05FEA045C80
:101F000002D50FF2682C07E05FEAC47C02D00FF222
:101F1000602C01E0AFF2700C4FF0FF3823F000436B
:101F2000CDF850C065280CD006DC452809D04628DD
:101F30001DD047283DD13DE0662818D067287ED1C6
:101F400038E00021112F01DB112000E0781CCDE9E1
:101F5000000106A90EA8FFF7DDFCDDE90F010E9ACE
:101F600003910021009207F1010A04914DE04FF026
:101F700000400097CDE9011006A90EA8FFF7CAFCA2
:101F8000DDE90F0203920E9B11990022DDF80CA0EF
:101F90000093049211B9791C00EB010AB7EB0A0017
:101FA00004D4C0F1FF3007F1010A0490AAEB070046
:101FB000019044E0012F00DA01270021112F01DDFB
:101FC000112000E03846CDE9000106A90EA8FFF770
:101FD000A1FCDDE90F010E9A03910021049100920A
:101FE000BA4621070CD40399514500DA8A46BAF162
:101FF000010F05DD009AAAF10101515C302908D0DA
:10200000B84202DA10F1040F06DA0121CDE901101D
:1020100015E0AAF10101E9E7002805DC0499014473
:102020000491AAEB000102E0411C514500DD8A4603
:102030000499401A401C01904FF000400290200784
:1020400004D40198504501DBCDF8048000208DF8C0
:102050004F0002980DF14F07B0F1004F25D02B2013
:102060000E9002984FF0020800280CDA40420290CD
:102070002D200E9007E00A210298FEF793FA3031E6
:10208000029007F8011DB8F10001A8F10108F2DC87
:1020900002980028EFD1791E0E980870307800F071
:1020A000200040F0450007F8020D12A8C01B00F107
:1020B00007081498007800B1012000EB0A0101988C
:1020C00001EBE07105984144401A401E0590E00381
:1020D00006D45B462146179A059800F05DF8054442
:1020E0001498007818B15A46179990476D1CE00370
:1020F00024D55B462146179A059800F04DF8054413
:102100001CE00498002807DBDDE90301884203DDB9
:102110000098405C179901E0179930205A46904783
:10212000049805F10105401C04900198401E01909F
:1021300004D12E205A46179990476D1CBAF1000120
:10214000AAF1010ADDDC05E017F8010B5A461799E0
:1021500090476D1CB8F10001A8F10108F4DC5B4662
:102160002146179A0598ABE62D0000002B000000D1
:10217000200000002DE9F041044600251E461746C8
:10218000880404D405E039462020B0476D1C641E45
:10219000F9D52846BDE8F0812DE9F0410446002537
:1021A0001E469046C80301D5302700E0202788044A
:1021B00004D505E041463846B0476D1C641EF9D58C
:1021C0002846BDE8F081816841F00801816000BFC8
:1021D000816801F008010029FAD1816841F0040109
:1021E000816000BF816801F004010029FAD17047C5
:1021F00030B5012902D002291AD10CE0C36A23F4B8
:102200007003C362C36A541E4FF4700505EA045498
:102210002343C3620DE0836B23F440138363836B1A
:10222000541E4FF4401505EA04542343836300E031
:1022300000BF00BF30BD21B1826842F400628260FD
:1022400003E0826822F400628260704730B5436820
:1022500023F4C0534360012904D0022913D0042978
:1022600016D116E0436823F4604343604368541E6C
:102270004FF4604505EA443423434360436843F424
:102280000063436006E0436843F48053436001E029
:1022900000BF00BF00BF30BD816801F0010119B966
:1022A000816841F001018160704772B101F0010362
:1022B0001BB1836843F48013836001F0020393B180
:1022C000836843F4004383600DE001F001031BB118
:1022D000836823F48013836001F002031BB18368D9
:1022E00023F4004383607047012902D0022910D1F2
:1022F00007E0836823F4602383608368134383606B
:1023000008E0836823F4E0438360836813438360B9
:1023100000E000BF00BF704702688A430260704758
:102320000246002013680B4003B1012070470000F3
:102330000549096821F47021034A116011460968B2
:10234000014311607047000004240140F0B51D46B0
:1023500006290CDA436B01EB81071F26BE40B3430D
:1023600001EB810602FA06F63343436322E00C29AF
:102370000EDA036B8E1F06EB86071F26BE40B343A3
:102380008E1F06EB860602FA06F63343036311E05E
:1023900010290FDAC36AA1F10C0606EB86071F2687
:1023A000BE40B343A1F10C0606EB860602FA06F620
:1023B0003343C3620A2A0CDA046902EB4207072698
:1023C000BE40B44302EB420605FA06F6344304610C
:1023D00011E0122A0FDAC468A2F10A0606EB4607DA
:1023E0000726BE40B443A2F10A0606EB460605FAEC
:1023F00006F63443C460F0BD0146C86C80B2704735
:1024000001F001021AB1826842F48002826001F098
:1024100002021AB1826842F4001282607047AAB1C7
:1024200001F480731BB1436843F48073436001F48B
:1024300080631BB1436843F48063436001F002038F
:10244000CBB1836843F00203836014E001F480732E
:102450001BB1436823F48073436001F480631BB1B4
:10246000436823F48063436001F002031BB1836877
:1024700023F002038360704710B501F09BF820B190
:1024800019A0FFF713FA01F08DFCFEF75BFA044682
:10249000242C0ADD00BF18A0FFF708FA40F21F1233
:1024A00019491AA0FFF702FA1DE01E2C0EDD00BF2D
:1024B00011A0FFF7FBF94FF49272134917A0FFF731
:1024C000F5F900BF042001F001FC0CE000BF0AA0F8
:1024D000FFF7ECF940F229120B4916A0FFF7E6F9D5
:1024E00000BF01F05FFC10BD706F7765725F6368BD
:1024F000617267650D0A00003C3C4D595F444542DE
:1025000055473E3E20000000CE4700082573202599
:102510006420766F6C3E33360D0A0000257320254B
:102520006420332E303C20766F6C203C3D332E36B9
:102530000D0A0000257320256420766F6C203C3D39
:10254000332E300D0A00000010B500F045FC0446A3
:1025500001F030F830B12448008810B10020224941
:10256000088010BD00F02CFB01282AD11E480088ED
:10257000B0F5967F35DC1C480088401C1A4908805D
:1025800008460088B0F5967F2BDD032C0CDC00BFDD
:1025900016A0FFF78BF96E22184919A0FFF786F9EC
:1025A00000BF01F023FC1CE000BF10A0FFF77EF984
:1025B0007322124912A0FFF779F900BF01F0F2FB74
:1025C0000FE00948008860B100BF08A0FFF76EF96E
:1025D00080220A490CA0FFF769F900BF00200249D8
:1025E000088000BFBDE70000480000203C3C4D597A
:1025F0005F44454255473E3E20000000A347000887
:1026000025732025640D0A0025732025642062743B
:102610006E2072656C656173650D0A001CB52148FA
:10262000006808B900201CBD1E480068000E8DF827
:1026300007001C480068000C8DF806001948008847
:10264000000A8DF80500174800788DF80400002076
:1026500014490860144800789DF80410884213D18A
:10266000114840789DF8051088420DD10E488078B9
:102670009DF80610884207D10B48C0789DF80710D6
:10268000884201D10120CEE79DF8070000909DF817
:1026900006309DF805209DF804100448FFF706F960
:1026A0000020C0E764000020DB47000874490008F0
:1026B00010B529A0FFF7FAF830A0FFF7F7F839A016
:1026C000FFF7F4F840A0FFF7F1F848A0FFF7EEF8A5
:1026D0004EA0FFF7EBF851A0FFF7E8F85EA0FFF778
:1026E000E5F861A0FFF7E2F86AA0FFF7DFF874A051
:1026F000FFF7DCF87CA0FFF7D9F886A0FFF7D6F843
:102700008BA0FFF7D3F891A0FFF7D0F891A0FFF7C7
:10271000CDF897A0FFF7CAF89CA0FFF7C7F88BA0E9
:10272000FFF7C4F8A0A0FFF7C1F8A6A0FFF7BEF816
:10273000ABA0FFF7BBF8B1A0FFF7B8F8B2A0FFF766
:10274000B5F8B8A0FFF7B2F8C0A0FFF7AFF8CAA07D
:10275000FFF7ACF810BD000064656275675F6865DF
:102760006C702C706C656173652075736520736F78
:102770006D6520636D64730D0A000000302E2070BB
:1027800072696E742070726F6772616D2062756914
:102790006C642074696D6520616E64206461746589
:1027A0000D0A0000312E207072696E74206C617306
:1027B00065722061726561732070776D2076616C3F
:1027C00075650D0A00000000322E207072696E746B
:1027D0002068617427732074656D7065726174750B
:1027E00072652076616C75650D0A0000332E2070CD
:1027F00072696E7420757362206368617267652008
:102800007374617475730D0A00000000342E206E1D
:102810006F7468696E670D0A00000000352E207025
:1028200072696E7420576174636820446F67205327
:102830007461747573286F66662C6E6F7420656E94
:1028400061626C6520746869732076657273696F64
:102850006E290D0A00000000362E206E6F74686924
:102860006E670D0A000000006D312E206D757369D2
:1028700063206F7220737065616B657220636F6E89
:1028800074726F6C3A206E657874206F6E650D0AF5
:10289000000000006D322E206D75736963206F7229
:1028A00020737065616B657220636F6E74726F6CFC
:1028B0003A206C617374206F6E650D0A0000000091
:1028C0006D332E206D75736963206F722073706590
:1028D000616B657220636F6E74726F6C3A20766FF5
:1028E0006C207570200D0A006D342E206D75736993
:1028F00063206F7220737065616B657220636F6E09
:1029000074726F6C3A20766F6C20646F776E0D0A6C
:102910000000000041302E20656E61626C65206C05
:1029200061736572206172656120300D0A000000DC
:1029300041312E20656E61626C65206C6173657239
:10294000206172656120310D0A0000002E2E2E2EAE
:102950002E0D0A0041362E20656E61626C65206C7A
:1029600061736572206172656120360D0A00000096
:1029700042302E2064697361626C65206C617365FE
:1029800072206172656120300D0A000042312E20F4
:1029900064697361626C65206C6173657220617239
:1029A000656120310D0A000042362E206469736192
:1029B000626C65206C61736572206172656120369E
:1029C0000D0A000063302E20736574206C617365FE
:1029D000722070776D20313025250D0A000000002F
:1029E00063312E20736574206C617365722070777B
:1029F0006D20323025250D0A000000002E2E2E2ECF
:102A00002E2E0D0A0000000063392E2073657420FD
:102A10006C617365722070776D2031303025250D23
:102A20000A00000064302E207365742074656D7098
:102A300020636F6E74726F6C206C617365722070AE
:102A4000776D20656E61626C650D0A0064312E2021
:102A50007365742074656D7020636F6E74726F6C33
:102A6000206C617365722070776D20646973616298
:102A70006C650D0A000000006F746865722E20708E
:102A800072696E7420746869732068656C700D0AD1
:102A90000000000010B52C4B1B6883432A4C2360B8
:102AA000231D1B688343241D2360231D1B68834350
:102AB000241D2360231D1B688343241D236011B143
:102AC00001290ED105E0204B1B6803431E4C2360F7
:102AD00008E01D4B1B1D1B6803431B4C241D23607A
:102AE00000E000BF00BF22B1012A0FD0022A27D187
:102AF00019E0154B08331B680343134C083423605B
:102B0000231D1B688343241D23601AE00E4B0833EA
:102B10001B6883430C4C08342360231D1B6803434C
:102B2000241D23600DE0084B08331B680343064C4B
:102B300008342360231D1B680343241D236000E029
:102B400000BF00BF10BD0000000401400249096839
:102B50000143014A116070470004014001490860C7
:102B6000704700001404014001460748006800EA6D
:102B7000010205481438006800EA010312B10BB1E4
:102B8000012070470020FCE71404014070B50446A2
:102B90000D46E1B20020FEF763FE204670BD000046
:102BA00010B540F2026001F059F84FF400430222E0
:102BB0002821024800F070F910BD00000008014013
:102BC00010B54FF40041024800F0BCF910BD000000
:102BD0000008014070B504460D46344E012C00D16A
:102BE000334E0120A04033490978084000B170BD40
:102BF000314931F8140001F031F8304931F814004E
:102C000001F02CF82E4951F824302E4951F82400B7
:102C10000222182100F040F92B4951F824302949AB
:102C200051F824000222042100F036F9304601F068
:102C3000E5FB2946304601F08FFB0021304601F0CC
:102C4000ACFC0021304601F098FC0021304601F038
:102C500084FC0021304601F035FC0021304601F0B3
:102C600029FC0421304601F080FC0821304601F0A7
:102C70008CFC304601F00AFC40F20531304601F090
:102C800036FC124B1B5D03F00302104B1B5D9910C9
:102C90000F4B13F8240000F07DFE0120A0400549F1
:102CA000097808430349087000BFA0E700380140D5
:102CB00000440040140000207047000854470008FA
:102CC0005847000868470008604700087C4700082C
:102CD0007447000810B54021034800F033F908B9E3
:102CE000012010BD0020FCE70010014001480078E1
:102CF000704700004200002070B54420FEF76AFBD8
:102D00002D480078002856D02C480068FDF703FCB9
:102D1000044600222A4BFDF711FC03D20A2000F0E2
:102D2000D7FE48E025480068FDF7F5FB0446002281
:102D3000244BFDF703FC03D2072000F0C9FE3AE064
:102D40001E480068FDF7E7FB044600221E4BFDF716
:102D5000F5FB03D2052000F0BBFE2CE0174800680D
:102D6000FDF7D9FB04460022184BFDF7E7FB03D221
:102D7000032000F0ADFE1EE010480068FDF7CBFB1D
:102D800004460022124BFDF7D9FB03D2022000F0CB
:102D90009FFE10E009480068FDF7BDFB04460022D5
:102DA0000C4BFDF7CBFB03D2012000F091FE02E0BB
:102DB000002000F08DFE70BD58000020540000205F
:102DC00000003E40008041400000444000804640FA
:102DD000000048400000494001480078704700006A
:102DE0004B00002010B54FF48051024800F0AAF8C3
:102DF00010BD0000000C0140416170470161704747
:102E000010B500228B071C0F0F2303FA04F20429CC
:102E10000EDA204B9B6893431E4CA36023469B68AD
:102E20008C07240F00FA04F423431A4CA3602FE00C
:102E300008290EDA174BDB689343164CE3602346F0
:102E4000DB688C07240F00FA04F42343114CE36081
:102E50001EE00C290EDA0F4B1B6993430D4C2361C6
:102E600023461B698C07240F00FA04F42343094C02
:102E700023610DE0074B5B699343064C6361234676
:102E80005B698C07240F00FA04F42343014C63614F
:102E900010BD000000000140F0B5044616460025B4
:102EA000002201F00F0501F0100707B135430020A3
:102EB0001EE0012787401F40C7B122684FEA800CFF
:102EC0000F2707FA0CF7BA43870005FA07F73A43CA
:102ED000282904D1012787401F40676105E0482960
:102EE00003D1012787401F4027612260471CB8B2E9
:102EF0000828DED3082022E0012787401F40E7B1E1
:102F00006268A0F108074FEA870C0F2707FA0CF751
:102F1000BA43A0F10807BF0005FA07F73A4328298A
:102F200004D1012787401F40676105E0482903D18C
:102F3000012787401F4027616260471CB8B21028F4
:102F4000DAD3F0BD02469068084008B1012070470E
:102F50000020FCE7F0B50A460023002400210025EC
:102F600000F00046B6F1004F02D11D4EF16901E0BC
:102F70001B4E7168C0F3034583B200F44016B6F5EA
:102F8000401F08D121F07061154E766826F07066FA
:102F9000134F7E6012E000F48016B6F5801F06D154
:102FA000032606FA05F4A14341F0706106E0460DE0
:102FB000360103FA06F6B14341F0706122B1460DC5
:102FC000360103FA06F6314300F00046B6F1004F31
:102FD00002D1034EF16101E0014E7160F0BD0000CD
:102FE0000000014010B540F2046000F037FE4FF4DD
:102FF000C06000F033FE4FF40073022204210D483C
:10300000FFF74AFF02221146172000F0C3FC0921F6
:103010000220FFF7F5FE022200211002FFF73AFD21
:103020004FF40070FFF79AFD4FF40070FFF78EFD2C
:1030300010BD00000010014010B5FFF7CDFE0328C1
:1030400000DC10BD424908780978491C404A1170DB
:1030500000EBD0714910A0EB410121B904213D489A
:10306000FEF73CF872E0FFF7D9FA002839D03A4869
:10307000008858B900BF394B40F2A31238A13EA0D6
:10308000FEF714FC4548FEF711FC00BF32480088EB
:10309000401C3149088008460088642190FBF1F209
:1030A00001FB120020B92C4801883DA0FEF7FEFB71
:1030B00029480088B0F5966F48DD00BF274B4FF4D4
:1030C000D67227A12CA0FEF7F1FB3C48FEF7EEFBE1
:1030D00000BF00203A4908801F49088000F062FEC6
:1030E00034E01D48008810B100201B490880344896
:1030F000008800280ED1642000F0EAFC00BF174BC6
:1031000040F2BB1216A11CA0FEF7D0FB2DA0FEF7CB
:10311000CDFB00BF2A480088401C2949088008468A
:10312000008844F2A011884210DD00BF0B4B40F232
:10313000C1120BA110A0FEF7B9FB30A0FEF7B6FB41
:1031400000BF00F02FFE00201D49088000BF78E777
:103150006A000020DB4700086C000020E047000800
:103160007372635C69725F72656D6F74655F7265BF
:1031700063762E63000000003C3C46696C653A258E
:103180007320204C696E653A2564202046756E6375
:1031900074696F6E3A25733E3E200000284900088E
:1031A00064657465637420646576696365206F6621
:1031B00066202C6E203D2025640D0A00D4480008AE
:1031C0006E00002069725F697271395F64657465B1
:1031D00063745F7461736B206465746563742073DA
:1031E0006F6D656F6E65202C616E6420706F776502
:1031F000726F6E206C617365720D0A0069725F698F
:103200007271395F6465746563745F7461736B2098
:103210007461736B2069732072756E203238206D73
:10322000696E732C616E642073797374656D2070A0
:103230006F7765726F66660D0A00000010B506486C
:1032400000F0E9FF04460021034800F0E8FF2046B3
:1032500000F0A2F810BD0000000C00402DE9F04F76
:1032600085B005460C46294830F8140004900CB18E
:10327000012C03D1012005B0BDE8F08F032C0DD146
:1032800040F6B830854206D20420214908701F4814
:103290000089049002E01D48C08804900498FDF75E
:1032A00014F982461B4A1C4BFDF729F8074688464D
:1032B0000498FDF70AF93A464346CDE90001FDF7C7
:1032C00018F8CDE90201FDF70DF981460498FDF7E4
:1032D000FCF807460F4A104BFDF711F8CDE9000145
:1032E0000498FDF7F2F88246DDE90023FCF760FF61
:1032F000CDE90201FDF7F6F806464D4503D3B54288
:1033000001D80120B7E70020B5E7000098000020B1
:103310005C0000209A9999999999C93F0020094920
:1033200008700949088042F2283088804010C8801F
:103330004FF40C7048810120488040F6CA00088193
:10334000704700005C0000209800002010B50E4877
:103350000078B8B100200C4908700C48007820B102
:103360000B48006800F086F807E00A48006800F0A3
:1033700081F808480068064908600020054908608F
:103380000249087010BD00005C00002068000020A9
:10339000640000206000002010B504462B4801782E
:1033A0002046FFF75BFF10B9FFF7D0FF10BD27489D
:1033B0000078062843D2DFE800F003160A0E3E121A
:1033C0000220224908700020214908703AE00320B9
:1033D0001E49087036E005201C49087032E00120C3
:1033E0001A4908702EE0052018490870194800682D
:1033F000400818490860B4F57A7F04D90846006887
:1034000040F00040086012480078401C10490870E5
:103410000846007820280DDB0E480268084601782F
:103420000DA0FEF743FA002009490870094800681A
:103430000F49086006E005200449087002E0FFF724
:1034400085FF00BF00BF00BFB0E700005C000020A8
:103450006900002060000020636E74203D20256418
:103460002064617461203D202523780D0A0000004E
:10347000640000202DE9F0410446260EC4F3072520
:10348000E7B2E819FF2804D12A46314602A0FEF728
:103490000DFABDE8F081000025752025750D0A00A4
:1034A00030B587B0322440F2017000F0D7FB40F213
:1034B000046000F0D3FB4FF4C06000F0CFFB4FF48A
:1034C0008073022218212248FFF7E6FC01212148DF
:1034D000FFF740FD642C00DD642403A800F030FFFA
:1034E0001D480088401E05901C4800681C49B0FB20
:1034F000F1F0401E80B2ADF80C0003A9194800F0AD
:103500009BFE684600F07FFE0120ADF800006A4691
:103510000221144800F014FD70220221114800F02D
:1035200005FEC4F164000C4909884843642190FBFE
:10353000F1F52A4602210B4800F025FE0022022167
:10354000084800F033FE074800F0F4FC07B030BD37
:1035500000100140000C1A004E00002070000020F6
:1035600040420F000004004010B54FF48073022267
:1035700018210348FFF790FC024800F057FE10BDE9
:10358000001001400004004010B5084800F049FE5A
:103590004FF48073022210210548FFF77DFC4FF4A1
:1035A00080710348FFF728FC10BD000000040040B4
:1035B0000010014010B5FFF715FC08B9002010BD40
:1035C000FFF788FB08B10120F9E70220F7E70000C8
:1035D000072806DA01218140024A12781143014A84
:1035E000117070474200002070B504460D46372C1C
:1035F0000DDA302C0BDB2DB1A4F13001C8B2FFF78E
:10360000E7FF04E0A4F13001C8B200F067F9A4F1CB
:1036100030012A4601A0FEF749F970BD6C6173655F
:10362000725F617265615F636F6E74726F6C202090
:1036300061726561203D20256420206164643D2025
:1036400025640D0A0000000010B540F2026000F091
:1036500005FB40F2036000F001FB40F2046000F063
:10366000FDFA40F2056000F0F9FA4FF480530222AF
:1036700010211948FFF710FC3823022210211748A7
:10368000FFF70AFC4FF4E053022210211448FFF721
:1036900003FC0423022210211248FFF7FDFB4FF424
:1036A00080510D48FFF7A8FB38210C48FFF7A4FB19
:1036B0004FF4E0510A48FFF79FFB04210948FFF748
:1036C0009BFB00BF08A0FEF7F1F838220A490BA0C7
:1036D000FEF7ECF800BF10BD00080140000C0140EF
:1036E00000100140001401403C3C4D595F444542EC
:1036F00055473E3E200000008847000825732025DE
:10370000640D0A0010B500F0A5F938210648FFF74E
:1037100073FB4FF4E0510548FFF76EFB04210448AA
:10372000FFF76AFB10BD0000000C014000100140D3
:103730000014014010B5044614B9FFF7E3FF10BDB3
:10374000FFF74AFB032802D1FFF7DCFFF7E700F0A1
:103750008FF904F0010020B110212C48FFF74EFB37
:1037600003E010212948FFF747FB04F0020020B1D5
:1037700008212648FFF742FB03E008212348FFF712
:103780003BFB04F0040020B120212048FFF736FB6A
:1037900003E020211D48FFF72FFB04F0080020B1B3
:1037A00004211B48FFF72AFB03E004211848FFF718
:1037B00023FB04F0100028B14FF480511548FFF7A7
:1037C0001DFB04E04FF480511248FFF715FB04F095
:1037D000200028B14FF400610E48FFF70FFB04E012
:1037E0004FF400610B48FFF707FB04F0400028B1DD
:1037F0004FF480610748FFF701FB04E04FF480615C
:103800000448FFF7F9FA00BF99E70000000C0140F7
:10381000001401400010014070B50446392C07DC4B
:10382000302C05DBA4F12F00C5B2284600F050F97A
:10383000294602A0FEF73AF870BD00006C6173657E
:10384000725F70776D5F636F6E74726F6C2020644F
:103850006567726565203D202564200D0A00000023
:1038600010B5FFF7B9FA032805DC002017490880D6
:10387000FFF760FF10BD154800880A281BDA1448BE
:1038800000781449087000240EE01348005D0F49C9
:103890000988884206DC0120A0400E49097881434E
:1038A0000C480170601CC4B2072CEEDB094800789C
:1038B000FFF740FF03E0002004490880DAE70348EF
:1038C0000088401C0149088000BFD3E74400002065
:1038D00042000020410000203A000020072806DABC
:1038E00001218140024A12788A4301490A707047D7
:1038F0004200002090B0242107A8FCF74EFC1C22B7
:1039000017496846FCF730FCFDF756F81548016882
:1039100015A0FDF7CBFF16A0FDF7C8FF1EE00024A1
:1039200015E00120A0401A490988084068B101202B
:10393000A040174909888143154801805DF824009B
:1039400018B15DF82400804707E0601CC4B2102C59
:1039500003DA0F4800880028E3D100BFDFE700004A
:10396000384700080400002025730D0A00000000FD
:10397000426F617264496E697420646F6E652120C4
:10398000323032322D30372D32320D0A0000000035
:10399000080000202DE9F04103460D46164600249C
:1039A0000027A0462448006800F4E060B0F5A06F4E
:1039B00015D006DCB0F5407F18D0B0F5806F19D176
:1039C00010E0B0F5C06F06D0B0F5E06F12D100275F
:1039D0004FF0040815E001274FF0030811E002271B
:1039E000B8460EE003274FF001080AE004274FF025
:1039F000000806E04FF4A06000F022F80227B84665
:103A000000BF00BFC7F1040005FA00F4C8F10401CB
:103A10000F20C8403040044324010848C45403F038
:103A20001F01012088405911890001F1E021C1F8EE
:103A30000001BDE8F08100000CED00E000E400E0D2
:103A400002490143024A1160704700000000FA0574
:103A50000CED00E010B54FF400410448FFF7CCF93D
:103A60004FF480410148FFF7C7F910BD000C014039
:103A700010B54FF400410448FFF7C0F94FF48041FE
:103A80000148FFF7BBF910BD000C014010B54FF421
:103A900000510248FFF7B0F910BD0000000C0140D2
:103AA00010B54FF400510248FFF7A8F910BD00000F
:103AB000000C014010B540F2046000F0CFF8012383
:103AC000032200210148FFF7E7F910BD0010014073
:103AD0000146642900DD6421002003E0034A1154FB
:103AE000421CD0B20728F9DB704700003A000020E2
:103AF0000F4A51680F4A1140082814D2DFE800F03D
:103B000004050607130A130B00BF00BF00BF41EAFC
:103B1000803109E000BF20F004004FF0805242EAFB
:103B20008032114300E000BF00BF014A516070477E
:103B300000100240FF3FFFEF2DE9F04F8BB007462A
:103B4000002009903EA090E8004CC068CDE905BE79
:103B5000CDF810A007900FF2EC0ADAE9000ACDE9DF
:103B6000020A0FF2E00ADAE9000ACDE9000A384851
:103B70004068C0F381000A900A9820B1012804D05F
:103B8000022829D103E0334928E0324926E03048B1
:103B9000406800F48038B8F5803F09D12D4C2C489E
:103BA000406800F40039B9F5003F02D1641000E02C
:103BB000294C27484068C0F383422548406800F0FC
:103BC000006008B142F010020F2A01D2921C00E0FE
:103BD000521C04FB02F101E01E4900BF00BF1C485B
:103BE0004068C0F3031504A8465D21FA06F318489F
:103BF0004068C0F3022502A8465D23FA06FC14487B
:103C00004068C0F3C2251DF8056023FA06F008904D
:103C100037B1012F06D0022F06D0032F0AD106E0BC
:103C2000099108E0099306E0CDF824C003E0089864
:103C3000099000E000BF00BF09980BB0BDE8F08F0D
:103C4000000000000000000001020304060708094C
:103C50000010024000127A0000093D00064A02EB03
:103C60009011096800F01F0301229A401143024B92
:103C700003EB90121160704700100240064A02EBFD
:103C80009011096800F01F0301229A409143024BF2
:103C900003EB90121160704700100240064A02EBDD
:103CA0009011096800F01F0301229A401143024B52
:103CB00003EB9012116070470010024010B5102104
:103CC0000148FFF79BF810BD001001400149087042
:103CD000704700004B000020002000212C4A126891
:103CE00042F480322A4B1A6000BF401C284A1268F6
:103CF00002F4003119B94FF6FF729042F5D1244A0F
:103D0000126802F400320AB900BFFEE7204A526886
:103D10001F4B5A601A4652685A601A46526842F45B
:103D200080625A601A46526822F440325A601A463B
:103D3000526842F440325A601A465268154B1A4093
:103D4000134B5A601A465268134B1A43104B5A6071
:103D50001A46126842F080721A6000BF0C4A12685C
:103D600002F00072002AF9D0094A526822F00302D8
:103D7000074B5A601A46526842F002025A6000BF6E
:103D8000034A526802F00802002AF9D07047000086
:103D900000100240FFFFC3F70000040810B5FFF752
:103DA0009BFF10BD10B5FDF79DFA00BF08A0FDF701
:103DB0007DFD4F220A490BA0FDF778FD00BF0320CF
:103DC000FFF784FF0020FFF7B5FCFFF75FFE10BD93
:103DD0003C3C4D595F44454255473E3E2000000063
:103DE000BD47000825732025640D0A0010B500BFEB
:103DF00016A0FDF75BFD3322184919A0FDF756FD0B
:103E000000BFFCF79FFD044600BF10A0FDF74EFD6C
:103E100023463622114914A0FDF748FD00BF1E2C91
:103E20000CDC00BF0D4B392214A11AA0FDF73EFD9A
:103E3000214621A0FDF73AFD00BF10BD0520FFF788
:103E400045FFFFF72DFE00BFF7E700003C3C4D5952
:103E50005F44454255473E3E20000000AD47000804
:103E600025732025640D0A00257320256420766FB4
:103E70006C203D2025640D0A000000007372635C15
:103E80006465765F72756E5F7374617475732E63AB
:103E9000000000003C3C46696C653A257320204CCC
:103EA000696E653A2564202046756E6374696F6E8D
:103EB0003A25733E3E2000004552524F523A706FF1
:103EC00077657220697320746F6F206C6F7720762E
:103ED0006F6C203D2025640A0000000010B5002012
:103EE0000249087002A0FDF7E1FC10BD5800002057
:103EF00074656D705F636F6E74726F6C5F6469730D
:103F000061626C650D0A000010B50120024908705D
:103F100002A0FDF7CBFC10BD5800002074656D7049
:103F20005F636F6E74726F6C5F656E61626C650D5E
:103F30000A000000016841F0800101607047000044
:103F400010B531B101293FD002297DD003297CD1A0
:103F5000BFE0036A23F001030362836923F00303D4
:103F60008361036A148823430362036A23F0020314
:103F70000362036A9488234303626A4B984202D027
:103F8000694B98421FD1036A23F004030362036A5A
:103F9000548823430362036A23F008030362036A1D
:103FA000D48823430362436823F4807343604368E7
:103FB000148923434360436823F4007343604368D8
:103FC000548923434360ABE0036A23F01003036288
:103FD000836923F440738361036A148843EA0413FA
:103FE0000362036A23F020030362036A948843EAAE
:103FF000041303624B4B984202D04B4B984226D19C
:10400000036A23F040030362036A548843EA0413FB
:104010000362036A23F080030362036AD48843EADD
:1040200004130362436823F4806343604368148984
:1040300043EA84034360436823F4006343604368B6
:10404000548943EA840301E002E068E0436067E0EA
:10405000036A23F480730362C36923F00303C3611B
:10406000036A148843EA04230362036A23F4007397
:104070000362036A948843EA04230362294B98424B
:1040800002D0294B984223D1036A23F48063036250
:10409000036A548843EA04230362036A23F4006337
:1040A0000362036AD48843EA04230362436823F467
:1040B000805343604368148943EA041343604368B0
:1040C00023F4005343604368548943EA0413436074
:1040D00026E0036A23F480530362C36923F4407328
:1040E000C361036A148843EA04330362036A23F456
:1040F00000530362036A948843EA04330362094B62
:10410000984202D0084B984208D1436823F4804378
:1041100043604368148943EA8413436000E000BFAE
:1041200000BF10BD002C01400034014031B1012915
:104130000CD0022913D0032922D118E0836923F07F
:10414000700383618369134383611AE0836923F4F5
:10415000E0438361836943EA0223836111E0C36919
:1041600023F07003C361C3691343C36109E0C369EA
:1041700023F4E043C361C36943EA0223C36100E05F
:1041800000BF00BF704731B1012906D0022906D017
:10419000032908D105E0426306E0826304E0C263BC
:1041A00002E0026400E000BF00BF704731B10129A6
:1041B0000CD0022913D0032922D118E0836923F0FF
:1041C000080383618369134383611AE0836923F4DD
:1041D00000638361836943EA0223836111E0C36959
:1041E00023F00803C361C3691343C36109E0C369D2
:1041F00023F40063C361C36943EA0223C36100E09F
:1042000000BF00BF70470021018041808180C180D4
:1042100001814181704701460020486A7047416230
:104220007047016821F0010101607047016841F0A9
:1042300001010160704700000A888262294A9042A9
:1042400020D0B0F1804F1DD0274A90421AD0274A83
:10425000904217D0264A904214D0264A904211D05C
:10426000254A90420ED0254A90420BD0244A9042D3
:1042700008D0244A904205D0234A904202D0234AD3
:1042800090420FD1026822F07002026002688B78BF
:1042900003F060031A43026002680B7903F0100315
:1042A0001A4302608A68C262194A90420CD0194AC5
:1042B000904209D0026822F44072026002688B8941
:1042C00003F440731A430260064A904202D0094A3E
:1042D000904201D18A7B0263426942F0010242614D
:1042E00070470000002C014000040040000800401E
:1042F000000C004000340140004C014000500140DF
:104300000054014000180040001C00400020004004
:104310000010004000140040C2680A43C2607047A9
:1043200002698A43026170470246D06800EA0103CD
:104330001069084010B10BB1012070470020FCE764
:1043400000210180418081804FF6FF718160002152
:1043500081818173704700002DE9F04704460D46C6
:104360000027B846B94600261D49601A8C421CD069
:1043700006DC1C48204470B1B0F5806F1FD10FE0FF
:10438000B0F5806F16D0B0F56C4F18D10320FFF751
:10439000D3FB074614E00220FFF7CEFB07460FE0F1
:1043A0000220FFF7C9FB07460AE00220FFF7C4FB23
:1043B000074605E00220FFF7BFFB074600E000BF0D
:1043C00000BF07EB5500B0FBF5F64FF6F07006EABC
:1043D000000806F00F0948EA0900A060BDE8F08770
:1043E000004C004000BCFFBF01464868C0F3080015
:1043F0007047C1F3080242607047000010B50446E0
:104400002049601A8C4228D006DC1F48204490B115
:10441000B0F5806F33D117E0B0F5806F26D0B0F5DE
:104420006C4F2CD140F20E30FFF738FC40F20E30CA
:10443000FFF724FC24E040F21140FFF72FFC40F28C
:104440001140FFF71BFC1BE040F21240FFF726FC77
:1044500040F21240FFF712FC12E040F21340FFF767
:104460001DFC40F21340FFF709FC09E040F2144044
:10447000FFF714FC40F21440FFF700FC00E000BF1F
:1044800000BF10BD004C004000BCFFBFC16841F43C
:104490000051C160704710B5024602EB91100068F0
:1044A00001F01F040123A340184008B1012010BDF2
:1044B0000020FCE70A460021416921F40071114304
:1044C000416170470A460021416921F4807111431E
:1044D0004161704710B5C1F38912825801F01F0481
:1044E0000123A3409A43C1F38913C25010BD10B5F4
:1044F000C1F38912825801F01F040123A3401A431B
:10450000C1F38913C25010BD10B500EB915212686F
:10451000C1F304440123A3409A4300EB91531A6072
:1045200010BD70B5024600230024C1F38910105855
:1045300001F01F060125B54000EA050302EB91508A
:104540000068C1F304460125B54000EA050414B132
:104550000BB1012070BD0020FCE7C26822F4C062EC
:10456000C260C2680A43C26070470A460021C1683F
:1045700021F004011143C1607047026922F44052E6
:10458000026102690A43026170470A460021C1685C
:1045900021F008011143C1607047C26822F48052C3
:1045A000C260C2680A43C2607047000010B5202193
:1045B0000148FEF723FC10BD0010014010B5044671
:1045C000312C02D100F02CF80DE0322C02D100F099
:1045D0001DF808E0332C02D100F092F803E0342CEF
:1045E00001D100F097F8214601A0FDF75FF910BD59
:1045F0007774353838645F636F6E74726F6C202027
:10460000627566203D2025640D0A000010B503493F
:104610000978491EC8B200F00DF810BD5000002006
:1046200010B503490978491CC8B200F003F810BD61
:104630005000002010B504461E2C00DD10BDFFF711
:104640003DFB204600F006F80148047000BFF5E786
:104650005000002070B5054600BF02211F48FEF73C
:10466000CDFB00BF0A20FCF747FBFFF79FFF0120AF
:10467000FCF742FB002424E00120A040284030B198
:1046800000BF01211548FEF7B9FB00BF06E000BFDF
:1046900001211248FEF7B2FB00BF00BF9620FCF7D5
:1046A00035FB00BF20210E48FEF7A8FB00BF962077
:1046B000FCF72CFBFFF77AFF3220FCF727FB601C8E
:1046C000C4B2082CD8DB00BF02210448FEF796FBD9
:1046D00000BF0120FCF710FB70BD0000000C014082
:1046E0000010014010B50446E72C06DCE02C04DB8A
:1046F0002046FFF7AFFF0148047010BD51000020B5
:1047000010B503490978491CC8B2FFF7EBFF10BD8B
:104710005100002010B503490978491EC8B2FFF7BF
:10472000E1FF10BD510000204932635F5772697488
:104730006542797465000000492500086138000869
:1047400000000000F92C00080117000839300008AB
:10475000792400080E061107000200000400000082
:1047600000040000080000000008014000080140AB
:1047700002060206250000002600000005050000D4
:1047800000380140004400406C617365725F636FE4
:104790006E74726F6C5F696E69740070776D5F6FB5
:1047A00075740062746E735F7363616E0073797306
:1047B00074656D5F706F7765725F6F6E007379738C
:1047C00074656D5F706F7765725F6F6666006261BA
:1047D000745F766F6C5F7461736B001068800300A8
:1047E00069725F697271395F6465746563745F745F
:1047F00061736B004552524F523A2073656E6420CC
:10480000776F72645F61646472204949435F5761E6
:1048100069745F41636B28696E64657829213D2066
:104820003020696E646578203D20256420747864AA
:10483000203D202523780D0A000000004275696C98
:104840006474696D65203A417567203234203230D6
:1048500032322031373A30373A3439004445565FE6
:10486000564F4C5F4C453330200000004445565FA6
:10487000564F4C5F4C453336200000004445565F90
:1048800043484152474500004445565F504F574505
:10489000524F4646000000004445565F42554700CF
:1048A0004445565F4348415247455F4F4B00000027
:1048B0004445565F52554E5F4E4F524D414C00009D
:1048C0004445565F45585445524E5F504F574552E8
:1048D000000000004552524F52203A2069725F6931
:1048E0007271395F6465746563745F7461736B20A2
:1048F00064657465637420646576696365206F66BA
:10490000662032206D696E732C616E64207379733A
:1049100074656D2020676F20746F20706F776572EB
:104920006F66660D0A0000004552524F52203A2031
:1049300069725F697271395F6465746563745F740D
:1049400061736B2064657465637420646576696364
:1049500065206F6666202C616E642077696C6C2020
:10496000706F7765726F6666206C617365720D0A91
:10497000000000004552524F523A7265637620643F
:104980006174615B305D203D202523782C64617467
:10499000615B315D203D202523782C646174615B6F
:1049A000325D203D202523782C646174615B335D8A
:1049B000203D202523780D0A00000000DC49000876
:1049C0000000002078000000F4180008544A000895
:1049D00078000020302000000419000800000000CA
:1049E0003C4800080000000000000000000000003B
:1049F00000000000984800085C480008884800084B
:104A00006C480008B04800087C480008A04800082E
:104A1000C0480008000000000000000000007F0007
:104A2000000000000000000300001A0000E0000089
:104A30000000000001000000000000000000000075
:104A400000000000000000000000000000A24A0476
:044A50000000000062
:0400000508000131BD
:00000001FF
