:020000040800F2
:100000001042002009020008A12600086922000809
:100010009D260008851E00088D2D000800000000A8
:10002000000000000000000000000000D1290008CE
:100030009121000800000000C52600084D2A000894
:1000400023020008230200082302000823020008FC
:1000500023020008230200082302000823020008EC
:1000600023020008230200081922000823020008C6
:1000700023020008230200082302000823020008CC
:1000800023020008230200082302000823020008BC
:100090002302000823020008230200081B22000894
:1000A000230200082302000823020008230200089C
:1000B000230200082302000823020008230200088C
:1000C000230200082302000823020008230200087C
:1000D00023020008992C0008D52C000823020008F0
:1000E000230200082302000823020008230200085C
:1000F000230200082302000823020008230200084C
:10010000230200082302000823020008230200083B
:10011000230200082302000823020008230200082B
:10012000230200082302000823020008230200081B
:1001300000F002F800F058F80AA090E8000C8244A1
:100140008344AAF10107DA4501D100F04DF8AFF27E
:10015000090EBAE80F0013F0010F18BFFB1A43F0A5
:1001600001031847B8530000D8530000103A24BFC9
:1001700078C878C1FAD8520724BF30C830C144BF0C
:1001800004680C607047000000230024002500264E
:10019000103A28BF78C1FBD8520728BF30C148BFEA
:1001A0000B607047662905F06880642900F0828042
:1001B000782900F0BB80732900F075840020704717
:1001C0001FB59DE8030000F0EBFF00F083FC040086
:1001D0000020002104F0FAFCE06000F093FD1FBD58
:1001E00010B500F0F8FD10BD00F060FE1146FFF7FD
:1001F000E7FF03F097FD00F065FF03B4FFF7F0FFA2
:1002000003BC01F03FF90000094880470948004756
:10021000FEE7FEE7FEE7FEE7FEE7FEE7FEE7FEE7B6
:10022000FEE7FEE704480549054A064B7047000013
:10023000552A000831010008100200201042002059
:1002400010220020102200200FB4044910B503AA88
:10025000029800F02DFC10BC5DF814FB0401002096
:1002600070B50C460546012A05D02878800600D5D1
:10027000EA69002302E0012305E05B1C934202D2FD
:10028000E05C0028F9D1A869E618C01AA861286ABC
:10029000184428622846AFF3008004E0D5E9012124
:1002A00014F8010B9047B442F8D32846AFF300800E
:1002B00070BD00002DE9F041064600241068752944
:1002C000314616A510D0AFF30080002802DA404274
:1002D00013A507E031688A0701D512A502E0490796
:1002E00004D511A5012401E0AFF3008000210A220A
:1002F00006F1240709E0B0FBF2FCB0FBF2F302FBCD
:100300001C00303078541846491C0028F3D123468D
:100310002A463046BDE8F04100F04BB9000000002D
:100320002D0000002B0000002000000070B50446E6
:100330000D4621461068AFF300802188090502D5DB
:100340000F4A7A4402E00E4A7A440E32002104F148
:10035000240305E000F00F060009965D5E54491C79
:100360000028F7D120780023000704D5702D02D093
:1003700009B1022311322046BDE8704000F019B9DE
:10038000CD4F00002DE9F05F894604464FF0000A8A
:10039000DFF824B1FB44C0F820A02046E16888477C
:1003A00000287DD0252806D0D4E901219047206A75
:1003B000401C2062F1E700255F462046E16888473F
:1003C0002028064607DB312E05D2B81910F8200C7C
:1003D00008B10543F1E7A80701D525F00405C4F8E5
:1003E0001CA00027C4F818A02A2E09D0304602F01D
:1003F000F7FC38B304EB8708303EC8F8186019E002
:1004000059F8041B204604EB87029161E168884794
:10041000012F064618D1E069002820DA25F02005D2
:100420001DE0D8F8180000EB800006EB40003038E3
:10043000C8F818002046E1688847064602F0D0FC5C
:100440000028EED1012F0AD02E2E08D12046E168D7
:1004500088477F1C0646022F45F02005C4DBA069B3
:10046000002803DA404245F00105A061E80701D009
:1004700025F01005A6B1A6F14100192802D82036B2
:1004800045F400654A463146204625604D46FFF753
:1004900089FE60B1012807D0ED1D25F0070000E0BE
:1004A00007E000F1080978E705F1040975E730462F
:1004B0007AE7206ABDE8F09FA34F000010B5431C07
:1004C00002E010F8011B71B18107FAD14FF001323F
:1004D00002C88C1A8C4314EAC211F9D0C01A0A0659
:1004E00003D0C01E10BDC01A10BD0A0401D0801E6A
:1004F00010BD0902FCD0401E10BD10B5203AC0F05E
:100500000B80B1E81850203AA0E81850B1E8185014
:10051000A0E81850BFF4F5AF5FEA027C24BFB1E851
:100520001850A0E8185044BF18C918C0BDE81040C2
:100530005FEA827C24BF51F8043B40F8043B08BFCB
:100540007047D20728BF31F8023B48BF11F8012B92
:1005500028BF20F8023B48BF00F8012B70474FF03E
:10056000000200B5134694469646203922BFA0E803
:100570000C50A0E80C50B1F12001BFF4F7AF09070F
:1005800028BFA0E80C5048BF0CC05DF804EB890000
:1005900028BF40F8042B08BF704748BF20F8022B43
:1005A00011F0804F18BF00F8012B7047704770475B
:1005B00070472DE9F0470D4699469246044600F1F2
:1005C00024080168880604D5E06921F01001216043
:1005D00000E00120A84201DD471B00E00027A169DF
:1005E0007A1902EB0900081AA0612078C00602D42B
:1005F0002046AFF30080002608E0D4E901211AF874
:1006000006009047206A401C761C20624E45F4DBB1
:100610002078C0060AD52046AFF3008006E0D4E972
:10062000012130209047206A401C2062381EA7F12B
:100630000107F4DC07E0D4E9012118F80500904730
:10064000206A401C2062281EA5F10105F3DC20462B
:10065000AFF300802078000602D50220BDE8F087C5
:100660000120FBE770472DE9FF4F0C461E464FF077
:10067000FF378BB0D2E90001DDF860800A908A462E
:10068000C1F30A5505B93D46002108464FF0000068
:10069000BAF1000F00F4400005DA00EB80004FF4DF
:1006A000400101EA50004FEA9059B9F1010F00DD15
:1006B000B9460A9850EA4A000ED044F61050A5F206
:1006C000FF3545432F14B8F1000F1ED07542291E87
:1006D0001EDDC9F100021CE0B8F1010F4FF000006F
:1006E00001D0302103E0F24305E02154401CB04228
:1006F000FBDB30460022002121540B99C1F8088011
:10070000C1E900200FB0BDE8F08FBD1B6D1CDEE716
:100710004A4600DA694206A800F07EFA06AB93E882
:10072000070003AB83E8070050460A9900F046FF34
:100730008DE80700A0F500501F3800900398002DA9
:100740000ADD42F21F014A460844002303A9039030
:10075000684601F0AFF909E0A0F500504A461F389D
:10076000002303A90390684601F0B9F98DE807005A
:100770000004000C03D04FF0FF30410800E01046A9
:10078000B8F1000F03D00022009215461EE0751E3E
:1007900005D400F0A3F9303262556D1EF9D5B34689
:1007A0000122084302D000227F1C04E02078302878
:1007B00001D100227F1E002A099784D01DE0112D4F
:1007C00007DA00F08BF9303262556D1C50EA0102F5
:1007D000F5D1084302D00098C8B10EE00021681E90
:1007E00005E0235C625C63542254401E491C814234
:1007F000F7DBAB46A81B401E0990002004F80B0055
:100800000B98099AC0F80880C0E9002B7AE71126F6
:100810004FF0000857E72DE9F04F88460446D21DF7
:1008200022F0070191B0D1E90001CDE90A0102F0FF
:10083000AFFA02460B98C00F01D02D2007E02068C8
:10084000810701D52B2002E0202101EAC000032A04
:10085000099001D0072A05DB03464146204600F0F7
:100860009BF90BE12078800601D5E06900E00620C5
:10087000B8F1650F814606D0B8F1660F18D0B8F10F
:10088000670F70D131E00020B9F1110F009001DB4A
:10089000112301E009F101030AAA01A90CA8FFF73D
:1008A000E2FEDDE90C70002609F10105834647E010
:1008B00001204B4600904FF000470AAA01A90CA85E
:1008C000FFF7D1FEDDE90DB00C995D46002610B9A9
:1008D00009F101000D18B9EB050003D4C0F1FF3692
:1008E00009F10105A5EB09002BE0B9F1010F01DACF
:1008F0004FF001090020B9F1110F0090484601DDC9
:10090000112300E003460AAA01A90CA8FFF7ABFED9
:10091000DDE90C704D4600268346207800070AD496
:10092000AB4500DA5D4601A8012D04DD411911F83F
:10093000011C302907D04F4502DA17F1040F04DA01
:10094000012082460FE06D1EEEE7002F02DCED1B5A
:100950003E4403E0781CA84200DD7D1CB81B00F17A
:10096000010A4FF000472078000703D4AA4501DBB5
:100970004FF0FF3A0021B7F1004F0DF143088DF819
:10098000431024D002202B23002F01DA7F422D2395
:100990000A21021EA0F1010000DC5FB197FBF1FC0F
:1009A00097FBF1F201FB1C7C17460CF1300C08F8A8
:1009B00001CDEEE7A8F1010003702188090501D5FA
:1009C000452100E06521A0F1010800F8011C09980B
:1009D0000FA9A1EB0807FF1D00B10120411901EB90
:1009E000EA70A1693844081A401EA0612078C00648
:1009F00002D42046AFF30080099828B1D4E9012140
:100A00009047206A401C20622078C00622D52046EC
:100A1000AFF300801EE0002E04DBB34502DD01A829
:100A2000805D00E03020D4E901219047206A401C1D
:100A30002062761CAAF101005FEA000A0AD100F0E8
:100A400049F8C0680168405CD4E901219047206AF8
:100A5000401C2062281EA5F10105DCDC07E0D4E97A
:100A6000012118F8010B9047206A401C2062381EB3
:100A7000A7F10107F3DC2046AFF30080032011B09B
:100A800041E610B5436913B1AFF3008001E0FFF711
:100A9000E7FB012010BD127800F124010A7000224A
:100AA0004A700122EDE711684FF0FF32E9E70000DC
:100AB000074B70B50D467B4400F05BF804462846B2
:100AC00000F01CF910B14FF0FF3070BD204670BD32
:100AD0001F27000000487047CC01002030B5B0F15E
:100AE0000A024FEA900E71F100034EEA817EB0EBEC
:100AF0000E0061EB91014FEA101E4EEA017E10EBF1
:100B00000E0041EB11114FEA102E4EEA016E10EB70
:100B10000E0041EB11214FEA104E4EEA014E10EB50
:100B20000E0041EB1141401841F100014FEAD000A5
:100B300040EA41704FEAD10110EB80054FEA810491
:100B400044EA907444EB01046D1944EB0404521B15
:100B5000A3414FF0000348BF0A3200D530BD401C0E
:100B600041F1000130BD000001694A1C02610878B2
:100B7000704700B58FB0CDE90131002105910549DD
:100B80007944CDE9031011466846FFF7FBFB0FB02F
:100B900000BD0000E5FFFFFF2DE9F0411F460446C0
:100BA00003260168072A01F4006004DB08B116A5DA
:100BB00005E016A503E008B115A500E015A521F094
:100BC00010002060A069C01EA0610FB1401EA0618E
:100BD0002046AFF300804FB1D4E901213846904759
:100BE000206A401C2062C01C206206E0206AFAE7EE
:100BF000D4E9012115F8010B9047761EF8D2204662
:100C0000AFF30080BDE8F0814E414E006E616E0092
:100C1000494E4600696E66002DE9F047814616464A
:100C20008AB0354878440DC88DE80D0032487844C4
:100C3000801C03AC0DC884E80D0041F69B300844CD
:100C4000372190FBF1F290FBF1F5A5F1800501FB56
:100C500012041B3C02D56442012000E00020DFF8B2
:100C600098A080460027FA44AAF1BE0A0EE0E007E9
:100C70000AD03246684607EB470101230AEB81019F
:100C800000F02DFF8DE8070064107F1C002CEED1D2
:100C9000194F7F44AE3F19E0E80715D007EB041069
:100CA0000DF1180A90E80E008AE80E00C068F042C4
:100CB00001D1981908903246012306A903A800F033
:100CC0000EFF03AB83E807006D10641C002DE3D119
:100CD0004FF0010332466946B8F1000F03A802D075
:100CE00000F0E8FE01E000F0FAFEC9E90001C9F8F1
:100CF00008200AB0BDE8F087A0470000007B00F0A4
:100D00008000704710B542485421FFF728FC414845
:100D10005421FFF724FC40485421FFF720FC3F49B1
:100D20003B483C4A3F4B08603D490A603A491960DC
:100D3000531C0365481C1065012008653B48344A74
:100D400039A1784400F022F920B9384878440A38AB
:100D500000F0C1F937482F4A35A1784400F016F960
:100D600020B9344878440A3800F0B5F932482A4AA4
:100D70002FA1784400F00AF920B92F4878440A38A6
:100D800000F0A9F940232248DC000021224600F0AF
:100D9000D9F820B125487844543800F09CF91D4812
:100DA00022464023002100F0CDF820B121487844AC
:100DB000543800F090F9184822461023002100F022
:100DC000C1F8002806D01C487844BDE810405638C9
:100DD00000F081B910BD104870B5006D20F001041D
:100DE0000B4800F049F90B4800F046F90A4800F0BA
:100DF00043F909E0206D20F00105204600F03CF9A0
:100E0000204600F078F82C46002CF3D170BD00008D
:100E1000B0000020040100205801002084000020C0
:100E2000880000208C000020720000009A4600001C
:100E30007700000086460000724600000EB5CDE93E
:100E40000001FFF73BFB029069460120ABBE0EBDDF
:100E500008B5694600900220ABBE08BD1FB58DE8FD
:100E6000070069460520ABBE04B010BD1FB58DE874
:100E70000F0069460620ABBEF6E708B5694600904C
:100E80000920ABBE08BD1CB5CDE9000169460A20AA
:100E9000ABBE1CBD704708B5694600900C20ABBEC8
:100EA00008BD000000487047AC0100207546FFF700
:100EB000F9FFAE4605006946534620F00700854617
:100EC00018B020B5FFF7AEF9BDE820404FF000069E
:100ED0004FF000074FF000084FF0000B21F0070122
:100EE000AC46ACE8C009ACE8C009ACE8C009ACE865
:100EF000C0098D46704770B50446051F00F034F9EF
:100F00000068002C14BF446870BD002C18BFAC42B0
:100F10003CBF20466468F8D301680A18AA4218BF8B
:100F2000456003D12A6805461144016028684119CB
:100F3000A1421CBF6C6070BD616869602168084493
:100F4000286070BD70B5C468A50713D0650211D4C0
:100F5000B2F5807F09D0B2F5007F06D0B2F5806F80
:100F600008D1012300F1240106E05D1E6FF07F46E9
:100F7000B54201D3012070BD0161C361416024F419
:100F800070611143C160002070BD00002DE9F04187
:100F90000C4607461646104600F06EF82078611C95
:100FA00061280AD0722802D077283CD102E00125BE
:100FB000002405E00225042402E0082448F202058A
:100FC00011F8010B2B2806D0622809D011F8010C6A
:100FD00074280AD00BE045F0030544F00204EFE763
:100FE00045F0040544F00104EAE744F010043846F3
:100FF0002146FFF723FF411C15D0002131617160AC
:101000004FF40071F560F1617061200704D530463E
:101010000222002100F022F9306D40F0010030651D
:101020003046BDE8F0810020FBE72DE9F0410D4698
:101030000646104C206DC10704D0410804D020F0B2
:101040000104F7E722460EE0542000F0D8F807002C
:101050000ED0206D47F00101084354212065384629
:10106000FFF77DFA3A4629463046BDE8F0418DE764
:101070000020D6E7B00000202DE9F04704464FF0ED
:1010800000094FF0FF37C568D4E90486A80707D0E8
:10109000204600F093F93046FFF7DAFE002802DA26
:1010A0003846BDE8F087280502D54046FFF723FF04
:1010B0004C212046FFF753FA206D20F001002065F7
:1010C0004846EEE710B50446AFF300802046BDE881
:1010D0001040FFF792B810B500F0BAF9BDE8104023
:1010E00000F0B0B94FF0013C50F8042B51F8043B2C
:1010F0009A4221D1A2EB0C03934313EACC1317D1EC
:1011000050F8042B51F8043B9A4215D1A2EB0C0382
:10111000934313EACC130BD150F8042B51F8043B42
:101120009A4209D1A2EB0C03934313EACC13DBD010
:101130004FF00000704700BFD01A01BAB1FA81F138
:1011400001F0180122FA01F0CB40C1F12001DBB21D
:10115000C0B2C01A2CFA01F3D11A914311EAC3119B
:10116000E6D170477047000000487047B401002086
:10117000704770477047704738B504460A460020EC
:101180006946AFF30080002808BF38BD02460099C9
:10119000204600F084F9012038BD012000F0D3B9C9
:1011A000F8B5AFF30080054600200C46102000BFC4
:1011B0000646A819A0420DD9324669460020AFF371
:1011C0000080070008BF00F0BEF90098A04218BFD9
:1011D0000546C419FFF7C8FF05600746F01D20F05B
:1011E00007004619284600F053F9B44208BFF8BD7D
:1011F000A21B31463868BDE8F84000F050B970B520
:101200000646FFF7B1FF056806F10B0020F0070462
:10121000B4429CBF002070BD2B466A68BAB110680A
:10122000A04210D304F1080188423CBF50685860C6
:1012300007D35168101941601168091B016058609B
:101240001460101D70BD13465268002AE7D1214674
:101250002846FFF791FF0028DED170BD2DE9F0414F
:10126000044616460D464769007B80072ED0384657
:10127000FFF703FE50BB3EB3012E02D0022E25D154
:1012800004E0204600F025F905441DE03846FFF74C
:1012900002FEE168002841F01001E16005DA204615
:1012A00000F058F80120BDE8F081C9030BD5626851
:1012B000E16A914200D81146A26911442269891A53
:1012C000814200DD08460544002D01DA0220EAE7EC
:1012D000E16A6068E268814206D29103E06203D568
:1012E00022F4003141F01002A6690027AE4213DC5F
:1012F000E16A814201D90B4600E0034603EB060C8C
:101300002369ACEB030CAC4506DD814201D98C4668
:1013100000E084469C4505D1A760276042F020008C
:10132000A5620DE0AD1BE669AE1B8142A66000D947
:101330000846C01A281A20605819606022F0200060
:1013400003490840E060002084F84870ABE70000E3
:10135000BFCFD7FFC16821F4001141F08001C16007
:1013600000218160016070472DE9F04781461446F5
:101370000E464FF0FF383248D5685769054209D00C
:101380003846A169FFF77FFD002811DB2C48C043D8
:101390000540E5602B46324649463846FFF75EFD7C
:1013A000A16920F00042B21A11440028A16103D0C3
:1013B0002046FFF7CFFF4046BDE8F08770B50446F2
:1013C0000569C06A6168884200D80846E16821F46E
:1013D0002011E160C90312D5A84208D02246411B62
:1013E0002846FFF7C1FF10B14FF0FF3070BD00205D
:1013F000E562C4E90150E06820F48030E06000203C
:1014000070BD10B50446C06820F02000E060A16AFD
:10141000A06988420DD02046FFF7D0FFE06820F495
:10142000405040F01000E060A06AA0612069E062D6
:10143000606044F24001E0688843E06010BD000055
:1014400010000200002801D000F01CB87047000016
:1014500010B5014602A000F05DF8012010BD0000AB
:1014600053494752545245443A2052656469726563
:1014700063743A2063616E2774206F70656E3A2042
:101480000000000001491820ABBEFEE72600020064
:1014900000210160C0E90110704710207047034629
:1014A00040688C46002818BF88423CBF034640680D
:1014B000F8D318681844884207D00CF1030020F0D4
:1014C0000700001D411A521A0146081D0A60FFF765
:1014D00012BD10B50146C268900703D0900607D52B
:1014E000886A0AE000F03EF801210160881E10BD04
:1014F0008B69486818440B69C01A91F848301BB1D1
:1015000091F84910401A10BD1103FCD50028FADDEE
:10151000401E10BD70B505460C460A2000E06D1C4B
:1015200000F018F835B128780028F8D102E0641CE2
:1015300000F010F814B120780028F8D1BDE8704010
:101540000A2000F007B810B500F010F8BDE8104010
:10155000FFF778BF08B569468DF800000320ABBEE1
:1015600008BD000000487047AC01002010B50128FC
:1015700005D0002103A0FFF7CDFF012010BD09A178
:10158000F8E7000053494752544D454D3A204F75F6
:1015900074206F662068656170206D656D6F72796B
:1015A000000000003A2048656170206D656D6F7223
:1015B0007920636F72727570746564005FEA400C25
:1015C00008BF91F0000F4FEA8C234FEAC12243EA93
:1015D00051514FEA1C5018BF00F5F0404FEA30005F
:1015E00018BF41F000415FEA6C5C00F02980BCF15B
:1015F000FF3F08BF40F080407047130C06BF120445
:101600004FF0100C4FF0000C130E04BF12020CF13F
:10161000080C130F04BF12010CF1040C930F04BF4C
:1016200092000CF1020CD30F04BF52000CF1010C1C
:1016300011464FF00002A0F11F00A0EB0C00704714
:1016400011F0004F08BF704731F000413FF4D5AFB3
:101650000B0C06BF09044FF0100C4FF0000C0B0EE2
:1016600004BF09020CF1080C0B0F04BF09010CF1B7
:10167000040C8B0F04BF89000CF1020CCB0F04BFCC
:1016800049000CF1010CCCF12003A0EB0C0022FA74
:1016900003F302FA0CF241EA030100F10100704782
:1016A00020F07F4C80EA030023F07F47ACEB070378
:1016B00003F57C5300F0004003F1FF032DE980495E
:1016C0004FEA154B09B44FEA144325EA0B4E24EABE
:1016D00003480FF2042606EB132749083E785FEA19
:1016E000320203FB0667C7F5000707FB06F64FEA61
:1016F00054374FEAD64606F1020607FB066CCCF1DA
:10170000005C4FEA1C472CEA074C07FB06F40CFB75
:1017100006F504EB15464FEA961634BF00204FF04D
:1017200000404FEAD13706FB07FC4FEA1C4C0CFB8C
:101730000BF7D21B03FB0CF761EB07010CFB0EF759
:10174000B0EB074072EB17420CFB08F734BFA2EB7B
:101750000742B2EB074261EB17414FEA0C444FEAF4
:10176000910706FB07FC4FEA1C4C0CFB0BF7B0EB98
:10177000C74072EB573203FB0CF734BFA2EBC742F2
:10178000B2EBC74261EB57310CFB0EF7B0EBC70071
:1017900072EB57720CFB08F734BFA2EBC702B2EB37
:1017A000C70261EB5771039F4FEA816141EA9211D1
:1017B00004EBCC044FEAD1374FEA826206FB07FC08
:1017C00042EA90124FEA80604FEA1C4C0CFB0BF788
:1017D000D21B03FB0CF761EB07010CFB0EF7B0EB20
:1017E000074072EB17420CFB08F734BFA2EB07422D
:1017F000B2EB074261EB17414FEA8C554FEA910774
:1018000004EB9C2406FB07FC4FEA1C4C0CFB0BF77B
:10181000B0EBC74072EB573203FB0CF734BFA2EBBF
:10182000C742B2EBC74261EB57310CFB0EF7B0EB8E
:10183000C70072EB57720CFB08F734BFA2EBC7026C
:10184000B2EBC70261EB577115EB4C254FEA816192
:1018500041EA92114FEA82624FEAD13742EA90128E
:1018600006FB07FC44F100044FEA80604FEA1C4C81
:101870000CFB0BF7D21B03FB0CF761EB07010CFB16
:101880000EF7B0EB074072EB17420CFB08F734BFC2
:10189000A2EB0742B2EB074261EB174115EB1C15B7
:1018A0004FEA813141EA92414FEA823242EA904264
:1018B0004FEA80304FEA0C7644F1000448EA0343D3
:1018C0004EEA0B484FF0000EB2EB080C71EB030729
:1018D00024BF624639464EEB0E0E4FF0000B001847
:1018E000524149414BEB0B0BB2EB080C71EB030778
:1018F0007BF1000B24BF624639464EEB0E0E4FF0D3
:10190000000B0018524149414BEB0B0BB2EB080C9A
:1019100071EB03077BF1000B24BF624639464EEBA7
:101920000E0E51EA020718BF46F0010616EB0E76BE
:1019300055F1000254F1000103D5BDE88901BDE86D
:101940000088BDE88901BDE80048B619524141EB65
:101950000101A3F10103704780807F7E7D7C7B7A4B
:101960007978777676757473727171706F6E6E6D4B
:101970006C6C6B6A6A6968686766666564646363F1
:1019800062616160605F5F5E5E5D5D5C5C5B5B5A77
:101990005A595958585757565655555554545353E4
:1019A00052525251515050504F4F4F4E4E4D4D4D3F
:1019B0004C4C4C4B4B4B4A4A4A494949484848478A
:1019C00047474746464645454544444444434343C8
:1019D0004342424242414141002B9C4630D4770071
:1019E0002BD01CB54FEA370703B44FF010004FF06F
:1019F0001001BAF1000F06D0BCF1000FDCBF40F0BF
:101A0000080040F008014FF000000FBCBDE8104096
:101A10000BF1010BBBF1010F08BF5FEA170722BFF3
:101A200012F1010211F101014FF0004143F10003F5
:101A300000F0004043EA00007047F9D35708D0E7B0
:101A400046EA064613F1400F4FEA16461FDD13F132
:101A5000200FDFBF16430A46002120335B42BED071
:101A6000C3F1200746EA064602FA07F74FEA164690
:101A700046EA0706C3F1200722FA03F201FA07F744
:101A800021FA03F14FF0000342EA0702A7E746EA12
:101A9000020646EA06464FEA164646EA0106BCBF7B
:101AA00046EA0646360C4FF000034FF000024FF0B6
:101AB000000194E72DE9804C9A46934670B491E872
:101AC000380007C831EA400C48BF34EA430C03D55C
:101AD000FFF7E6FDFFF780FFF0BCBDE8008C2DE9C5
:101AE000804C9A46934670B491E8380007C810F0CD
:101AF000804F08BF13F0804F03D100F005F8FFF7C7
:101B00006BFFF0BCBDE8008C20F07F4780EA03004B
:101B100023F07F4C07EB0C03A3F57C5300F000404F
:101B2000A3F1FE0392F0000F00F0B38095F0000FD8
:101B300000F077802DE901494FEA11404FEA144641
:101B400021EA004800FB06FC24EA064708FB06F6EB
:101B500007FB08F800FB07F718EB06484CEB164CA0
:101B60004FEA124B18EB07484FEA15464CEB17406B
:101B700022EA0B4E0BFB06FC25EA06470EFB06F697
:101B800007FB0EFE0BFB07F71EEB064E4CEB164C4D
:101B90004FF000061EEB074E4CEB174B18EB0B08F3
:101BA00040F1000018EB0E0B58EB000840F100006C
:101BB0008F1A4FF000013CBFC943661B14BFB5EB41
:101BC000040C00213CBFC943F61B4FEA17444EEA00
:101BD0008E0E27EA04454FEA1C4704FB07622CEAF5
:101BE000074C05FB07F70CFB05F604FB0CFC16EB9A
:101BF000074642EB174216EB0C4642EB1C421BEB2E
:101C0000060658EB0202414146EA9E0601D5BDE8B0
:101C10000189B619524141EB0101A3F10103BDE86D
:101C200001894FEA14454FEA114724EA054621EAA3
:101C3000074C05FB07F406FB07F70CFB06F105FB59
:101C40000CFC11EB074144EB17444FEA124711EB30
:101C50000C4144EB1C4422EA074C05FB07F206FB4F
:101C600007F70CFB06F605FB0CFC16EB074642EBF0
:101C7000174216EB0C4642EB1C456A1854F1000162
:101C800048BF7047B619524141EB0101A3F101036E
:101C9000704795F0000F37D04FEA11424FEA1447D2
:101CA00021EA024624EA074C02FB07F106FB07F78C
:101CB0000CFB06F402FB0CFC14EB074441EB174150
:101CC0004FEA154714EB0C4441EB1C4125EA074C45
:101CD00002FB07F506FB07F70CFB06F602FB0CFC04
:101CE00016EB074645EB174516EB0C4645EB1C4239
:101CF000121951F1000148BF7047B619524141EB2A
:101D00000101A3F1010370474FEA14454FEA11475F
:101D100024EA054621EA074C05FB07F106FB07F715
:101D20000CFB06F24FF0000605FB0CFC12EB074221
:101D300041EB174112EB0C4251EB1C4148BF70477D
:101D4000921841EB0101A3F10103704710B540F275
:101D5000046002F099F940F20A6002F095F903205C
:101D600002F0DCF8012303220021144801F010FCEA
:101D7000002001F0CBF801221102114801F03DF9D9
:101D800000210F4801F06BF8012211460C4801F0C8
:101D900043F84FF460220121094801F093F8012231
:101DA0001146074801F06FF8054801F063F801207B
:101DB00000F0F0F9024801F01AF810BD00100140DF
:101DC0000028014070B50446002505232246002165
:101DD0000B4801F0A9F80121094801F0FFF800BF04
:101DE0000221074801F08AF80028F9D002210448AE
:101DF00001F080F8024801F0EDF80546284670BD74
:101E00000028014010B50321002001F08DFA00EBFD
:101E100040104400E01704EB9050801210BD000009
:101E200010B500F059FC4FF4A06002F02DF84FF40B
:101E3000C06002F029F90121114801F007FC4FF4BC
:101E4000E131002001F0F0F94FF41651012001F0CA
:101E5000EBF900F031FE882000F00CFD01F022FECD
:101E600001F0C4F900F006FCFFF770FF01F066FD19
:101E700001F03AFC02F0FAFD02F0B2FD10BD0000E4
:101E80000002300000BFFEE77047000010B50A48AE
:101E900002F068FCC4B2094801780078401C074A87
:101EA00010700748445410460078202802DB0020B8
:101EB0001146087010BD000000440040540000208E
:101EC000900000202DE9FC4781466C4800780028EE
:101ED0007CD1B9F1420F7AD01ADCB9F1340F79D044
:101EE0000CDCB9F1300F32D0B9F1310F35D0B9F186
:101EF000320F46D0B9F1330F24D155E0B9F1350F87
:101F000069D0B9F1360F6BD0B9F1410F1AD169E040
:101F1000B9F1620F6AD00CDCB9F1430F6CD0B9F1A2
:101F2000440F6ED0B9F14D0F70D0B9F1610F09D1E6
:101F300057E0B9F1630F5ED0B9F1640F60D0B9F129
:101F40006D0F62D049464EA0FEF77EF900BF56489D
:101F5000016856A0FEF778F95CE001F009FA054641
:101F6000294654A0FEF770F9002407E05748025DA7
:101F7000214657A0FEF768F9601CC4B2072CF5DBB8
:101F800048E05948006802F0D3FE05460E4657481F
:101F9000006802F0CDFE07463A460B4654A0CDE954
:101FA0000056FEF751F935E001F032FD05462946AD
:101FB00056A0FEF749F901F08BFA401E604951F82E
:101FC000205029465FA0FEF73FF923E023E00EE012
:101FD00000E000E01EE061A161A0FEF735F919E024
:101FE00018E000BF01202549087013E000BF02205F
:101FF0002249087000BF00BF04202049087009E092
:1020000000BF05201D49087000BF00BF03201B4909
:10201000087000BF30E019480078012807D101217D
:10202000484601F00FFD00201449087024E01348D1
:102030000078022807D10021484601F003FD002066
:102040000E49087018E00D480078032806D148466C
:1020500002F0E4FC0020094908700DE00748007810
:10206000042806D1484601F0EDFD00200349087020
:1020700002E0002001490870BDE8FC87380000201C
:102080004552524F523A20436F6D6D616E64205538
:102090006E6B6E6F7720636D64203D2030782578FD
:1020A0002121210D0A0000000400002025730D0AE3
:1020B000000000006C617365722061726561203DF3
:1020C0002030782578200D0A000000003A0000201A
:1020D0006C617365722070776D5B25645D203D20B7
:1020E0002564200D0A000000500000204C00002054
:1020F00074656D70203D2025302E32662C68756D1C
:1021000069203D2025302E32660D0A00757362204D
:1021100063686172676520737461747573202564E8
:10212000A3A8303A6E632C313A6368617267696EB6
:10213000672C323A66756C6CA3A90D0A000000008A
:102140001800002073797374656D2072756E2073AA
:102150007461747573202573200D0A006F66660024
:10216000576174636820446F67205374617475739A
:10217000203D2025730D0A0010B5044802F0F2FA44
:10218000C4B22046FFF79EFE10BD0000003801409B
:10219000704700000349086000BF02490968002930
:1021A000FBD170470C000020F0B5034600224FF031
:1021B000E0277D69104F3F68DFF840C0B7FBFCF7B0
:1021C000FEB203FB06F44FF0E027B96910E04FF0D0
:1021D000E027B86988420BD0884202D20F1A3A44ED
:1021E00002E02F1A0F443A440146A24200D300E015
:1021F000EDE700BFF0BD00008000002040420F006E
:102200000448006820B103480068401E0149086086
:10221000704700000C000020704710B54FF40070AC
:1022200000F0C8FF30B14FF4007000F0BDFF01F0C6
:102230007FFB08E04FF4004000F0BCFF18B14FF402
:10224000004000F0B1FF10BD10B50121014801F0C0
:1022500051F910BD0008014010B50121014801F0FD
:1022600047F910BD0008014000BFFEE770B5044605
:102270000D462946204600F0EFF8204600F053F9BD
:10228000002810D000BF094BFA2209A10BA0FDF7CE
:10229000DBFF214612A0FDF7D7FF00BF204600F06C
:1022A00023F9032070BD0020FCE700007E520008E7
:1022B0007372635C6969632E630000003C3C46698D
:1022C0006C653A257320204C696E653A25642020A0
:1022D00046756E6374696F6E3A25733E3E2000004A
:1022E0004552524F523A2073656E6420776F726484
:1022F0005F61646472204949435F576169745F415B
:10230000636B28696E64657829213D203020696EF1
:10231000646578203D2025640A00000010B504465D
:102320000021204600F04EF9204600F071FB00210C
:10233000204600F073F90420FFF736FF0121204604
:1023400000F040F90620FFF72FFF0021204600F0A3
:1023500039F90320FFF728FF10BD000070B50546CE
:1023600040F2036001F090FE012D02D14FF4406471
:1023700005E0022D02D14FF4407400E0C024234652
:1023800002221021054801F003F90121284600F03E
:1023900019F90121284600F041F970BD000C0140F7
:1023A00010B504460021204600F00CF9204600F04C
:1023B0002FFB0121204600F031F90420FFF7F4FE45
:1023C0000121204600F0FEF80620FFF7EDFE002177
:1023D000204600F0F7F80320FFF7E6FE10BD2DE9D8
:1023E000F04107460D4600240021384600F0EAF887
:1023F000384600F0EFFA0320FFF7D6FE00261EE075
:102400000021384600F0DEF80520FFF7CDFE01215F
:10241000384600F0D7F86006040E0420FFF7C4FE2B
:10242000384600F0B3F908B1601CC4B20420FFF7CD
:10243000BBFE0021384600F0C5F8701CC6B2082E5D
:10244000DEDB1DB93846FFF7ABFF02E03846FFF789
:1024500065FF2046BDE8F08170B506460C460021B8
:10246000304600F0AFF8304600F0D2FA00251CE00C
:102470000320FFF799FE04F08001304600F0CEF80B
:102480006006040E0420FFF78FFE0121304600F0A5
:1024900099F80620FFF788FE0021304600F092F8F8
:1024A0000320FFF781FE681CC5B2082DE0DB70BD7C
:1024B00010B50446204600F0ABFA0121204600F09A
:1024C000ADF80121204600F07DF80620FFF76CFEF4
:1024D0000021204600F0A2F80620FFF765FE00214B
:1024E000204600F06FF810BD10B5044600212046CC
:1024F00000F068F8204600F08BFA0021204600F03A
:102500008DF80620FFF750FE0121204600F05AF812
:102510000320FFF749FE0121204600F07FF8062046
:10252000FFF742FE10BD70B5054600240021284685
:1025300000F048F80320FFF737FE0121284600F09D
:102540006DF80320FFF730FE284600F043FA012122
:10255000284600F037F80320FFF726FE0BE0601C4A
:10256000C4B2FA2C04DD2846FFF7BEFF012070BD7F
:102570000120FFF719FE284600F008F90028EED1E7
:102580000021284600F01EF80320FFF70DFE002072
:10259000EDE7000010B504460120A0400849097885
:1025A000084000B110BD2046FFF7D8FE0120A04032
:1025B0000349097808430249087000BFF2E70000A8
:1025C0000000002070B505460C46012D0BD124B14A
:1025D0008102114800F08EFF1DE04FF480610E482B
:1025E00000F086FF17E0022D0BD124B1E9010A4863
:1025F00000F080FF0FE04FF48071074800F078FF93
:1026000009E024B14021044800F074FF03E04021B8
:10261000014800F06DFF70BD000C014070B505462B
:102620000C46012D0BD124B1C102114800F062FF0C
:102630001DE04FF400610E4800F05AFF17E0022D34
:102640000BD124B129020A4800F054FF0FE04FF4E7
:102650000071074800F04CFF09E024B180210448D4
:1026600000F048FF03E08021014800F041FF70BD09
:10267000000C014010B540F2026001F005FD03239B
:1026800002221021044800F083FF4FF480710248B9
:1026900000F02EFF10BD00000008014000BFFEE763
:1026A0007047000010B50221014800F023FF10BD63
:1026B0000008014010B50221014800F019FF10BDCB
:1026C000000801407047000010B50821014800F0E3
:1026D0000FFF10BD0010014010B540F2036001F083
:1026E000D3FC40F2046001F0CFFC4FF4C04302225F
:1026F0001021244800F04CFF4FF40051214800F015
:10270000F7FE4FF480411F4800F0F4FE08211E48F8
:1027100000F0F0FE0823022210211B4800F038FFD1
:102720004FF4805302220421164800F031FF802329
:1027300002220421144800F02BFF40F2046001F053
:10274000A3FC4023022248210F4800F021FF40F261
:10275000036001F099FC4FF4004302221021094864
:1027600000F016FF4FF40041064800F0C1FE1021B2
:10277000054800F0BDFE102302221946024800F071
:1027800007FF10BD000C01400010014010B50446C9
:10279000012C04D1C102084800F050FF10BD022CEA
:1027A00004D12102044800F049FFF7E780210248E4
:1027B00000F044FFF2E70000000C014030B5024693
:1027C0000B46FF20002113E0555C684008240BE015
:1027D00000F0800525B1312585EA4005E8B201E029
:1027E0004506280E651EECB2002CF1DC4D1CE9B24A
:1027F0009942E9DB30BD000070B50446204602F086
:10280000E7FB0646034902F0F7FB0546024902F0E2
:102810001DFB70BD0000C84200FF7F472DE9F0415D
:102820000446204602F0D4FB0746064902F0E4FBCA
:102830000646054902F00AFB0546044902F0A8FCD9
:10284000BDE8F08100002F4300FF7F4700003442C5
:102850002DE9F04105460E46144631462846FFF75D
:10286000ADFF0746A74202D00220BDE8F08100205C
:10287000FBE7000010B504460020FFF78BFE0020A8
:1028800002490870204600F05DF810BD49000020A4
:102890002DE9F84304460F4690460121114800787F
:1028A000FFF79DFD8DF8000001210E480078FFF72D
:1028B00096FD8DF8010000210A480078FFF78FFD92
:1028C0000646324602216846FFF7C2FF05469DF8DC
:1028D00001009DF8001040EA012020802846BDE854
:1028E000F8830000490000207CB505460E4600F044
:1028F00043F8044624B94FF4604000F057F804460A
:1029000014B900F025F804462CB90022114601A89C
:10291000FFF7BEFF04462CB9002201216846FFF7ED
:10292000B7FF04464CB9BDF80400FFF777FF2860F5
:10293000BDF80000FFF760FF306000F02FF8204680
:102940007CBD00000149087070470000480000206D
:1029500010B507480078FFF7ABFD0648007840F057
:10296000010103480078FFF777FD002010BD00004B
:10297000490000204800002010B506480078FFF705
:1029800097FD0548017803480078FFF765FD0020B2
:1029900010BD0000490000204800002010B502488A
:1029A0000078FFF7A1FD10BD4900002070B5044676
:1029B000211206480078FFF759FC0546E1B20348AA
:1029C0000078FFF753FC0543284670BD49000020FE
:1029D0007047000010B50446012C06D1C302022244
:1029E00048210A4800F0D4FD0EE0022C06D1230253
:1029F00002224821054800F0CBFD05E08023022299
:102A00004821024800F0C4FD10BD0000000C014048
:102A100010B50446012C06D1C302022210210A4837
:102A200000F0B6FD0EE0022C06D123020222102196
:102A3000054800F0ADFD05E0802302221021024888
:102A400000F0A6FD10BD0000000C014010B500F024
:102A50005BF810BD10B51448006840F00100124941
:102A6000086008464068114908400F494860084618
:102A700000680F4908400C4908600846006820F4C7
:102A800080200860084640680A49084006494860B6
:102A90000846006806490840034908604FF41F00D3
:102AA000886001F0B3FB10BD001002400C00FFE88D
:102AB000FFFFF6FEFFFF00F710B5124800684FF465
:102AC0007A71B0FBF1F4601EB0F1807F01D3012078
:102AD0000FE0601E4FF0E02148610F214FF0FF3002
:102AE00000F06AF900204FF0E021886107200861BA
:102AF000002008B100BFFEE70021481E00F05CF98D
:102B000010BD00008000002010B534480068401C53
:102B100032490860FFF774FB304800680A21B0FBB7
:102B2000F1F201FB120028B92D48008840F00100A5
:102B30002B490880294800683221B0FBF1F201FBE3
:102B400012000F2805D12648008840F010002449C3
:102B5000088000F0BDFC03283FDD204800680A2102
:102B6000B0FBF1F201FB1200052805D11C480088DA
:102B700040F002001A490880184800684FF47A7142
:102B8000B0FBF1F201FB120040F29A21884205D11C
:102B90001348008840F00800114908800F48006879
:102BA0006421B0FBF1F201FB12004D2805D10C4865
:102BB000008840F020000A490880084800684FF467
:102BC000FA71B0FBF1F201FB1200852805D104482F
:102BD000008840F040000249088010BD100000202D
:102BE0000800002070B52B480078401C2949087067
:102BF00000F00EFF0546002D1ADD012D13D1FFF761
:102C000051FD24480078052802DAFFF725FB3FE054
:102C1000204800780A2802DAFFF716FB38E0002087
:102C20001C49087034E0FFF717FBFFF73BFD2FE06E
:102C300000F04EFC0446032C07D100201549087013
:102C4000FFF702FBFFF72EFD70BD052C04D1FFF747
:102C500003FBFFF727FD1BE0042C13D1FFF7F4FA69
:102C60000C480078052802DAFFF724FD10E0094837
:102C700000780A2802DAFFF715FD09E0002005496F
:102C8000087005E0012C03D1FFF7DEFAFFF712FD13
:102C900000BFD9E75800002010B50B490B4801F0E0
:102CA000FEFD30B1FFF768FA0749084801F0EAFD78
:102CB00008E00749054801F0F2FD18B1044903484E
:102CC00001F0E0FD10BD00000503050000380140E3
:102CD0000403040010B51749174801F0E0FD88B15E
:102CE000FFF7D4F81349144801F0CCFD13480078DD
:102CF000F0B94FF44171104801F0B7FD01200F49C0
:102D0000087015E00E490C4801F0C9FD80B1FFF7CD
:102D1000BBF80B49084801F0B5FD0848007838B108
:102D20004FF44171044801F093FD002003490870FD
:102D300010BD000005030500004400405A000020BB
:102D4000040304007CB504460D460E4903C9CDE9D1
:102D50000001012C00DD7CBD0120A0400A4909785A
:102D6000084060B100BF5DF82400072101F051FD6B
:102D70000028F8D05DF82400294601F0F8FC00BFD7
:102D8000E9E70000D45200081400002000BFFEE76D
:102D9000490050EAC12018BF04204A0D18BF40F076
:102DA000010040F2FF72B2EB515F08BF40F0020039
:102DB000012808BF0520704710B5002804DB0A076A
:102DC000130E054A135406E00A07140E034A00F0D6
:102DD0000F031B1FD45410BD00E400E018ED00E009
:102DE00030380A2801D201207047002070478168DE
:102DF00041F00801816000BF816801F008010029ED
:102E0000FAD1816841F00401816000BF816801F05E
:102E100004010029FAD1704730B5012902D00229F6
:102E20001AD10CE0C36A23F47003C362C36A541E50
:102E30004FF4700505EA04542343C3620DE0836B2D
:102E400023F440138363836B541E4FF4401505EA4B
:102E500004542343836300E000BF00BF30BD21B1B1
:102E6000826842F40062826003E0826822F40062B9
:102E700082607047816801F0010119B9816841F0F1
:102E800001018160704772B101F001031BB18368D9
:102E900043F48013836001F0020393B1836843F429
:102EA000004383600DE001F001031BB1836823F44C
:102EB0008013836001F002031BB1836823F4004395
:102EC00083607047012902D0022910D107E083688E
:102ED00023F46023836083681343836008E083687E
:102EE00023F4E043836083681343836000E000BF02
:102EF00000BF704702688A430260704702460020A4
:102F000013680B4003B101207047000005490968B0
:102F100021F47021034A11601146096801431160D0
:102F20007047000004240140F0B51D4606290CDA64
:102F3000436B01EB81071F26BE40B34301EB8106C3
:102F400002FA06F63343436322E00C290EDA036BE0
:102F50008E1F06EB86071F26BE40B3438E1F06EB6F
:102F6000860602FA06F63343036311E010290FDAEE
:102F7000C36AA1F10C0606EB86071F26BE40B343C9
:102F8000A1F10C0606EB860602FA06F63343C3628D
:102F90000A2A0CDA046902EB42070726BE40B44352
:102FA00002EB420605FA06F63443046111E0122AE8
:102FB0000FDAC468A2F10A0606EB46070726BE40F0
:102FC000B443A2F10A0606EB460605FA06F63443B8
:102FD000C460F0BD0146C86C80B2704701F00102C8
:102FE0001AB1826842F48002826001F002021AB1D2
:102FF000826842F4001282607047AAB101F48073C3
:103000001BB1436843F48073436001F480631BB1D8
:10301000436843F48063436001F00203CBB18368EB
:1030200043F00203836014E001F480731BB1436832
:1030300023F48073436001F480631BB1436823F47D
:103040008063436001F002031BB1836823F0020335
:103050008360704710B500F0DBFC00B110BDFEF7D7
:10306000D1FE0446242C08DC1E2C03DD042001F0D4
:1030700043F802E0022001F03FF800BFEEE7000055
:1030800010B500F025FA044600F0C0F8012816D16A
:103090000E480088B0F5967F17DC0C480088401C6D
:1030A0000A49088008460088B0F5967F0DDD032C9C
:1030B00002DC01F0BDF808E001F0ACF805E00348DF
:1030C000008810B100200149088010BD5600002082
:1030D00010B52C4B1B6883432A4C2360231D1B68AF
:1030E0008343241D2360231D1B688343241D236009
:1030F000231D1B688343241D236011B101290ED1B8
:1031000005E0204B1B6803431E4C236008E01D4B69
:103110001B1D1B6803431B4C241D236000E000BFE4
:1031200000BF22B1012A0FD0022A27D119E0154B86
:1031300008331B680343134C08342360231D1B68AA
:103140008343241D23601AE00E4B08331B6883431E
:103150000C4C08342360231D1B680343241D23608B
:103160000DE0084B08331B680343064C083423600A
:10317000231D1B680343241D236000E000BF00BF24
:1031800010BD000000040140024909688143014A62
:103190001160704700040140024909680143014A77
:1031A0001160704700040140014908607047000049
:1031B0001404014001460748006800EA010205487E
:1031C0001438006800EA010312B10BB10120704706
:1031D0000020FCE71404014070B504460D46E1B23E
:1031E0000020FFF7AFFD204670BD000010B540F293
:1031F000026000F049FF4FF400430222042102481C
:1032000000F0C6F910BD00000008014010B54FF4F1
:103210000041044800F012FA08B9012010BD002056
:10322000FCE700000008014070B504460D46344E2E
:10323000012C00D1334E0120A040334909780840C9
:1032400000B170BD314931F8140000F01DFF304964
:1032500031F8140000F018FF2E4951F824302E499F
:1032600051F824000222182100F092F92B4951F85C
:103270002430294951F824000222042100F088F961
:10328000304601F079FA2946304601F023FA002150
:10329000304601F040FB0021304601F02CFB0021BC
:1032A000304601F018FB0021304601F0C9FA002138
:1032B000304601F0BDFA0421304601F014FB08212C
:1032C000304601F020FB304601F09EFA40F2053115
:1032D000304601F0CAFA124B1B5D03F00302104B9B
:1032E0001B5D99100F4B13F8240000F077FD0120AF
:1032F000A0400549097808430349087000BFA0E7CA
:10330000003801400044004014000020C45200086E
:10331000A8520008AC520008BC520008B452000881
:10332000D0520008C85200082DE9F04107460C466B
:103330000025002608E03846FEF744FD0544052038
:10334000FEF728FF701CC6B2A642F4DBB5FBF4F012
:1033500080B2BDE8F081000010B54021034800F0C4
:103360006DF908B9012010BD0020FCE700100140F4
:1033700001480078704700004200002070B53649CF
:103380003648FFF7B1FA0446002C57D1334800689D
:1033900001F0CEFC05460022314B01F039FC03D28E
:1033A000642000F0ABFD55E02C48006801F0C0FC43
:1033B000054600222B4B01F02BFC03D2462000F0E7
:1033C0009DFD47E02548006801F0B2FC054600225B
:1033D000254B01F01DFC03D2322000F08FFD39E0B7
:1033E0001E48006801F0A4FC054600221F4B01F0B6
:1033F0000FFC03D21E2000F081FD2BE0174800686F
:1034000001F096FC05460022194B01F001FC03D2A5
:10341000142000F073FD1DE01048006801F088FCE6
:1034200005460022134B01F0F3FB03D20A2000F003
:1034300065FD0FE0002000F061FD0BE000BF0E4BCA
:1034400040F261320DA110A0FCF7FEFE17A0FCF7C0
:10345000FBFE00BF70BD0000500000204C000020AB
:1034600000003E4000804140000044400080464053
:103470000000484000004940DC5200087372635C61
:1034800073687433302E63003C3C46696C653A25A2
:103490007320204C696E653A2564202046756E6362
:1034A00074696F6E3A25733E3E2000004552524FBC
:1034B000523A53485433585F526561644D656173A5
:1034C0007572656D656E744275666665720A000098
:1034D00001480078704700005900002010B54FF4F3
:1034E0008051024800F0AAF810BD0000000C014015
:1034F000416170470161704710B500228B071C0FB6
:103500000F2303FA04F204290EDA204B9B6893433D
:103510001E4CA36023469B688C07240F00FA04F41A
:1035200023431A4CA3602FE008290EDA174BDB68FF
:103530009343164CE3602346DB688C07240F00FAA4
:1035400004F42343114CE3601EE00C290EDA0F4B08
:103550001B6993430D4C236123461B698C07240F81
:1035600000FA04F42343094C23610DE0074B5B6927
:103570009343064C636123465B698C07240F00FA72
:1035800004F42343014C636110BD000000000140BE
:10359000F0B5044616460025002201F00F0501F0A3
:1035A000100707B1354300201EE0012787401F4068
:1035B000C7B122684FEA800C0F2707FA0CF7BA430D
:1035C000870005FA07F73A43282904D101278740E5
:1035D0001F40676105E0482903D1012787401F404C
:1035E00027612260471CB8B20828DED3082022E0F9
:1035F000012787401F40E7B16268A0F108074FEA42
:10360000870C0F2707FA0CF7BA43A0F10807BF0091
:1036100005FA07F73A43282904D1012787401F40BC
:10362000676105E0482903D1012787401F402761D2
:103630006260471CB8B21028DAD3F0BD0246906829
:10364000084008B1012070470020FCE7F0B50A46A9
:10365000002300240021002500F00046B6F1004FB1
:1036600002D11D4EF16901E01B4E7168C0F30345A4
:1036700083B200F44016B6F5401F08D121F0706106
:10368000154E766826F07066134F7E6012E000F4E7
:103690008016B6F5801F06D1032606FA05F4A1436D
:1036A00041F0706106E0460D360103FA06F6B143BB
:1036B00041F0706122B1460D360103FA06F631433E
:1036C00000F00046B6F1004F02D1034EF16101E077
:1036D000014E7160F0BD000000000140C16941F47D
:1036E0008061C1617047000010B540F2046000F0D5
:1036F000CBFC4FF40073022248210D48FFF748FF2E
:1037000002221146172000F069FB09210220FFF771
:10371000F3FE022200211002FFF7DAFC4FF40070E2
:10372000FFF742FD4FF40070FFF736FD10BD0000BB
:103730000010014010B500F063F94FF40070FFF77E
:1037400023FD172000F03EFB10BD000010B5FFF771
:10375000BFFE032807D10020434908804349088061
:103760004349088010BD43480088002830D04148B4
:103770000088401E3F4908803B48008868B9002007
:1037800000F0BCFB00BF3C4BAC223CA13FA0FCF7CF
:103790005BFD4748FCF758FD00BF33480088401CDC
:1037A0003149088008460088B0F5966F43DD00BFB8
:1037B000314BB22231A135A0FCF746FD3D48FCF764
:1037C00043FD00BF00202949088000F023FD32E0BE
:1037D0002548008810B1002023490880234800882C
:1037E00000280DD1642000F089FB00BF224BC122CC
:1037F00022A126A0FCF728FD2FA0FCF725FD00BF85
:103800001A480088401C194908800846008844F27C
:10381000A01188420FDD00BF174BC72217A11BA0C4
:10382000FCF712FD32A0FCF70FFD00BF00F0F2FC28
:1038300000200E4908800E480088401C0C49088072
:1038400008460088012802D100F0D2F809E00848B3
:103850000088052802DA00F0D3F802E000200449CD
:10386000088000BF7EE700006000002062000020AA
:10387000640000205E000020FF5200087372635C49
:1038800069725F7377697463682E63003C3C4669B4
:103890006C653A257320204C696E653A25642020BA
:1038A00046756E6374696F6E3A25733E3E20000064
:1038B000D85400088454000869725F697271395FD6
:1038C0006465746563745F7461736B2064657465AB
:1038D000637420736F6D656F6E65202C616E64205C
:1038E000706F7765726F6E206C617365720D0A0080
:1038F00069725F697271395F6465746563745F745E
:1039000061736B207461736B2069732072756E2014
:103910003238206D696E732C616E64207379737414
:10392000656D20706F7765726F66660D0A00000026
:1039300005200149088070475E00002030B587B03F
:1039400032244FF48073022218212448FFF720FE0E
:1039500040F20D6000F098FB642C00DD642403A8A5
:1039600000F0ACFE1E480088401E05901D4800680F
:103970001D49B0FBF1F0401E80B2ADF80C0003A968
:103980001A4800F01FFE684600F009FE0120ADF85D
:1039900000006A460221154800F09EFC70220221B8
:1039A000124800F08FFDC4F164000D4909884843B6
:1039B000642190FBF1F52A4602210C4800F0AFFD8E
:1039C00000220221094800F0BDFD0121074800F056
:1039D00069FE064800F07AFC07B030BD00100140D7
:1039E0005C0000208000002040420F0000340140B5
:1039F00010B5024800F0E0FD10BD000000340140A9
:103A000010B5024800F0D3FD10BD000000340140A5
:103A100010B5FFF763FD08B9002010BDFFF79CFC4F
:103A200008B10120F9E70220F7E70000072806DACD
:103A300001218140024A12781143014A11707047F6
:103A40004200002070B504460D46372C0DDA302CAC
:103A50000BDB2DB1A4F13001C8B2FFF7E7FF04E0A2
:103A6000A4F13001C8B200F051F9A4F130012A46A6
:103A700001A0FCF7E9FB70BD6C617365725F617258
:103A800065615F636F6E74726F6C20206172656137
:103A9000203D20256420206164643D2025640D0ABA
:103AA0000000000010B540F2026000F0EDFA40F2B4
:103AB000036000F0E9FA40F2046000F0E5FA40F239
:103AC000056000F0E1FA4FF48053022210211448FF
:103AD000FFF75EFD3823022210211248FFF758FD40
:103AE0004FF4E053022210210F48FFF751FD042349
:103AF000022210210D48FFF74BFD4FF4805108487A
:103B0000FFF7F6FC38210748FFF7F2FC4FF4E051CD
:103B10000548FFF7EDFC04210448FFF7E9FC10BD60
:103B200000080140000C0140001001400014014059
:103B300010B500F0B3F938210648FFF7D9FC4FF46F
:103B4000E0510548FFF7D4FC04210448FFF7D0FCFE
:103B500010BD0000000C01400010014000140140A5
:103B600010B5044614B9FFF7E3FF10BDFFF7B0FC32
:103B7000032802D1FFF7DCFFF7E700F09DF904F01E
:103B8000010020B110212C48FFF7B4FC03E0102104
:103B90002948FFF7ADFC04F0020020B108212648B7
:103BA000FFF7A8FC03E008212348FFF7A1FC04F07D
:103BB000040020B120212048FFF79CFC03E02021D5
:103BC0001D48FFF795FC04F0080020B104211B48B4
:103BD000FFF790FC03E004211848FFF789FC04F08C
:103BE000100028B14FF480511548FFF783FC04E022
:103BF0004FF480511248FFF77BFC04F0200028B1FD
:103C00004FF400610E48FFF775FC04E04FF40061CB
:103C10000B48FFF76DFC04F0400028B14FF48061C1
:103C20000748FFF767FC04E04FF480610448FFF7A2
:103C30005FFC00BF99E70000000C01400014014048
:103C40000010014070B50446392C0ADC302C08DB2A
:103C5000A4F12F0000EB80004006050E284600F07E
:103C60004DF9294601A0FCF7EFFA70BD6C61736550
:103C7000725F70776D5F636F6E74726F6C2020641B
:103C80006567726565203D202564200D0A000000EF
:103C900010B5FFF71DFC032805DC0020174908803C
:103CA000FFF75EFF10BD1548008864281BDA144832
:103CB00000781449087000240EE01348005D0F4995
:103CC0000988884206DC0120A0400E49097881431A
:103CD0000C480170601CC4B2072CEEDB0948007868
:103CE000FFF73EFF03E0002004490880DAE70348BD
:103CF0000088401C0149088000BFD3E74400002031
:103D000042000020410000203A000020072806DA87
:103D100001218140024A12788A4301490A707047A2
:103D20004200002090B0242107A8FCF718FC1C22B8
:103D300017496846FCF7E1FBFEF772F81548016881
:103D400015A0FCF781FA16A0FCF77EFA1EE000240D
:103D500015E00120A0401A490988084068B10120F7
:103D6000A040174909888143154801805DF8240067
:103D700018B15DF82400804707E0601CC4B2102C25
:103D800003DA0F4800880028E3D100BFDFE7000016
:103D90008C5200080400002025730D0A000000006A
:103DA000426F617264496E697420646F6E65212090
:103DB000323032322D30372D32320D0A0000000001
:103DC0000800002000F01F0201219140024A431127
:103DD00042F823107047000080E100E02DE9F04137
:103DE00003460D46164600240027A04624480068D6
:103DF00000F4E060B0F5A06F15D006DCB0F5407FB0
:103E000018D0B0F5806F19D110E0B0F5C06F06D0B2
:103E1000B0F5E06F12D100274FF0040815E001273C
:103E20004FF0030811E00227B8460EE003274FF0D9
:103E300001080AE004274FF0000806E04FF4A060F4
:103E400000F022F80227B84600BF00BFC7F1040007
:103E500005FA00F4C8F104010F20C84030400443C3
:103E600024010848C45403F01F010120884059115F
:103E7000890001F1E021C1F80001BDE8F0810000F6
:103E80000CED00E000E400E002490143024A116049
:103E9000704700000000FA050CED00E010B54FF48B
:103EA00000410448FFF724FB4FF480410148FFF72D
:103EB00021FB10BD000C014010B54FF40041044837
:103EC000FFF718FB4FF480410148FFF711FB10BDCD
:103ED000000C014010B54FF400510248FFF708FBF9
:103EE00010BD0000000C014010B54FF40051024815
:103EF000FFF700FB10BD0000000C014001466429E3
:103F000000DD6421002003E0034A1154421CD0B2BA
:103F10000728F9DB704700003A0000200F4A51687B
:103F20000F4A1140082814D2DFE800F00405060704
:103F3000130A130B00BF00BF00BF41EA803109E044
:103F400000BF20F004004FF0805242EA803211435B
:103F500000E000BF00BF014A5160704700100240FE
:103F6000FF3FFFEF2DE9F04F8BB00746002009908F
:103F70003EA090E8004CC068CDE905BECDF810A089
:103F800007900FF2EC0ADAE9000ACDE9020A0FF213
:103F9000E00ADAE9000ACDE9000A38484068C0F3CF
:103FA00081000A900A9820B1012804D0022829D162
:103FB00003E0334928E0324926E03048406800F405
:103FC0008038B8F5803F09D12D4C2C48406800F46A
:103FD0000039B9F5003F02D1641000E0294C2748B0
:103FE0004068C0F383422548406800F0006008B193
:103FF00042F010020F2A01D2921C00E0521C04FB76
:1040000002F101E01E4900BF00BF1C484068C0F338
:10401000031504A8465D21FA06F318484068C0F36A
:10402000022502A8465D23FA06FC14484068C0F346
:10403000C2251DF8056023FA06F0089037B1012F5C
:1040400006D0022F06D0032F0AD106E0099108E01E
:10405000099306E0CDF824C003E00898099000E039
:1040600000BF00BF09980BB0BDE8F08F0000000052
:1040700000000000010203040607080900100240C6
:1040800000127A0000093D00064A02EB901109680F
:1040900000F01F0301229A401143024B03EB9012E0
:1040A0001160704700100240064A02EB9011096847
:1040B00000F01F0301229A409143024B03EB901240
:1040C0001160704700100240064A02EB9011096827
:1040D00000F01F0301229A401143024B03EB9012A0
:1040E000116070470010024010B510210148FFF721
:1040F00001FA10BD0010014001490870704700002E
:104100005900002002460020106800F441500B685E
:1041100018434B6818438B681843CB6818430B69E6
:1041200018434B6918438B6918431060D36923F413
:104130000063D36170470021016041608160C1600C
:104140004161816170470000002000212C4A126803
:1041500042F480322A4B1A6000BF401C284A126881
:1041600002F4003119B94FF6FF729042F5D1244A9A
:10417000126802F400320AB900BFFEE7204A526812
:104180001F4B5A601A4652685A601A46526842F4E7
:1041900080625A601A46526822F440325A601A46C7
:1041A000526842F440325A601A465268154B1A401F
:1041B000134B5A601A465268134B1A43104B5A60FD
:1041C0001A46126842F080721A6000BF0C4A1268E8
:1041D00002F00072002AF9D0094A526822F0030264
:1041E000074B5A601A46526842F002025A6000BFFA
:1041F000034A526802F00802002AF9D07047000012
:1042000000100240FFFFC3F70000040810B5FFF7DD
:104210009BFF10BD10B5FEF757FA0320FFF76CFFA8
:104220000020FFF79DFCFFF785FAFFF753FE10BD56
:1042300010B5FDF7E7FD04461E2C0CDC00BF0A4B51
:1042400039220AA10FA0FBF7FFFF214616A0FBF7BA
:10425000FBFF00BF10BD0520FFF74EFFFFF744FA3C
:10426000FFF742FE00BFF5E7EF5200087372635C90
:104270006465765F72756E5F7374617475732E63B7
:10428000000000003C3C46696C653A257320204CD8
:10429000696E653A2564202046756E6374696F6E99
:1042A0003A25733E3E2000004552524F523A706FFD
:1042B00077657220697320746F6F206C6F7720763A
:1042C0006F6C203D2025640A00000000016841F069
:1042D000800101607047000010B531B101293FD065
:1042E00002297DD003297CD1BFE0036A23F00103BA
:1042F0000362836923F003038361036A1488234301
:104300000362036A23F002030362036A948823436F
:1043100003626A4B984202D0694B98421FD1036AEC
:1043200023F004030362036A548823430362036A8D
:1043300023F008030362036AD488234303624368BB
:1043400023F48073436043681489234343604368C4
:1043500023F4007343604368548923434360ABE014
:10436000036A23F010030362836923F440738361BB
:10437000036A148843EA04130362036A23F02003E8
:104380000362036A948843EA041303624B4B984226
:1043900002D04B4B984226D1036A23F040030362BC
:1043A000036A548843EA04130362036A23F0800318
:1043B0000362036AD48843EA04130362436823F464
:1043C000806343604368148943EA8403436043681D
:1043D00023F4006343604368548943EA840301E0A3
:1043E00002E068E0436067E0036A23F480730362DD
:1043F000C36923F00303C361036A148843EA0423F7
:104400000362036A23F400730362036A948843EA35
:1044100004230362294B984202D0294B984223D1AE
:10442000036A23F480630362036A548843EA042323
:104430000362036A23F400630362036AD48843EAD5
:1044400004230362436823F4805343604368148960
:1044500043EA04134360436823F400534360436812
:10446000548943EA0413436026E0036A23F480532B
:104470000362C36923F44073C361036A148843EA87
:1044800004330362036A23F400530362036A9488CB
:1044900043EA04330362094B984202D0084B984226
:1044A00008D1436823F4804343604368148943EA96
:1044B0008413436000E000BF00BF10BD002C01402A
:1044C0000034014031B101290CD0022913D0032955
:1044D00022D118E0836923F0700383618369134359
:1044E00083611AE0836923F4E0438361836943EACB
:1044F0000223836111E0C36923F07003C361C369C0
:104500001343C36109E0C36923F4E043C361C36992
:1045100043EA0223C36100E000BF00BF704731B12E
:10452000012906D0022906D0032908D105E04263FB
:1045300006E0826304E0C26302E0026400E000BFC0
:1045400000BF704731B101290CD0022913D00329D3
:1045500022D118E0836923F0080383618369134340
:1045600083611AE0836923F400638361836943EA0A
:104570000223836111E0C36923F00803C361C369A7
:104580001343C36109E0C36923F40063C361C369D2
:1045900043EA0223C36100E000BF00BF704700216F
:1045A000018041808180C180018141817047016823
:1045B00021F0010101607047016841F001010160D3
:1045C000704700000A888262294A904220D0B0F1E8
:1045D000804F1DD0274A90421AD0274A904217D0C8
:1045E000264A904214D0264A904211D0254A904241
:1045F0000ED0254A90420BD0244A904208D0244A3B
:10460000904205D0234A904202D0234A90420FD1D3
:10461000026822F07002026002688B7803F0600387
:104620001A43026002680B7903F010031A43026018
:104630008A68C262194A90420CD0194A904209D045
:10464000026822F44072026002688B8903F44073AE
:104650001A430260064A904202D0094A904201D1B0
:104660008A7B0263426942F00102426170470000A6
:10467000002C01400004004000080040000C0040F5
:1046800000340140004C0140005001400054014002
:1046900000180040001C00400020004000100040B6
:1046A00000140040012904D1426C42F400424264EB
:1046B00003E0426C22F40042426470470021018012
:1046C000418081804FF6FF7181600021818181737B
:1046D000704700002DE9F04704460D460027B84614
:1046E000B94600261D49601A8C421CD006DC1C48C5
:1046F000204470B1B0F5806F1FD10FE0B0F5806F2E
:1047000016D0B0F56C4F18D10320FFF72BFC0746ED
:1047100014E00220FFF726FC07460FE00220FFF717
:1047200021FC07460AE00220FFF71CFC074605E0D3
:104730000220FFF717FC074600E000BF00BF07EBB1
:104740005500B0FBF5F64FF6F07006EA000806F0EB
:104750000F0948EA0900A060BDE8F087004C00405E
:1047600000BCFFBF01464868C0F308007047C1F3B2
:10477000080242607047000010B504462049601AE4
:104780008C4228D006DC1F48204490B1B0F5806FE1
:1047900033D117E0B0F5806F26D0B0F56C4F2CD137
:1047A00040F20E30FFF790FC40F20E30FFF77CFC39
:1047B00024E040F21140FFF787FC40F21140FFF780
:1047C00073FC1BE040F21240FFF77EFC40F2124007
:1047D000FFF76AFC12E040F21340FFF775FC40F26D
:1047E0001340FFF761FC09E040F21440FFF76CFC56
:1047F00040F21440FFF758FC00E000BF00BF10BDBE
:10480000004C004000BCFFBFC16841F40051C160D2
:10481000704710B5024602EB9110006801F01F04CA
:104820000123A340184008B1012010BD0020FCE77F
:104830000A460021416921F400711143416170472A
:104840000A460021416921F480711143416170479A
:1048500010B5C1F38912825801F01F040123A3404F
:104860009A43C1F38913C25010BD10B5C1F3891228
:10487000825801F01F040123A3401A43C1F3891396
:10488000C25010BD10B500EB91521268C1F3044440
:104890000123A3409A4300EB91531A6010BD70B5F9
:1048A000024600230024C1F38910105801F01F06AE
:1048B0000125B54000EA050302EB91500068C1F301
:1048C00004460125B54000EA050414B10BB10120EE
:1048D00070BD0020FCE7C26822F4C062C260C268FA
:1048E0000A43C26070470A460021C16821F00401F2
:1048F0001143C1607047026922F4405202610269AB
:104900000A43026170470A460021C16821F008018C
:104910001143C1607047C26822F48052C260C2680D
:104920000A43C2607047000030B587B004460D46A8
:104930000120A04025490978084008B107B030BDE2
:10494000234931F81400FFF79FFB44BB85B940F2BF
:104950000260FFF799FBA0231C2218211D48FEF7D7
:1049600017FE4023022204211A48FEF711FE0FE031
:1049700040F20360FFF788FB28231C221821164809
:10498000FEF706FE1023022204211348FEF700FE64
:104990000120A0400D49097808430C490870684679
:1049A000FFF7C9FB4FF4827000904FF40070039042
:1049B0000A4951F824006946FFF7A4FB074951F85A
:1049C0002400FEF78BFE00BFB8E700007A0000204D
:1049D0007400002000080140000C01406800002025
:1049E00010B500210846FFF79FFF40F20260FFF775
:1049F0004BFB10210448FEF77DFD102302221946CF
:104A00000148FEF7C5FD10BD0008014010B520218A
:104A10000148FEF76FFD10BD0010014010B50446BF
:104A2000312C02D100F04EF80DE0322C02D100F012
:104A30003FF808E0332C02D100F0B4F803E0342C46
:104A400001D100F0B9F8214601A0FBF7FDFB10BD34
:104A50007774353838645F636F6E74726F6C2020C2
:104A6000627566203D2025640D0A000010B540F2F5
:104A70000360FFF709FB40F20460FFF705FB032327
:104A8000022210210848FEF783FD03210648FEF7A5
:104A900031FD2023022210210448FEF779FD202158
:104AA0000248FEF727FD10BD000C01400010014038
:104AB00010B503490978491EC8B200F00DF810BDC1
:104AC0007C00002010B503490978491CC8B200F0E9
:104AD00003F810BD7C00002010B504461E2C00DD3C
:104AE00010BDFFF701FB204600F006F801480470F6
:104AF00000BFF5E77C00002070B5054600BF02212D
:104B00001F48FEF7F7FC00BF0A20FDF743FBFFF745
:104B10007DFF0120FDF73EFB002424E00120A040A2
:104B2000284030B100BF01211548FEF7E3FC00BF6B
:104B300006E000BF01211248FEF7DCFC00BF00BF09
:104B40009620FDF731FB00BF20210E48FEF7D2FC76
:104B500000BF9620FDF728FBFFF758FF3220FDF736
:104B600023FB601CC4B2082CD8DB00BF0221044820
:104B7000FEF7C0FC00BF0120FDF70CFB70BD00007C
:104B8000000C01400010014010B50446E72C06DC83
:104B9000E02C04DB2046FFF7AFFF0148047010BD96
:104BA0007D00002010B503490978491CC8B2FFF701
:104BB000EBFF10BD7D00002010B503490978491EA8
:104BC000C8B2FFF7E1FF10BD7D00002010B500293D
:104BD0000AD00878002807D005487844FCF782FA04
:104BE000002801D0002010BD0248784410BD00000C
:104BF000620900005A090000491058BFC1F1404144
:104C00005B1058BFC3F140438B42EFF30080704705
:104C100051EA030C17D41CF5801F58BFBCF5801F48
:104C200000F10680994218BF704708BF9042704754
:104C300007D711F5801F58BF13F5801F19D499426B
:104C40007047894270471CF5801F08D5BCF5801F4E
:104C5000F7D58B4218BF704708BF824270474FF4A8
:104C6000001C1CEB410F38BF1CEB430F01D28B42E1
:104C7000704770B500F008F8922449004FF00051D9
:104C80004FF08053FFF7B8BF0EF1020E2EF0030E67
:104C90005EF8046B364205D4012A43EB030515F593
:104CA000001F12D8012841EB010C1CF5001F0CD885
:104CB0000ED14FEAD17C15F5001F0CEB4C0C0CF11A
:104CC000020C08BF4CEBD37C04E04FF0080C01E071
:104CD0004FEAD37C0CEB4C0526FA05F606F00706E6
:104CE000B6F1040C06D20EEB860CBDE870404CF019
:104CF000010C6047DFE80CF0090B02024FF00041A5
:104D00004FF00000A1F5002170BD194610460128A2
:104D100051EB010418BFD4F5001484BF002001F04A
:104D2000004170BD0808A0F500114FEA310170473D
:104D300043004FEAD30C4FEA3C0C43401FBF4007EF
:104D40000CF1605113F0FE4F70471CF0006F03D15F
:104D500000200CF0004170470CF0004343EA507013
:104D600010B540EACC0000F0C8F900BF0000009286
:104D70004FEA0001FFF7D6BF4FF000414FF00000AF
:104D8000A1F500217047000090EA010F48BF81F0B3
:104D9000004100F10482421A3CBF801A89184FEA90
:104DA000D0524FF07F4C1CEA410FA2EBD15318BFF9
:104DB0009CEA026F00F03B804FF0004C4CEA002070
:104DC0004CEA012121FA03FC10EB0C0C1ED202F17B
:104DD000FF325FEA1C2040EBC25038BF70471CF026
:104DE0007F0F4FEA400C18BFBCF17F4F38BF7047B0
:104DF000C3F12003994008BF20F00100BCF17F4FB0
:104E000038BF7047A0F1C04000F0BDB94FEA3C0088
:104E1000000A40EBC25028BF1CF0FF0F4FEA400CC5
:104E2000E6D018BFBCF17F4F38BF7047EAE79CEA75
:104E3000026F05D010EA5C0F08BF00F00040704719
:104E400010B500F05AF900BF64FBBE3E4FF47F0C72
:104E50001CEAD0121EBF1CEAD11392EA0C0F93EA8F
:104E60000C0F00F0858090EA010F48BF42F4807279
:104E700040F4000C41F400002CF07F4120F07F4012
:104E800000B58142A2EB03020FF2081CACEB504EBE
:104E9000C0F100009EF800E04FEA4E0E00FB0EFC51
:104EA00038BF49004FEA2C1C02F5FA020CFB0EF346
:104EB0004FEACE1E4FEA112C4FEAC1210EEB635E82
:104EC00042EB22420EFB0CFC4FEA1C5300FB031189
:104ED0004FEA112C4FEA01310EFB0CFC4FEADC4C7F
:104EE00000FB0C11C14228BF09184CEB03335DF8DD
:104EF00004EB10EB410143EBC250B2F57C0F38BF1D
:104F0000704729D512F0F00F1CBF00F1C04000F02F
:104F100000407047008182838485868788898B8CD6
:104F20008D8E8F919293959697999A9C9D9FA0A212
:104F3000A3A5A7A8AAACAEB0B2B3B5B7B9BCBEC062
:104F4000C2C5C7C9CCCED1D4D7D9DCDFE2E6E9EC03
:104F5000F0F3F7FAFE0000004FEA400C0CF1807C01
:104F6000BCF17E4F28BF7047B0F1C04000F00BB9D4
:104F700090EA010F0CEAD11348BF42F480726245F7
:104F800038BF634507D213F47F0F16D080EA0100C3
:104F900000F00040704710B500F0AFF8097EFC3E0D
:104FA00000F005B880EA010000F00040704780EA98
:104FB000010000F0004000F0E6B812F47F0F04BFDB
:104FC0000248704780EA010000F0DDB80000C07FB1
:104FD000B0FA80F310FA03F2C3F19D030AD0D905A9
:104FE00001EB1220530638BF704700F1010008BFE3
:104FF00020F00100704700004FF47F0C1CEAD01233
:105000001EBF1CEAD11392EA0C0F93EA0C0F00F0BA
:10501000478090EA010F48BF42F480724FF0004C85
:105020004CEA00204CEA012102EB0302A0FB011331
:10503000A2F50002002918BF43F001035B0028BF5E
:105040004FEA330342EB22425FEA132C4CEBC2508F
:105050002EBFBCEB436FB2F57C0F70474FEA036C79
:10506000BCF1004F08BF20F00100B2F57C0F38BF43
:1050700070470BD582F0FF0212F5803FC8BF704722
:1050800000F1C040D8BF00F00040704700F5000CB0
:105090005FEA4C0C48BF7047B0F1C04000F073B8F5
:1050A00090EA010F0CEAD11348BF42F480726245C6
:1050B00038BF634504D280EA010000F00040704729
:1050C00010B500F01AF800BF8900013E00F007B8E3
:1050D00000F009B85FEA410C5FEA1C6C08D080EA76
:1050E000010000F050B85FEA400C5FEA1C6CF6D19A
:1050F0004FF00040A0F5800070470EF1020E2EF038
:10510000030E5EF8044B244204D44FEA4102B2F18C
:105110007F4F11D84FEA4003B3F17F4F0CD80ED127
:105120004FEAD07CB2F17F4F0CEB4C0C0CF1020C2F
:1051300008BF4CEBD17C04E04FF0080C01E04FEAD3
:10514000D17C0CEB4C0324FA03F404F00704B4F113
:10515000040C06D20EEB840CBDE810404CF0010CA0
:105160006047DFE80CF0070802024FF00040A0F5AE
:10517000800010BD0846420018BFD2F1807288BF7F
:1051800000F0004010BDFF2141EAD050C00570473B
:1051900090EA010F48BF81F000413FF5FCAD421A93
:1051A00004D882F00042A0EB020011444FEAD05232
:1051B0004FF07F4C1CEA410FA2EBD15318BF9CEA81
:1051C000026F4AD04FF0004C4CEA00204CEA01211B
:1051D00021FA03FCB0EB0C0C0FD412F0FE0F36D00A
:1051E0005FEA4C001DD5001240EBC25038BF70473B
:1051F0001CF03F0F18BF70470BE0A2F101025FEAFD
:105200001C2040EBC25038BF70471CF07F0F18BF06
:105210007047C3F12003994014BF401E20F00100E5
:10522000704780084FEA122308BF7047B0FA80FC2D
:10523000A2EB0C02CCF1280C60FA0CF093EA122FCE
:1052400004BF00EBC25070474FEAC3707047130AA7
:105250005FEADC1008BF7047F6E79CEA026F04D0F3
:1052600010EA5C0F08BF0020704710B5FFF745FF3C
:1052700040DFF63E81F000407047FBF7CCBA493280
:10528000635F577269746542797465008130000804
:10529000913C0008000000007D330008E52B000869
:1052A0004D370008553000080E06110700020000B7
:1052B0000400000000040000080000000008014095
:1052C000000801400206020625000000260000003A
:1052D0000505000000380140004400406765745F28
:1052E00073687433305F746D705F7461736B0073D7
:1052F000797374656D5F706F7765725F6F6E00694B
:10530000725F697271395F6465746563745F74613B
:10531000736B0030313233343536373839414243DC
:105320004445464030580030313233343536373812
:1053300039616263646566403078000400000800EB
:105340000000000000000200010000100240000008
:10535000000000A00000000005400000000000C8A0
:10536000000000000C4000000000409C0000000015
:10537000194000000020BCBE0000000034400000C6
:10538000BFC91B8E00000004B5400000504BCFD0B9
:105390006607E2CF010000006C4100003E8251AA86
:1053A000DFEEA73401000000D9420000DCB5A0E226
:1053B0003A301F97FFFFFFFFB4450000FD25A0C84E
:1053C000E9A3C14FFFFFFFFFFF3F00000000008087
:1053D00000000000FF3F000000000080000000000F
:1053E0003A7474003A7474003A7474004275696CCB
:1053F0006474696D65203A41756720313820323018
:1054000032322031313A34303A3132004445565F3D
:10541000564F4C5F4C453330200000004445565FEA
:10542000564F4C5F4C453336200000004445565FD4
:1054300043484152474500004445565F504F574549
:10544000524F4646000000004445565F4255470013
:105450004445565F4348415247455F4F4B0000006B
:105460004445565F52554E5F4E4F524D414C0000E1
:105470004445565F45585445524E5F504F5745522C
:10548000000000004552524F52203A2069725F6975
:105490007271395F6465746563745F7461736B20E6
:1054A00064657465637420646576696365206F66FE
:1054B000662032206D696E732C616E64207379737F
:1054C00074656D2020676F20746F20706F77657230
:1054D0006F66660D0A0000004552524F52203A2076
:1054E00069725F697271395F6465746563745F7452
:1054F00061736B20646574656374206465766963A9
:1055000065206F6666202C616E6420706F7765720F
:105510006F6666206C617365720D0A00585500084D
:1055200000000020900000006C010008E855000811
:105530009000002080410000880100081C0000004D
:1055400043000000F8FFFFFF0C0000000E00000009
:105550000F0000002E00000000000000EC530008C7
:10556000000000000000000000000000000000003B
:10557000485400080C540008385400081C54000813
:10558000605400082C54000850540008705400085F
:10559000000000000000000000007F00000000008C
:1055A00000000000000000000000000000000000FB
:1055B000000300001A0005000000000000000000C9
:1055C0000030014000380040003C00400C060E074F
:1055D0000F07000000E0000000A24A0400000000E5
:0855E0000000000000000000C3
:0400000508000131BD
:00000001FF
