:020000040800F2
:10000000902000204501000809110008E50C0008B7
:1000100005110008210900089516000800000000DD
:10002000000000000000000000000000E9120008CD
:100030000D0C0008000000002D11000865130008D9
:100040005F0100085F0100085F0100085F01000810
:100050005F0100085F0100085F0100085F01000800
:100060005F0100085F010008950C00085F010008AF
:100070005F0100085F0100085F0100085F010008E0
:100080005F0100085F0100085F0100085F010008D0
:100090005F0100085F0100085F010008970C00087D
:1000A0005F0100085F0100085F0100085F010008B0
:1000B0005F0100085F0100085F0100085F010008A0
:1000C0005F0100085F0100085F0100085F01000890
:1000D0005F010008A1150008DD1500085F01000898
:1000E0005F0100085F0100085F0100085F01000870
:1000F0005F0100085F0100085F0100085F01000860
:100100005F0100085F0100085F0100085F0100084F
:100110005F0100085F0100085F0100085F0100083F
:100120005F0100085F0100085F0100085F0100082F
:10013000DFF80CD000F03CFB004800478533000896
:10014000902000200648804706480047FEE7FEE76B
:10015000FEE7FEE7FEE7FEE7FEE7FEE7FEE7FEE777
:100160006D1300083101000840EA01039B0703D02A
:1001700009E008C9121F08C0042AFAD203E011F8E6
:10018000013B00F8013B521EF9D27047D2B201E0A8
:1001900000F8012B491EFBD270470022F6E710B58C
:1001A00013460A4604461946FFF7F0FF204610BDE5
:1001B0002DE9FE4F804681EA0300C00F0C460090F7
:1001C00021F0004123F00045B8EB0200A94105D21F
:1001D0004046214690461C460B46024623F000400E
:1001E000104347D0270DC7F30A00C3F30A5102900A
:1001F000401A019040286BDAC3F3130040F4801BCF
:100200000098924620B10023D2EB030A63EB0B0B5C
:1002100001985946C0F14002504600F0E4F9064604
:100220000D4650465946019A00F0ECF910EB0800D3
:100230006141002487EA115284EAE7731A4340D0EF
:10024000009A62B3019A012A4FEA075215DC001B9B
:1002500061EB02014FF0004202EA0752CDE9004291
:10026000001C41F5801132462B4600F023FA03B002
:10027000BDE8F08F40462146F9E7001B61EB020123
:10028000001C41F5801300185B412018A2F50017EF
:1002900047EB030140EAD570B6196D4111E06D08D6
:1002A0004FEA360645EAC0754FEA0752001B61EB7C
:1002B0000201001C41F5801149084FEA3000001985
:1002C000514132462B4603B0BDE8F04F00F0E3B990
:1002D0000098012240000023D0EB020263EBE073A0
:1002E000009821464FEAE074B8EB000061EB04018E
:1002F000E9E783F000435BE781F0004158E72DE92F
:10030000FE4F81EA030404F0004421F00041009410
:100310004FF0000B23F0004350EA01045ED052EA94
:1003200003045BD0C3F30A54C1F30A552C44A4F26E
:10033000F3340194A0FB0254C1F3130141F4801182
:10034000C3F3130343F4801301FB024400FB034E89
:10035000840A970A44EA815447EA8357A4FB076852
:1003600002958D0A05FB07854FEA932C04FB0C547C
:100370002705029D4FEA065847EA1637B5EB0805F0
:100380006EEB070C870E920E47EA811742EA831242
:10039000A7FB0201B6EB0B0164EB00042B0D43EA53
:1003A0000C335E1844EB1C50DA465146E7FB020161
:1003B000C5F313044FEA0B3343EA14534FEA0432F4
:1003C000019C43EA0603A4F10C040294009CCDE9CD
:1003D00000B400F06FF903B0BDE8F08F00200146D3
:1003E000F9E72DE9F04D81EA030404F0004B21F018
:1003F000004514464FF0000A23F0004150EA050280
:1004000020D054EA01021DD0C5F30A570246C5F3B5
:100410001303C1F31300C1F30A5640F4801543F4EB
:100420008013A7EB0608101BD64608F2FD3873EBC5
:10043000050002D308F1010801E092185B41B8F110
:10044000000F03DA00200146BDE8F08D00204FF4D4
:100450008011064684460EE0171B73EB050705D393
:10046000121B63EB050306434CEA010C49084FEAF3
:10047000300092185B4150EA0107EDD152EA0300C7
:1004800012D082EA040083EA0501084305D0101B5C
:10049000AB4106D20122002306E000224FF00043C8
:1004A00002E06FF0010253101AEB06004CEB08510A
:1004B00010EB0A0041EB0B01BDE8F04D00F0EBB88A
:1004C00096230022114600F0B8B800F0004230F048
:1004D00000400AD0C10D01F56071C0F3160042EA78
:1004E0000151C20840071143704700200146704780
:1004F00030B5041E71F1000404DB4FF000444042AB
:1005000064EB0101141E73F1000405DB1C464FF07F
:100510000043524263EB04038B4208BF824230BD6A
:1005200001F0004330B421F0004150EA010206D04E
:100530000A0DA2F56072C1F31301002A02DC30BC7F
:1005400000207047440F44EAC104C100E01830BCE9
:1005500000EBC25000F068B830B50B4601460020F1
:100560002022012409E021FA02F59D4205D303FA75
:1005700002F5491B04FA02F52844151EA2F10102F6
:10058000F1DC30BD2DE9F05F0546002092469B4628
:1005900088460646814640241BE028464146474699
:1005A000224600F017F953465A46C01A914110D31B
:1005B00011461846224600F016F82D1A67EB01087E
:1005C0004F4622460120002100F00DF817EB0009EC
:1005D0004E41201EA4F10104DFDC484631462A4684
:1005E0004346BDE8F09F202A04DB203A00FA02F1DE
:1005F000002070479140C2F1200320FA03F3194311
:1006000090407047202A06DBCB17203A41FA02F0CF
:1006100043EAE07306E041FA02F3D040C2F120025F
:1006200091400843194670470029A8BF7047401CF5
:10063000490008BF20F00100704710B4B0FA80FCF8
:1006400000FA0CF050EA010404BF10BC704749B135
:10065000CCF1200421FA04F411FA0CF118BF0121A5
:1006600021430843A3EB0C01CB1D4FEA00614FEA85
:10067000102042BF002010BC704700EBC350104454
:100680000029A4BF10BC7047401C490008BF20F0DF
:10069000010010BC704710B5141E73F1000408DA95
:1006A000401C41F1000192185B411A4301D120F036
:1006B000010010BD2DE9F04D92469B4611B1B1FAF3
:1006C00081F202E0B0FA80F220329046FFF78BFF11
:1006D00004460F4640EA0A0041EA0B0153465A46D7
:1006E000084313D0114653EA010019D0C8F1400263
:1006F000504600F06FF805460E46504659464246B1
:10070000FFF771FF084305D0012004E02046394679
:10071000BDE8F08D0020054346EAE0762C433743E0
:100720000A986305E40AA0EB08000022FD0A44EAE7
:1007300047540A3002D500200146E9E701051019A7
:100740006941DDE9084500196941BDE8F04DA2E7BE
:10075000C1F30A52C1F3130140F2FF3341F4801197
:100760009A4202DA00200146704740F233439A422F
:10077000A2F2334202DC524200F02CB8FFF733BF42
:1007800030B5041E71F1000404DB4FF00044404218
:1007900064EB0101141E73F1000405DB1C464FF0ED
:1007A0000043524263EB0403994208BF904230BDBC
:1007B000064C074D06E0E06840F0010394E80700AE
:1007C00098471034AC42F6D3FFF7B6FCF04300086C
:1007D00010440008202A04DB203A21FA02F000210C
:1007E000704721FA02F3D040C2F120029140084341
:1007F0001946704710B540F2096002F075FF0520F8
:1008000002F0BCFE01221102174801F0AEFC4FF4C9
:10081000E0420221144801F037FC0021124801F0A7
:1008200000FC002001F084FC012202210E4801F0AE
:10083000D5FB0623002211460B4801F03DFC0122A6
:100840000221094801F001FC01F0BCFC064801F05E
:10085000F3FB012000F0DCF9034801F0AAFB0221C0
:10086000014801F073FC10BD00240140014602481C
:10087000006880B2704700003C24014010B50020A1
:10088000FFF7F4FF00EB001000EB4002D01702EB83
:100890009050841200BF05A000F0FEFE214607A084
:1008A00000F0FAFE00BF204610BD00003C3C4D5950
:1008B0005F44454255473E3E2000000041444367A7
:1008C0006574426174566F6C203D2025640D0A00EA
:1008D00010B500F035FC4FF4A06002F005FE4FF4B7
:1008E000C06002F001FF01210C4802F09FF900F006
:1008F0006FFD4FF4E131002001F0D8FF00F08AFCD9
:1009000002F0EAFB01F0B8FF00F0E6FBFFF772FF30
:1009100002F02EFB02F0D2F910BD00000002300000
:1009200000BFFEE77047000010B50A4803F098FAD0
:10093000C4B2094801780078401C074A1070074883
:10094000445410460078202802DB0020114608702D
:1009500010BD000000440040460000206C00002054
:100960002DE9F041054667480078002871D1422DF5
:1009700072D012DC342D60D008DC302D26D0312D21
:100980002AD0322D3CD0332D19D144E0352D55D00D
:10099000362D58D0412D12D157E0622D5BD008DCA6
:1009A000432D5ED0442D61D04D2D64D0612D06D1F4
:1009B0004AE0632D54D0642D57D06D2D5AD029466E
:1009C00051A000F069FE01F0D7FC00BF5848016853
:1009D00058A000F061FE52E001F0F4FF06463146F7
:1009E00056A000F059FE002407E05A48025D214657
:1009F00059A000F051FE601CC4B2072CF5DB3EE0AC
:100A00005B480068FFF761FD064632460B4659A079
:100A100000F042FE33E002F015FB0646314659A0D5
:100A200000F03AFE02F044F8401E644951F820609C
:100A3000314663A000F030FE21E020E066A167A00F
:100A400000F02AFE1BE01AE000BF01202D490870CB
:100A500015E015E000E000BF02202A4908700EE012
:100A600000BF04202749087009E000BF0520254980
:100A7000087004E000BF03202249087000BF3FE077
:100A800020480078012807D10121284602F0F4FA15
:100A900000201C49087033E01A480078022807D16A
:100AA0000021284602F0E8FA00201649087027E0E5
:100AB00014480078032806D1284603F0BBFA00202A
:100AC000104908701CE00F480078042806D1284619
:100AD00002F0EAFB00200B49087011E00948007899
:100AE00005280AD1302D02D102F042FF01E002F0C8
:100AF00055FF00200349087002E0002001490870FA
:100B0000BDE8F081380000204552524F523A204350
:100B10006F6D6D616E6420556E6B6E6F7720636DC7
:100B200064203D20307825782121210D0A00000025
:100B30000400002025730D0A000000006C6173653D
:100B4000722061726561203D2030782578200D0A81
:100B5000000000003A0000206C617365722070771D
:100B60006D5B25645D203D202564200D0A0000009A
:100B70005C00002074656D70203D2025302E3266AB
:100B80000D0A0000757362206368617267652073E7
:100B9000746174757320256428303A6E6F20636821
:100BA000617267652C313A6368617267696E672CA0
:100BB000323A66756C6C290D0A000000180000209E
:100BC00073797374656D2072756E207374617475BA
:100BD00073202573200D0A006F66660057617463E9
:100BE0006820446F6720537461747573203D20251D
:100BF000730D0A0010B5044803F032F9C4B2204660
:100C0000FFF7AEFE10BD0000003801407047000045
:100C10000349086000BF024909680029FBD17047F9
:100C20000C000020F0B5034600224FF0E0277D695C
:100C3000104F3F68DFF840C0B7FBFCF7FEB203FB84
:100C400006F44FF0E027B96910E04FF0E027B869EB
:100C500088420BD0884202D20F1A3A4402E02F1A7F
:100C60000F443A440146A24200D300E0EDE700BF42
:100C7000F0BD00006400002040420F0004480068FE
:100C800020B103480068401E014908607047000019
:100C90000C000020704710B54FF4007001F0D0FD3B
:100CA00030B14FF4007001F0C5FD02F05BF908E0CF
:100CB0004FF4004001F0C4FD18B14FF4004001F0C2
:100CC000B9FD10BD10B50121014801F001FF10BDB3
:100CD0000008014010B50121014801F0FBFE10BDE4
:100CE0000008014000BFFEE770B504460D462946E6
:100CF000204600F0D3F8204600F038F990B100BF4C
:100D0000094B4FF4857209A10BA000F0C5FC2A46DF
:100D10002146124800F0C0FC00BF204600F006F952
:100D2000032070BD0020FCE7A04100087372635CE3
:100D30006969632E630000003C3C46696C653A2596
:100D40007320204C696E653A2564202046756E63D9
:100D500074696F6E3A25733E3E20000078420008A9
:100D600010B504460021204600F05EF9204600F050
:100D7000DBFA0021204600F083F90420FFF752FF40
:100D80000121204600F050F90620FFF74BFF00211B
:100D9000204600F049F90320FFF744FF10BD000092
:100DA00070B5054640F2036002F09EFC012D02D1B1
:100DB0004FF4406405E0022D02D14FF4407400E08E
:100DC000C024234602221021054801F0D1FE012152
:100DD000284600F029F90121284600F051F970BD9C
:100DE000000C014010B504460021204600F01CF91B
:100DF000204600F099FA0121204600F041F9042034
:100E0000FFF710FF0121204600F00EF90620FFF742
:100E100009FF0021204600F007F90320FFF702FF39
:100E200010BD2DE9F04107460D460024002138464B
:100E300000F0FAF8384600F059FA0320FFF7F2FE06
:100E400000261EE00021384600F0EEF80520FFF7EE
:100E5000E9FE0121384600F0E7F86006040E0420A0
:100E6000FFF7E0FE384600F0BDF908B1601CC4B2DF
:100E70000420FFF7D7FE0021384600F0D5F8701C9B
:100E8000C6B2082EDEDB1DB93846FFF7ABFF02E025
:100E90003846FFF765FF2046BDE8F08170B506468D
:100EA0000C460021304600F0BFF8304600F03CFA16
:100EB00000251CE00320FFF7B5FE04F0800130465A
:100EC00000F0DEF86006040E0420FFF7ABFE0121FF
:100ED000304600F0A9F80620FFF7A4FE00213046B6
:100EE00000F0A2F80320FFF79DFE681CC5B2082D94
:100EF000E0DB70BD10B504460121204600F0C0F8CB
:100F0000204600F011FA0121204600F08DF804205F
:100F1000FFF788FE0021204600F0B2F80620FFF718
:100F200081FE0021204600F07FF810BD10B5044678
:100F30000021204600F078F8204600F0F5F9002165
:100F4000204600F09DF80620FFF76CFE01212046A8
:100F500000F06AF80320FFF765FE0121204600F04B
:100F60008FF80620FFF75EFE10BD000070B5054645
:100F700000240021284600F057F80320FFF752FE16
:100F80000121284600F07CF80320FFF74BFE28469D
:100F900000F0ACF90121284600F046F80320FFF7E5
:100FA00041FE0EE0601CC4B2FA2C07DD2846FFF7B4
:100FB000BDFF0BA000F070FB012070BD1420FFF7F7
:100FC00031FE284600F00EF90028EBD1002128461A
:100FD00000F02AF80320FFF725FE0020EDE70000CF
:100FE0004552524F523A204949435F576169745FF5
:100FF00041636B0D0A00000010B504460120A040BB
:1010000008490978084000B110BD2046FFF7C8FE26
:101010000120A0400349097808430249087000BF35
:10102000F2E700000000002070B505460C46012DD7
:101030000BD124B18102114801F04CFD1DE04FF4A9
:1010400080610E4801F044FD17E0022D0BD124B160
:10105000E9010A4801F03EFD0FE04FF480710748B6
:1010600001F036FD09E024B18021044801F032FD91
:1010700003E08021014801F02BFD70BD000C014010
:1010800070B505460C46012D0BD124B1C1021148A3
:1010900001F020FD1DE04FF400610E4801F018FD45
:1010A00017E0022D0BD124B129020A4801F012FDEC
:1010B0000FE04FF40071074801F00AFD09E024B188
:1010C0004021044801F006FD03E04021014801F001
:1010D000FFFC70BD000C014010B540F2026002F050
:1010E00003FB032302221021054801F041FD0221E8
:1010F000034801F0EDFC0121014801F0E9FC10BDBD
:101100000008014000BFFEE77047000010B5022153
:10111000014801F0DDFC10BD0008014010B50221BE
:10112000014801F0D7FC10BD0008014070470000E5
:1011300010B50821014801F0CBFC10BD00100140A2
:1011400010B540F2036002F0CFFA40F2046002F002
:10115000CBFA4FF4C04302221021204801F008FDD1
:101160004FF400511D4801F0B3FC4FF480411B487F
:1011700001F0B0FC08211A4801F0ACFC082302225F
:101180001021174801F0F4FC4FF48053022204218F
:10119000124801F0EDFC802302220421104801F0E6
:1011A000E7FC4023022248210D4801F0E1FC4FF406
:1011B000004302221021094801F0DAFC4FF40041FB
:1011C000064801F085FC1021054801F081FC102340
:1011D00002221946024801F0CBFC10BD000C014070
:1011E0000010014010B50446012C04D1C10208488A
:1011F00001F014FD10BD022C04D12102044801F0BD
:101200000DFDF7E74021024801F008FDF2E700007C
:10121000000C014010B50020FFF7EEFE10BD0000ED
:101220002DE9F04F89B082460020FFF763FE0120D0
:1012300000EB4A00C1B20020FFF756FD0790079867
:1012400088BB01210020FFF7ECFDADF81000002164
:101250000846FFF7E6FDADF812000020FFF766FE36
:10126000BDF81200BDF8101040EA01201FFA80FB03
:101270005846FFF725F90190FFF727F90022164B92
:10128000CDE90201FFF73BF806460022134BFFF7BA
:10129000A8F804460022124BFFF72BF88046FFF710
:1012A0003FF9104908600020FFF724FE8821002044
:1012B000FFF71AFD07902C210020FFF715FD07907E
:1012C00006210020FFF710FD07900020FFF72EFEFB
:1012D00009B0BDE8F08F000000E06540E0FFEF409E
:1012E000008046405C0000207047000010B50446B6
:1012F000012C06D1C302022248210A4801F038FC21
:101300000EE0022C06D1230202224821054801F0FA
:101310002FFC05E0402302224821024801F028FC6E
:1013200010BD0000000C014010B50446012C06D190
:10133000C302022210210A4801F01AFC0EE0022C1E
:1013400006D1230202221021054801F011FC05E01C
:10135000402302221021024801F00AFC10BD0000C7
:10136000000C014010B500F05BF810BD10B514483A
:10137000006840F0010012490860084640681149C1
:1013800008400F494860084600680F4908400C496A
:1013900008600846006820F480200860084640681D
:1013A0000A4908400649486008460068064908405E
:1013B000034908604FF41F00886002F035FA10BD41
:1013C000001002400C00FFE8FFFFF6FEFFFF00F7F1
:1013D00010B5124800684FF47A71B0FBF1F4601E4A
:1013E000B0F1807F01D301200FE0601E4FF0E021BB
:1013F00048610F214FF0FF3000F05EF900204FF000
:10140000E021886107200861002008B100BFFEE7E5
:101410000021481E00F050F910BD000064000020BB
:1014200010B530480068401C2E490860FFF726FCC4
:101430002C4800680A21B0FBF1F201FB120028B928
:101440002948008840F001002749088025480068A5
:101450003221B0FBF1F201FB12000F2805D1224826
:10146000008840F010002049088001F021FB03288B
:1014700036DD1D48008840F002001B4908801948ED
:1014800000684FF47A71B0FBF1F201FB120040F2F8
:101490009A21884205D11448008840F0080012497A
:1014A0000880104800686421B0FBF1F201FB1200D3
:1014B0004D2805D10C48008840F020000A490880DA
:1014C000084800684FF4FA71B0FBF1F201FB12001A
:1014D000852805D10448008840F040000249088072
:1014E00010BD0000100000200800002070B52B483F
:1014F0000078401C2949087001F0A4FD0546002D24
:101500001ADD012D13D1FFF701FE244800780528CC
:1015100002DAFFF7DFFB3FE0204800780A2802DA12
:10152000FFF7D0FB38E000201C49087034E0FFF7DB
:10153000D1FBFFF7EBFD2FE001F0BAFA0446032CD4
:1015400007D1002015490870FFF7BCFBFFF7DEFD4F
:1015500070BD052C04D1FFF7BDFBFFF7D7FD1BE0E5
:10156000042C13D1FFF7AEFB0C480078052802DAF3
:10157000FFF7D4FD10E0094800780A2802DAFFF7E7
:10158000C5FD09E000200549087005E0012C03D1E4
:10159000FFF798FBFFF7C2FD00BFD9E74A00002024
:1015A00010B50B490B4802F0F8FC30B1FFF722FBF5
:1015B0000749084802F0E4FC08E00749054802F042
:1015C000ECFC18B10449034802F0DAFC10BD00003D
:1015D00005030500003801400403040010B5174955
:1015E000174802F0DAFC88B1FFF79EF91349144856
:1015F00002F0C6FC13480078F0B94FF4417110486E
:1016000002F0B1FC01200F49087015E00E490C48AA
:1016100002F0C3FC80B1FFF785F90B49084802F0DE
:10162000AFFC0848007838B14FF44171044802F02B
:101630008DFC00200349087010BD00000503050063
:10164000004400404C000020040304007CB5044624
:101650000D460E4903C9CDE90001012C00DD7CBD1A
:101660000120A0400A490978084060B100BF5DF838
:101670002400072102F04BFC0028F8D05DF824007C
:10168000294602F0F2FB00BFE9E70000F84100083C
:101690001400002000BFFEE70FB4054B10B503A9EE
:1016A000044A029800F0EEF810BC5DF814FB00004C
:1016B000652800086800002010B5002804DB0A0730
:1016C000130E054A135406E00A07140E034A00F0ED
:1016D0000F031B1FD45410BD00E400E018ED00E020
:1016E00002E008C8121F08C1002AFAD170477047EB
:1016F000002001E001C1121F002AFBD17047000049
:101700002DE9FF5F82B00021DDE90430020DDDF834
:1017100040B0034318D044F61050A2F2FF324243C7
:101720001514119801281FD0A5EB0B00401C5FEA8F
:10173000000A4FF000064E4FDFF83891B046504691
:1017400015D5CAF1000413E0119801244AA3012819
:1017500001D16FEA0B010298119AC0E90031C0E98A
:10176000024206B0BDE8F09FCBF10000DFE704467F
:101770000021404A491842EB0450CDE9001012E024
:10178000E00707D032463B4640464946FEF7B7FDE4
:101790008046894632463B4610461946FEF7AFFD65
:1017A00006460F466410002CEAD1DDE90401DDE9AC
:1017B0000023BAF1000F06DAFEF7A1FD42464B46C0
:1017C000FEF79DFD05E0FEF70CFE42464B46FEF798
:1017D00008FE04460E460022284BFEF7D1FF03D830
:1017E0004FF0FF30014607E00022254B20463146EE
:1017F000FEF7DEFCFEF7ACFF102409E0002C0ADB4C
:101800000A220023FEF7BEFE039B30321A55641EE7
:1018100050EA0102F2D1641C039AC4F1110314448A
:10182000119A012A03D0012208430DD10AE008438E
:1018300004D000204FF0110B119072E7A3EB0B05C1
:101840006D1E0DE05B4504DD4FF0000205F1010562
:1018500004E003DA4FF00002A5F10105002AECD004
:1018600002981199C0E90231C0E9004579E700000A
:10187000000014400000F03F300000000000F04382
:101880000000E03F2DE9FF4F95B09B468946064694
:1018900000250FE2252877D100242746F84A0121A8
:1018A000059400E0044316F8013F203B01FA03F0E1
:1018B0001042F7D130782A2811D06FF02F033078FA
:1018C000A0F13002092A16D8059A44F0020402EB6E
:1018D000820203EB42021044761C0590EFE759F8B0
:1018E000042B0592002A03DA504244F40054059078
:1018F00044F00204761C30782E2816D116F8010F19
:1019000044F004042A280DD06FF02F023078A0F1A3
:101910003003092B09D807EB870302EB4303C718F1
:10192000761CF3E759F8047B761C30786C280FD0CE
:1019300006DC4C2817D068280DD06A2814D104E0A2
:10194000742810D07A280FD10DE044F400140AE076
:1019500044F4801401E044F440147278824202D1CD
:1019600004F58014761C761C307866280BD013DCC6
:10197000582877D009DC002875D04528F6D04628AD
:10198000F4D047281AD19DE118E0632835D06428A7
:1019900079D0652812D195E1702873D008DC6728CA
:1019A000F1D069286FD06E280DD06F2806D1B5E030
:1019B00073282CD0752875D0782874D05A4617997A
:1019C00090476D1C75E1C4F30250022809D003282A
:1019D0000DD0D9F8001004280DD00D6009F10409CC
:1019E00067E1D9F80010EA17C1E90052F6E7D9F823
:1019F00000100D80F2E70D70F0E719F8041B8DF868
:101A0000001000208DF80100EA46012003E059F89B
:101A100004AB4FF0FF3061074FF0000102D40DE03E
:101A200008F101018846B9420FDA8045F8DB1AF85F
:101A300008100029F4D108E008F10101884681422C
:101A4000FADB1AF808100029F6D105985B46A0EBDE
:101A5000080721463846179A00F094FA284400EB0C
:101A6000080507E04DE029E10DE01AF8010B5A46A0
:101A700017999047B8F10108F7D25B4621463846DE
:101A8000179A13E142E00A220092C4F302524FF087
:101A9000000A022A08D059F804CB032A4FEAEC7155
:101AA0000AD00DE029E02AE009F1070121F0070240
:101AB000F2E802C1914609E00FFA8CFC4FEAEC71A2
:101AC000042A03D14FFA8CFC4FEAEC71002907DAA3
:101AD0000A460021DCF1000C61EB02012D2202E03C
:101AE000220504D52B228DF80420012203E0E20711
:101AF00001D02022F7E7904659E00A2102E01022A7
:101B00000DE010214FF0000A00910BE010224FF081
:101B1000000A44F004040827009203E008224FF072
:101B2000000A0092C4F30252022A05D059F804CBED
:101B30000021032A08D009E009F1070121F007027A
:101B4000F2E802C1914605E01FFA8CFC042A01D19B
:101B50000CF0FF0C4FF00008220728D5702806D0A3
:101B6000009B83F0100353EA0A0305D00EE04022E5
:101B70008DF80420012208E05CEA010206D0302240
:101B80008DF804208DF8050002229046009B83F01A
:101B9000080353EA0A030AD15CEA010201D1620791
:101BA00005D530228DF804204FF001087F1E5828FB
:101BB00004D034A003900EA802900DE036A0F9E7FF
:101BC00053466046009AFEF7DDFC84460398825C2B
:101BD0000298401E029002705CEA0100F0D1029867
:101BE00006A9081A00F1200A600702D524F48034FF
:101BF00000E00127574502DDA7EB0A0000E00020C6
:101C000000EB0A01009005984144401A0590E0035A
:101C100006D45B462146179A059800F0B3F90544AF
:101C2000002706E001A85A46C05D179990476D1C31
:101C30007F1C4745F6DBE0030CD55B462146179A2F
:101C4000059800F09FF9054404E030205A461799A2
:101C500090476D1C0099481E00900029F5DC08E0B3
:101C6000029802995A460078491C029117999047A8
:101C70006D1CBAF10001AAF1010AF1DC65E1000076
:101C80000928010030313233343536373839616252
:101C90006364656600000000303132333435363716
:101CA00038394142434445460000000000F058F9ED
:101CB0000544761C307800287FF4ECAD19B0284636
:101CC000BDE8F08F620700D4062709F1070222F071
:101CD000070CFCE80223E14603F000485FEA080C29
:101CE00002D00FF2702C0DE05FEA045C02D50FF217
:101CF000682C07E05FEAC47C02D00FF2602C01E0A0
:101D0000AFF2700C4FF0FF3823F00043CDF850C015
:101D100065280CD006DC452809D046281DD0472868
:101D20003DD13DE0662818D067287ED138E00021FB
:101D3000112F01DB112000E0781CCDE9000106A97C
:101D40000EA8FFF7DDFCDDE90F010E9A03910021DB
:101D5000009207F1010A04914DE04FF00040009716
:101D6000CDE9011006A90EA8FFF7CAFCDDE90F02B4
:101D700003920E9B11990022DDF80CA000930492AF
:101D800011B9791C00EB010AB7EB0A0004D4C0F1C9
:101D9000FF3007F1010A0490AAEB0700019044E02C
:101DA000012F00DA01270021112F01DD112000E0B1
:101DB0003846CDE9000106A90EA8FFF7A1FCDDE930
:101DC0000F010E9A0391002104910092BA46210757
:101DD0000CD40399514500DA8A46BAF1010F05DDAA
:101DE000009AAAF10101515C302908D0B84202DA08
:101DF00010F1040F06DA0121CDE9011015E0AAF176
:101E00000101E9E7002805DC049901440491AAEBEB
:101E1000000102E0411C514500DD8A460499401A48
:101E2000401C01904FF000400290200704D401981C
:101E3000504501DBCDF8048000208DF84F0002985A
:101E40000DF14F07B0F1004F25D02B200E900298D6
:101E50004FF0020800280CDA404202902D200E902C
:101E600007E00A210298FEF777FB3031029007F86D
:101E7000011DB8F10001A8F10108F2DC0298002868
:101E8000EFD1791E0E980870307800F0200040F0F5
:101E9000450007F8020D12A8C01B00F107081498AE
:101EA000007800B1012000EB0A01019801EBE0711C
:101EB00005984144401A401E0590E00306D45B4655
:101EC0002146179A059800F05DF8054414980078AB
:101ED00018B15A46179990476D1CE00324D55B460C
:101EE0002146179A059800F04DF805441CE0049827
:101EF000002807DBDDE90301884203DD0098405C30
:101F0000179901E0179930205A469047049805F137
:101F10000105401C04900198401E019004D12E2020
:101F20005A46179990476D1CBAF10001AAF1010AAF
:101F3000DDDC05E017F8010B5A46179990476D1C38
:101F4000B8F10001A8F10108F4DC5B462146179ABC
:101F50000598ABE62D0000002B00000020000000DB
:101F60002DE9F041044600251E461746880404D496
:101F700005E039462020B0476D1C641EF9D528467F
:101F8000BDE8F0812DE9F041044600251E4690464B
:101F9000C80301D5302700E02027880404D505E0D8
:101FA00041463846B0476D1C641EF9D52846BDE849
:101FB000F081816841F00801816000BF816801F013
:101FC00008010029FAD1816841F00401816000BF55
:101FD000816801F004010029FAD1704730B5012968
:101FE00002D002291AD10CE0C36A23F47003C36241
:101FF000C36A541E4FF4700505EA04542343C362B8
:102000000DE0836B23F440138363836B541E4FF402
:10201000401505EA04542343836300E000BF00BF7A
:1020200030BD21B1826842F40062826003E08268C0
:1020300022F4006282607047816801F0010119B9E1
:10204000816841F001018160704772B101F00103C4
:102050001BB1836843F48013836001F0020393B1E2
:10206000836843F4004383600DE001F001031BB17A
:10207000836823F48013836001F002031BB183683B
:1020800023F4004383607047012902D0022910D154
:1020900007E0836823F460238360836813438360CD
:1020A00008E0836823F4E04383608368134383601C
:1020B00000E000BF00BF7047F0B50C46876BC7F368
:1020C0000156856B371B07EB8707C7F10F0C1F27DE
:1020D00007FA0CF7BD43371B07EB8707C7F10F075C
:1020E00002FA07F73D4385630A2A0DDA016902EB1C
:1020F000420C072707FA0CF7B94302EB420703FA31
:1021000007F73943016112E0122A10DAC168A2F11F
:102110000A0707EB470C072707FA0CF7B943A2F1A8
:102120000A0707EB470703FA07F73943C160F0BD19
:102130000549096821F47021034A116011460968B4
:1021400001431160704700000424014001F00102C6
:102150001AB1826842F48002826001F002021AB170
:10216000826842F4001282607047AAB101F4807361
:102170001BB1436843F48073436001F480631BB177
:10218000436843F48063436001F00203CBB183688A
:1021900043F00203836014E001F480731BB14368D1
:1021A00023F48073436001F480631BB1436823F41C
:1021B0008063436001F002031BB1836823F00203D4
:1021C000836070470348006840F4000001490860DC
:1021D000704700000824014010B500F033FF20B123
:1021E00018A0FFF759FA01F023FBFEF747FB04465E
:1021F000242C09DD00BF17A0FFF74EFABA221949B7
:1022000019A0FFF749FA1BE01E2C0DDD00BF11A03D
:10221000FFF742FABF22134917A0FFF73DFA00BFAC
:10222000042001F099FA0BE000BF0AA0FFF734FA8E
:10223000C4220C4916A0FFF72FFA00BF01F0F8FAEC
:1022400010BD0000706F7765725F636861726765CB
:102250000D0A00003C3C4D595F44454255473E3E07
:102260002000000046420008257320256420766F78
:102270006C3E33360D0A0000257320256420332E72
:10228000303C20766F6C203C3D332E360D0A00002A
:10229000257320256420766F6C203C3D332E300D55
:1022A0000A00000010B500F003FC044600F0CAFE6E
:1022B00030B12448008810B100202249088010BDA8
:1022C00000F0EAFA01282AD11E480088B0F5967F6E
:1022D00035DC1C480088401C1A49088008460088E4
:1022E000B0F5967F2BDD032C0CDC00BF16A0FFF7AA
:1022F000D3F96E22184919A0FFF7CEF900BF01F0FB
:10230000BDFA1CE000BF10A0FFF7C6F97322124906
:1023100012A0FFF7C1F900BF01F08AFA0FE00948E7
:10232000008860B100BF08A0FFF7B6F980220A4913
:102330000CA0FFF7B1F900BF00200249088000BFE0
:10234000BDE70000480000203C3C4D595F44454239
:1023500055473E3E200000001B4200082573202503
:10236000640D0A0025732025642062746E20726556
:102370006C656173650D0A0010B529A0FFF78CF933
:1023800030A0FFF789F939A0FFF786F940A0FFF7E1
:1023900083F948A0FFF780F94EA0FFF77DF951A01F
:1023A000FFF77AF95EA0FFF777F961A0FFF774F9FC
:1023B0006AA0FFF771F974A0FFF76EF97CA0FFF730
:1023C0006BF986A0FFF768F98BA0FFF765F991A07C
:1023D000FFF762F991A0FFF75FF997A0FFF75CF9AB
:1023E0009CA0FFF759F98BA0FFF756F9A0A0FFF7C3
:1023F00053F9A6A0FFF750F9ABA0FFF74DF9B1A034
:10240000FFF74AF9B2A0FFF747F9B8A0FFF744F980
:10241000C0A0FFF741F9CAA0FFF73EF910BD0000C8
:1024200064656275675F68656C702C706C6561735C
:10243000652075736520736F6D6520636D64730D22
:102440000A000000302E207072696E742070726F66
:102450006772616D206275696C642074696D6520B6
:10246000616E6420646174650D0A0000312E207075
:1024700072696E74206C617365722061726561733C
:102480002070776D2076616C75650D0A0000000084
:10249000322E207072696E74206861742773207404
:1024A000656D70657261747572652076616C7565B5
:1024B0000D0A0000332E207072696E7420757362ED
:1024C00020636861726765207374617475730D0AA7
:1024D00000000000342E206E6F7468696E670D0A6C
:1024E00000000000352E207072696E7420576174F0
:1024F000636820446F6720537461747573286F6636
:10250000662C6E6F7420656E61626C6520746869FC
:10251000732076657273696F6E290D0A00000000E2
:10252000362E206E6F7468696E670D0A0000000019
:102530006D312E206D75736963206F722073706525
:10254000616B657220636F6E74726F6C3A206E659A
:102550007874206F6E650D0A000000006D322E2029
:102560006D75736963206F7220737065616B65723E
:1025700020636F6E74726F6C3A206C617374206F9D
:102580006E650D0A000000006D332E206D757369B5
:1025900063206F7220737065616B657220636F6E6C
:1025A00074726F6C3A20766F6C207570200D0A0083
:1025B0006D342E206D75736963206F7220737065A2
:1025C000616B657220636F6E74726F6C3A20766F08
:1025D0006C20646F776E0D0A0000000041302E20E1
:1025E000656E61626C65206C6173657220617265F5
:1025F0006120300D0A00000041312E20656E6162BD
:102600006C65206C61736572206172656120310DAB
:102610000A0000002E2E2E2E2E0D0A0041362E20EE
:10262000656E61626C65206C6173657220617265B4
:102630006120360D0A00000042302E20646973616B
:10264000626C65206C617365722061726561203017
:102650000D0A000042312E2064697361626C6520AE
:102660006C61736572206172656120310D0A000032
:1026700042362E2064697361626C65206C617365FB
:1026800072206172656120360D0A000063302E20D1
:10269000736574206C617365722070776D203130C2
:1026A00025250D0A0000000063312E20736574207B
:1026B0006C617365722070776D20323025250D0AAC
:1026C000000000002E2E2E2E2E2E0D0A00000000DF
:1026D00063392E20736574206C6173657220707786
:1026E0006D2031303025250D0A00000064302E2089
:1026F0007365742074656D7020636F6E74726F6C97
:10270000206C617365722070776D20656E61626CFC
:10271000650D0A0064312E207365742074656D7038
:1027200020636F6E74726F6C206C617365722070C1
:10273000776D2064697361626C650D0A00000000AA
:102740006F746865722E207072696E742074686987
:10275000732068656C700D0A0000000010B52C4BEA
:102760001B6883432A4C2360231D1B688343241D5D
:102770002360231D1B688343241D2360231D1B68C6
:102780008343241D236011B101290ED105E0204BA4
:102790001B6803431E4C236008E01D4B1B1D1B6878
:1027A00003431B4C241D236000E000BF00BF22B187
:1027B000012A0FD0022A27D119E0154B08331B68D4
:1027C0000343134C08342360231D1B688343241DDB
:1027D00023601AE00E4B08331B6883430C4C08340B
:1027E0002360231D1B680343241D23600DE0084B59
:1027F00008331B680343064C08342360231D1B6801
:102800000343241D236000E000BF00BF10BD000093
:1028100000040140024909688143014A1160704780
:1028200000040140024909680143014A11607047F0
:102830000004014001490860704700001404014091
:1028400001460748006800EA01020548143800689C
:1028500000EA010312B10BB1012070470020FCE730
:102860001404014070B504460D46E1B20020FEF7A5
:10287000EDFE204670BD000010B540F2026000F091
:1028800033FF4FF4004302222821024800F070F980
:1028900010BD00000008014010B54FF4004102488F
:1028A00000F0BCF910BD00000008014070B50446FE
:1028B0000D46344E012C00D1334E0120A040334947
:1028C0000978084000B170BD314931F8140000F0BA
:1028D0000BFF304931F8140000F006FF2E4951F883
:1028E00024302E4951F824000222182100F040F92A
:1028F0002B4951F82430294951F82400022204219F
:1029000000F036F9304601F0B5FA2946304601F0BC
:102910005FFA0021304601F07CFB0021304601F0D7
:1029200068FB0021304601F054FB0021304601F0E5
:1029300005FB0021304601F0F9FA0421304601F090
:1029400050FB0821304601F05CFB304601F0DAFA1A
:1029500040F20531304601F006FB124B1B5D03F0DF
:102960000302104B1B5D99100F4B13F8240000F06D
:1029700065FD0120A0400549097808430349087016
:1029800000BFA0E7003801400044004014000020D0
:10299000E8410008CC410008D0410008E0410008AF
:1029A000D8410008F4410008EC41000810B540216E
:1029B000034800F033F908B9012010BD0020FCE7FE
:1029C00000100140014800787047000042000020DC
:1029D00070B54420FEF724FC2D480078002856D01E
:1029E0002C480068FDF771FD044600222A4BFDF7D4
:1029F0007FFD03D20A2000F0B1FD48E025480068C1
:102A0000FDF763FD04460022244BFDF771FD03D260
:102A1000072000F0A3FD3AE01E480068FDF755FDD1
:102A2000044600221E4BFDF763FD03D2052000F093
:102A300095FD2CE017480068FDF747FD044600228D
:102A4000184BFDF755FD03D2032000F087FD1EE073
:102A500010480068FDF739FD04460022124BFDF7CF
:102A600047FD03D2022000F079FD10E0094800681C
:102A7000FDF72BFD044600220C4BFDF739FD03D278
:102A8000012000F06BFD02E0002000F067FD70BD4A
:102A9000600000205C00002000003E4000804140BB
:102AA000000044400080464000004840000049408B
:102AB00001480078704700004B00002010B54FF42B
:102AC0008051024800F0AAF810BD0000000C01403F
:102AD000416170470161704710B500228B071C0FE0
:102AE0000F2303FA04F204290EDA204B9B68934368
:102AF0001E4CA36023469B688C07240F00FA04F445
:102B000023431A4CA3602FE008290EDA174BDB6829
:102B10009343164CE3602346DB688C07240F00FACE
:102B200004F42343114CE3601EE00C290EDA0F4B32
:102B30001B6993430D4C236123461B698C07240FAB
:102B400000FA04F42343094C23610DE0074B5B6951
:102B50009343064C636123465B698C07240F00FA9C
:102B600004F42343014C636110BD000000000140E8
:102B7000F0B5044616460025002201F00F0501F0CD
:102B8000100707B1354300201EE0012787401F4092
:102B9000C7B122684FEA800C0F2707FA0CF7BA4337
:102BA000870005FA07F73A43282904D1012787400F
:102BB0001F40676105E0482903D1012787401F4076
:102BC00027612260471CB8B20828DED3082022E023
:102BD000012787401F40E7B16268A0F108074FEA6C
:102BE000870C0F2707FA0CF7BA43A0F10807BF00BC
:102BF00005FA07F73A43282904D1012787401F40E7
:102C0000676105E0482903D1012787401F402761FC
:102C10006260471CB8B21028DAD3F0BD0246906853
:102C2000084008B1012070470020FCE7F0B50A46D3
:102C3000002300240021002500F00046B6F1004FDB
:102C400002D11D4EF16901E01B4E7168C0F30345CE
:102C500083B200F44016B6F5401F08D121F0706130
:102C6000154E766826F07066134F7E6012E000F411
:102C70008016B6F5801F06D1032606FA05F4A14397
:102C800041F0706106E0460D360103FA06F6B143E5
:102C900041F0706122B1460D360103FA06F6314368
:102CA00000F00046B6F1004F02D1034EF16101E0A1
:102CB000014E7160F0BD00000000014010B540F20F
:102CC000046000F011FD4FF40073022248210D480A
:102CD000FFF74EFF02221146172000F0AFFB09213B
:102CE0000220FFF7F9FE022200211002FFF736FD55
:102CF0004FF40070FFF79EFD4FF40070FFF792FD58
:102D000010BD00000010014010B500BF09A0FEF783
:102D1000C3FC7F220B490CA0FEF7BEFC00BF00F0F5
:102D200089F94FF40070FFF775FD172000F07AFB6A
:102D300010BD00003C3C4D595F44454255473E3E66
:102D4000200000005342000825732025640D0A006E
:102D500010B5FFF7ADFE032807D100204C490880CD
:102D60004C4908804C49088010BD00204B49087030
:102D700008460078002840D008460078401E0870B9
:102D80004348018846A0FEF787FC4148008850B9B7
:102D900000BF464BAE2246A149A0FEF77DFC51483C
:102DA000FEF77AFC00BF3A480088401C384908808A
:102DB00008460088642190FBF1F201FB120020B963
:102DC0003348018836A0FEF767FC31480088B0F52B
:102DD000966F45DD00BF354BB72235A138A0FEF711
:102DE0005BFC4148FEF758FC00BF002029490880E1
:102DF0002749088000F01CFD32E02548008810B10A
:102E00000020234908802348008800280DD1642031
:102E100000F0A4FB00BF254BC82225A128A0FEF787
:102E20003BFC32A0FEF738FC00BF1A480088401C6B
:102E3000184908800846008844F2A01188420FDD36
:102E400000BF1A4BCE221AA11DA0FEF725FC35A00B
:102E5000FEF722FC00BF00F0EBFC00200D490880CB
:102E60000D480088401C0C4908800846008802284C
:102E700002DA00F0D7F809E007480088032802DAF0
:102E800000F0D8F802E000200349088000BF6BE79B
:102E90005200002054000020560000205000002066
:102EA0006E203D2025640D0A0000000061420008EC
:102EB0007372635C69725F7377697463682E630011
:102EC0003C3C46696C653A257320204C696E653A36
:102ED0002564202046756E6374696F6E3A25733ED3
:102EE0003E200000AC4300085843000869725F6947
:102EF0007271395F6465746563745F7461736B20AC
:102F000064657465637420736F6D656F6E65202CE6
:102F1000616E6420706F7765726F6E206C6173658F
:102F2000720D0A0069725F697271395F6465746558
:102F300063745F7461736B207461736B20697320B9
:102F400072756E203238206D696E732C616E64204C
:102F500073797374656D20706F7765726F66660D37
:102F60000A00000005200149087070475000002049
:102F700030B587B032244FF48073022218212448E0
:102F8000FFF7F6FD40F20D6000F0AEFB642C00DDB3
:102F9000642403A800F010FF1E480088401E05901E
:102FA0001D4800681D49B0FBF1F0401E80B2ADF82D
:102FB0000C0003A91A4800F083FE684600F06DFE7D
:102FC0000120ADF800006A460221154800F002FD1C
:102FD00070220221124800F0F3FDC4F164000D4993
:102FE00009884843642190FBF1F52A4602210C48E8
:102FF00000F013FE00220221094800F021FE012109
:10300000074800F0CDFE064800F0DEFC07B030BDFA
:10301000001001404E0000206400002040420F00DC
:103020000034014010B5024800F044FE10BD00001D
:103030000034014010B5024800F037FE10BD00001A
:103040000034014010B5FFF739FD08B9002010BD6C
:10305000FFF7ACFC08B10120F9E70220F7E7000018
:10306000072806DA01218140024A12781143014AF9
:10307000117070474200002070B504460D46372C91
:103080000DDA302C0BDB2DB1A4F13001C8B2FFF703
:10309000E7FF04E0A4F13001C8B200F067F9A4F141
:1030A00030012A4601A0FEF7F7FA70BD6C61736526
:1030B000725F617265615F636F6E74726F6C202006
:1030C00061726561203D20256420206164643D209B
:1030D00025640D0A0000000010B540F2026000F007
:1030E00003FB40F2036000F0FFFA40F2046000F0DE
:1030F000FBFA40F2056000F0F7FA4FF48053022229
:1031000010211948FFF734FD3823022210211748F7
:10311000FFF72EFD4FF4E053022210211448FFF771
:1031200027FD0423022210211248FFF721FD4FF44E
:1031300080510D48FFF7CCFC38210C48FFF7C8FC44
:103140004FF4E0510A48FFF7C3FC04210948FFF798
:10315000BFFC00BF08A0FEF79FFA38220A490BA067
:10316000FEF79AFA00BF10BD00080140000C0140B4
:1031700000100140001401403C3C4D595F44454261
:1031800055473E3E200000000042000825732025E0
:10319000640D0A0010B500F0B1F938210648FFF7B8
:1031A00097FC4FF4E0510548FFF792FC04210448D6
:1031B000FFF78EFC10BD0000000C01400010014024
:1031C0000014014010B5044614B9FFF7E3FF10BD29
:1031D000FFF76EFC032802D1FFF7DCFFF7E700F0F2
:1031E0009BF904F0010020B110212C48FFF772FC7C
:1031F00003E010212948FFF76BFC04F0020020B126
:1032000008212648FFF766FC03E008212348FFF762
:103210005FFC04F0040020B120212048FFF75AFC95
:1032200003E020211D48FFF753FC04F0080020B103
:1032300004211B48FFF74EFC03E004211848FFF768
:1032400047FC04F0100028B14FF480511548FFF7F7
:1032500041FC04E04FF480511248FFF739FC04F0C0
:10326000200028B14FF400610E48FFF733FC04E062
:103270004FF400610B48FFF72BFC04F0400028B12D
:103280004FF480610748FFF725FC04E04FF48061AC
:103290000448FFF71DFC00BF99E70000000C014047
:1032A000001401400010014070B50446392C07DCC1
:1032B000302C05DBA4F12F00C5B2284600F04EF9F2
:1032C000294602A0FEF7E8F970BD00006C61736545
:1032D000725F70776D5F636F6E74726F6C202064C5
:1032E0006567726565203D202564200D0A00000099
:1032F00010B5FFF7DDFB032805DC00201749088027
:10330000FFF760FF10BD154800880A281BDA144833
:1033100000781449087000240EE01348005D0F493E
:103320000988884206DC0120A0400E4909788143C3
:103330000C480170601CC4B2072CEEDB0948007811
:10334000FFF740FF03E0002004490880DAE7034864
:103350000088401C0149088000BFD3E744000020DA
:1033600042000020410000203A000020072806DA31
:1033700001218140024A12788A4301490A7070474C
:103380004200002090B0242107A8FCF706FF1C2271
:1033900017496846FCF7E8FEFDF79AFA15480168F8
:1033A00015A0FEF779F916A0FEF776F91EE00024C5
:1033B00015E00120A0401A490988084068B10120A1
:1033C000A040174909888143154801805DF8240011
:1033D00018B15DF82400804707E0601CC4B2102CCF
:1033E00003DA0F4800880028E3D100BFDFE70000C0
:1033F000B04100080400002025730D0A0000000001
:10340000426F617264496E697420646F6E65212039
:10341000323032322D30372D32320D0A00000000AA
:103420000800002000F01F0201219140024A4311D0
:1034300042F823107047000080E100E02DE9F041E0
:1034400003460D46164600240027A046244800687F
:1034500000F4E060B0F5A06F15D006DCB0F5407F59
:1034600018D0B0F5806F19D110E0B0F5C06F06D05C
:10347000B0F5E06F12D100274FF0040815E00127E6
:103480004FF0030811E00227B8460EE003274FF083
:1034900001080AE004274FF0000806E04FF4A0609E
:1034A00000F022F80227B84600BF00BFC7F10400B1
:1034B00005FA00F4C8F104010F20C840304004436D
:1034C00024010848C45403F01F0101208840591109
:1034D000890001F1E021C1F80001BDE8F0810000A0
:1034E0000CED00E000E400E002490143024A1160F3
:1034F000704700000000FA050CED00E010B54FF435
:1035000000410448FFF7E4FA4FF480410148FFF717
:10351000DFFA10BD000C014010B54FF40041044823
:10352000FFF7D8FA4FF480410148FFF7D3FA10BDF6
:10353000000C014010B54FF400510248FFF7C8FAE3
:1035400010BD0000000C014010B54FF400510248BE
:10355000FFF7C0FA10BD0000000C014001466429CD
:1035600000DD6421002003E0034A1154421CD0B264
:103570000728F9DB704700003A0000200F4A516825
:103580000F4A1140082814D2DFE800F004050607AE
:10359000130A130B00BF00BF00BF41EA803109E0EE
:1035A00000BF20F004004FF0805242EA8032114305
:1035B00000E000BF00BF014A5160704700100240A8
:1035C000FF3FFFEF2DE9F04F8BB007460020099039
:1035D0003EA090E8004CC068CDE905BECDF810A033
:1035E00007900FF2EC0ADAE9000ACDE9020A0FF2BD
:1035F000E00ADAE9000ACDE9000A38484068C0F379
:1036000081000A900A9820B1012804D0022829D10B
:1036100003E0334928E0324926E03048406800F4AE
:103620008038B8F5803F09D12D4C2C48406800F413
:103630000039B9F5003F02D1641000E0294C274859
:103640004068C0F383422548406800F0006008B13C
:1036500042F010020F2A01D2921C00E0521C04FB1F
:1036600002F101E01E4900BF00BF1C484068C0F3E2
:10367000031504A8465D21FA06F318484068C0F314
:10368000022502A8465D23FA06FC14484068C0F3F0
:10369000C2251DF8056023FA06F0089037B1012F06
:1036A00006D0022F06D0032F0AD106E0099108E0C8
:1036B000099306E0CDF824C003E00898099000E0E3
:1036C00000BF00BF09980BB0BDE8F08F00000000FC
:1036D0000000000001020304060708090010024070
:1036E00000127A0000093D00064A02EB90110968B9
:1036F00000F01F0301229A401143024B03EB90128A
:103700001160704700100240064A02EB90110968F0
:1037100000F01F0301229A409143024B03EB9012E9
:103720001160704700100240064A02EB90110968D0
:1037300000F01F0301229A401143024B03EB901249
:10374000116070470010024010B510210148FFF7CA
:10375000C1F910BD00100140014908707047000018
:103760004B000020002000212C4A126842F48032D5
:103770002A4B1A6000BF401C284A126802F400312C
:1037800019B94FF6FF729042F5D1244A126802F43B
:1037900000320AB900BFFEE7204A52681F4B5A6048
:1037A0001A4652685A601A46526842F480625A6059
:1037B0001A46526822F440325A601A46526842F45D
:1037C00040325A601A465268154B1A40134B5A60E1
:1037D0001A465268134B1A43104B5A601A46126825
:1037E00042F080721A6000BF0C4A126802F0007248
:1037F000002AF9D0094A526822F00302074B5A60A6
:103800001A46526842F002025A6000BF034A5268E8
:1038100002F00802002AF9D07047000000100240B0
:10382000FFFFC3F70000040810B5FFF79BFF10BDB2
:1038300010B5FDF77DFC00BF09A0FDF72DFF4F225D
:103840000B490CA0FDF728FF00BF0320FFF784FF02
:103850000020FFF7B7FCFFF757FAFFF76BFE10BD2C
:103860003C3C4D595F44454255473E3E20000000D8
:103870003542000825732025640D0A0010B500BFED
:1038800017A0FDF709FF332219491AA0FDF704FF1D
:1038900000BFFCF7F3FF044600BF11A0FDF7FCFEDC
:1038A00023463622124915A0FDF7F6FE00BF1E2C56
:1038B0000CDC00BF0E4B392215A11BA0FDF7ECFE5E
:1038C000214622A0FDF7E8FE00BF10BD0520FFF74E
:1038D00043FFFFF7F3F9FFF737FE00BFF5E70000FE
:1038E0003C3C4D595F44454255473E3E2000000058
:1038F0002542000825732025640D0A002573202524
:103900006420766F6C203D2025640D0A00000000C5
:103910007372635C6465765F72756E5F73746174F5
:1039200075732E63000000003C3C46696C653A25C7
:103930007320204C696E653A2564202046756E63BD
:1039400074696F6E3A25733E3E2000004552524F17
:10395000523A706F77657220697320746F6F206CB4
:103960006F7720766F6C203D2025640A00000000F0
:1039700010B500200249087002A0FDF78DFE10BDB1
:103980006000002074656D705F636F6E74726F6CA1
:103990005F64697361626C650D0A000010B50120F7
:1039A0000249087002A0FDF777FE10BD60000020FC
:1039B00074656D705F636F6E74726F6C5F656E615E
:1039C000626C650D0A000000016841F08001016031
:1039D0007047000010B531B101293FD002297DD0D8
:1039E00003297CD1BFE0036A23F0010303628369EA
:1039F00023F003038361036A148823430362036A89
:103A000023F002030362036A9488234303626A4B30
:103A1000984202D0694B98421FD1036A23F00403F5
:103A20000362036A548823430362036A23F0080392
:103A30000362036AD48823430362436823F48073D8
:103A400043604368148923434360436823F400734D
:103A500043604368548923434360ABE0036A23F027
:103A600010030362836923F440738361036A14883B
:103A700043EA04130362036A23F020030362036A28
:103A8000948843EA041303624B4B984202D04B4B99
:103A9000984226D1036A23F040030362036A5488E4
:103AA00043EA04130362036A23F080030362036A98
:103AB000D48843EA04130362436823F480634360B9
:103AC0004368148943EA84034360436823F4006332
:103AD00043604368548943EA840301E002E068E0FC
:103AE000436067E0036A23F480730362C36923F0D1
:103AF0000303C361036A148843EA04230362036A6D
:103B000023F400730362036A948843EA0423036284
:103B1000294B984202D0294B984223D1036A23F4BF
:103B200080630362036A548843EA04230362036ADE
:103B300023F400630362036AD48843EA0423036224
:103B4000436823F4805343604368148943EA0413B1
:103B50004360436823F4005343604368548943EA55
:103B60000413436026E0036A23F480530362C369AD
:103B700023F44073C361036A148843EA0433036285
:103B8000036A23F400530362036A948843EA04330C
:103B90000362094B984202D0084B984208D143680F
:103BA00023F4804343604368148943EA84134360E9
:103BB00000E000BF00BF10BD002C014000340140F8
:103BC00031B101290CD0022913D0032922D118E0E8
:103BD000836923F0700383618369134383611AE06F
:103BE000836923F4E0438361836943EA02238361A9
:103BF00011E0C36923F07003C361C3691343C36158
:103C000009E0C36923F4E043C361C36943EA0223C3
:103C1000C36100E000BF00BF704731B1012906D089
:103C2000022906D0032908D105E0426306E0826339
:103C300004E0C26302E0026400E000BF00BF70471E
:103C400031B101290CD0022913D0032922D118E067
:103C5000836923F0080383618369134383611AE056
:103C6000836923F400638361836943EA02238361E8
:103C700011E0C36923F00803C361C3691343C3613F
:103C800009E0C36923F40063C361C36943EA022303
:103C9000C36100E000BF00BF704700210180418088
:103CA0008180C180018141817047016821F001015B
:103CB00001607047016841F0010101607047000038
:103CC0000A888262294A904220D0B0F1804F1DD0EC
:103CD000274A90421AD0274A904217D0264A90424B
:103CE00014D0264A904211D0254A90420ED0254A3F
:103CF00090420BD0244A904208D0244A904205D0EA
:103D0000234A904202D0234A90420FD1026822F007
:103D10007002026002688B7803F060031A4302604D
:103D200002680B7903F010031A4302608A68C262CA
:103D3000194A90420CD0194A904209D0026822F4E4
:103D40004072026002688B8903F440731A43026078
:103D5000064A904202D0094A904201D18A7B02630E
:103D6000426942F00102426170470000002C0140AC
:103D70000004004000080040000C004000340140F6
:103D8000004C014000500140005401400018004028
:103D9000001C0040002000400010004000140040C3
:103DA000012904D1426C42F40042426403E0426CB7
:103DB00022F40042426470470021018041808180EA
:103DC0004FF6FF718160002181818173704700008F
:103DD0002DE9F04704460D460027B846B9460026AF
:103DE0001D49601A8C421CD006DC1C48204470B16E
:103DF000B0F5806F1FD10FE0B0F5806F16D0B0F531
:103E00006C4F18D10320FFF7DDFB074614E00220BA
:103E1000FFF7D8FB07460FE00220FFF7D3FB07466A
:103E20000AE00220FFF7CEFB074605E00220FFF77D
:103E3000C9FB074600E000BF00BF07EB5500B0FB21
:103E4000F5F64FF6F07006EA000806F00F0948EAAA
:103E50000900A060BDE8F087004C004000BCFFBF37
:103E600001464868C0F308007047C1F30802426089
:103E70007047000010B504462049601A8C4228D0D3
:103E800006DC1F48204490B1B0F5806F33D117E0B5
:103E9000B0F5806F26D0B0F56C4F2CD140F20E30CB
:103EA000FFF742FC40F20E30FFF72EFC24E040F218
:103EB0001140FFF739FC40F21140FFF725FC1BE0F1
:103EC00040F21240FFF730FC40F21240FFF71CFCBA
:103ED00012E040F21340FFF727FC40F21340FFF7D7
:103EE00013FC09E040F21440FFF71EFC40F21440BE
:103EF000FFF70AFC00E000BF00BF10BD004C00400F
:103F000000BCFFBFC16841F40051C160704710B5EB
:103F1000024602EB9110006801F01F040123A34048
:103F2000184008B1012010BD0020FCE70A4600211E
:103F3000416921F400711143416170470A46002133
:103F4000416921F4807111434161704710B5C1F39B
:103F50008912825801F01F040123A3409A43C1F340
:103F60008913C25010BD10B5C1F38912825801F0F7
:103F70001F040123A3401A43C1F38913C25010BD8B
:103F800010B500EB91521268C1F304440123A34021
:103F90009A4300EB91531A6010BD70B5024600239E
:103FA0000024C1F38910105801F01F060125B54007
:103FB00000EA050302EB91500068C1F304460125B5
:103FC000B54000EA050414B10BB1012070BD00201A
:103FD000FCE7C26822F4C062C260C2680A43C260E1
:103FE00070470A460021C16821F004011143C160F5
:103FF0007047026922F44052026102690A43026179
:1040000070470A460021C16821F008011143C160D0
:104010007047C26822F48052C260C2680A43C2601C
:104020007047000010B520210148FEF753FD10BD78
:104030000010014010B50446312C02D100F02CF8DC
:104040000DE0322C02D100F01DF808E0332C02D133
:1040500000F092F803E0342C01D100F097F82146EB
:1040600001A0FDF719FB10BD7774353838645F6324
:104070006F6E74726F6C2020627566203D2025641F
:104080000D0A000010B503490978491EC8B200F0B6
:104090000DF810BD5800002010B503490978491CDF
:1040A000C8B200F003F810BD5800002010B5044657
:1040B0001E2C00DD10BDFFF747FB204600F006F880
:1040C0000148047000BFF5E75800002070B50546B0
:1040D00000BF02211F48FEF7FDFC00BF0A20FCF7CD
:1040E00097FDFFF79FFF0120FCF792FD002424E0DD
:1040F0000120A040284030B100BF01211548FEF743
:10410000E9FC00BF06E000BF01211248FEF7E2FC17
:1041100000BF00BF9620FCF785FD00BF20210E48A0
:10412000FEF7D8FC00BF9620FCF77CFDFFF77AFF76
:104130003220FCF777FD601CC4B2082CD8DB00BF2E
:1041400002210448FEF7C6FC00BF0120FCF760FD19
:1041500070BD0000000C01400010014010B5044685
:10416000E72C06DCE02C04DB2046FFF7AFFF01481C
:10417000047010BD5900002010B503490978491C8E
:10418000C8B2FFF7EBFF10BD5900002010B503497E
:104190000978491EC8B2FFF7E1FF10BD59000020A1
:1041A0004932635F57726974654279746500000033
:1041B000A5220008F132000800000000D129000803
:1041C000ED140008512D0008D92100080E06110732
:1041D00000020000040000000004000008000000CD
:1041E0000008014000080140020602062500000008
:1041F0002600000005050000003801400044004092
:104200006C617365725F636F6E74726F6C5F696E01
:1042100069740070776D5F6F75740062746E735FA0
:104220007363616E0073797374656D5F706F77652A
:10423000725F6F6E0073797374656D5F706F776511
:10424000725F6F6666006261745F766F6C5F746147
:10425000736B0069725F6465746563745F6F666633
:104260000069725F697271395F6465746563745F58
:104270007461736B000000004552524F523A207334
:10428000656E6420776F72645F616464722049496F
:10429000435F576169745F41636B28696E64657839
:1042A00029213D203020696E646578203D202564F9
:1042B00020747864203D202523780D0A000000003A
:1042C0004275696C6474696D65203A417567203286
:1042D0003120323032322031373A30333A35310002
:1042E0004445565F564F4C5F4C453330200000002C
:1042F0004445565F564F4C5F4C4533362000000016
:104300004445565F43484152474500004445565F87
:10431000504F5745524F4646000000004445565FF7
:10432000425547004445565F4348415247455F4F19
:104330004B0000004445565F52554E5F4E4F524D64
:10434000414C00004445565F45585445524E5F501D
:104350004F574552000000004552524F52203A201C
:1043600069725F697271395F6465746563745F74E3
:1043700061736B206465746563742064657669633A
:1043800065206F66662032206D696E732C616E64E5
:104390002073797374656D2020676F20746F2070AF
:1043A0006F7765726F66660D0A0000004552524FC6
:1043B00052203A2069725F697271395F6465746571
:1043C00063745F7461736B206465746563742064E7
:1043D0006576696365206F6666202C616E64207067
:1043E0006F7765726F6666206C617365720D0A0087
:1043F00010440008000000206C000000E0160008D7
:104400007C4400086C00002024200000F016000806
:1044100000000000C0420008000000000000000092
:1044200000000000000000001C430008E0420008FB
:104430000C430008F0420008344300080043000821
:10444000244300084443000800000000000000006E
:1044500000007F00000000000000000300001A00C0
:10446000050000000000000000E000000000000067
:0C4470000100000000A24A04000000004F
:0400000508000131BD
:00000001FF
