:020000040800F2
:10000000A820002045010008D5130008A90E00080B
:10001000D1130008F1090008811A0008000000004F
:10002000000000000000000000000000B5150008FE
:10003000D50D000800000000F91300083116000873
:100040005F0100085F0100085F0100085F01000810
:100050005F0100085F0100085F0100085F01000800
:100060005F0100085F0100085D0E00085F010008E5
:100070005F0100085F0100085F0100085F010008E0
:100080005F0100085F0100085F0100085F010008D0
:100090005F0100085F0100085F0100085F0E0008B3
:1000A0005F0100085F0100085F0100085F010008B0
:1000B0002D1800085F010008B91800085F0100084A
:1000C0005F0100085F0100085F0100085F01000890
:1000D0005F0100088D190008C91900085F010008B8
:1000E0005F0100085F0100085F0100085F01000870
:1000F0005F0100085F0100085F0100085F01000860
:100100005F0100085F0100085F0100085F0100084F
:100110005F0100085F0100085F0100085F0100083F
:100120005F0100085F0100085F0100085F0100082F
:10013000DFF80CD000F072FB00480047693B000874
:10014000A82000200648804706480047FEE7FEE753
:10015000FEE7FEE7FEE7FEE7FEE7FEE7FEE7FEE777
:10016000391600083101000840EA01039B0703D05B
:1001700009E008C9121F08C0042AFAD203E011F8E6
:10018000013B00F8013B521EF9D27047D2B201E0A8
:1001900000F8012B491EFBD270470022F6E710B58C
:1001A00013460A4604461946FFF7F0FF204610BDE5
:1001B0002DE9FE4F804681EA0300C00F0C460090F7
:1001C00021F0004123F00045B8EB0200A94105D21F
:1001D0004046214690461C460B46024623F000400E
:1001E000104347D0270DC7F30A00C3F30A5102900A
:1001F000401A019040286BDAC3F3130040F4801BCF
:100200000098924620B10023D2EB030A63EB0B0B5C
:1002100001985946C0F14002504600F00AFA0646DD
:100220000D4650465946019A00F022FA10EB08009C
:100230006141002487EA115284EAE7731A4340D0EF
:10024000009A62B3019A012A4FEA075215DC001B9B
:1002500061EB02014FF0004202EA0752CDE9004291
:10026000001C41F5801132462B4600F059FA03B0CC
:10027000BDE8F08F40462146F9E7001B61EB020123
:10028000001C41F5801300185B412018A2F50017EF
:1002900047EB030140EAD570B6196D4111E06D08D6
:1002A0004FEA360645EAC0754FEA0752001B61EB7C
:1002B0000201001C41F5801149084FEA3000001985
:1002C000514132462B4603B0BDE8F04F00F019BA59
:1002D0000098012240000023D0EB020263EBE073A0
:1002E000009821464FEAE074B8EB000061EB04018E
:1002F000E9E783F000435BE781F0004158E72DE92F
:10030000FE4F81EA030404F0004421F00041009410
:100310004FF0000B23F0004350EA01045ED052EA94
:1003200003045BD0C3F30A54C1F30A552C44A4F26E
:10033000F3340194A0FB0254C1F3130141F4801182
:10034000C3F3130343F4801301FB024400FB034E89
:10035000840A970A44EA815447EA8357A4FB076852
:1003600002958D0A05FB07854FEA932C04FB0C547C
:100370002705029D4FEA065847EA1637B5EB0805F0
:100380006EEB070C870E920E47EA811742EA831242
:10039000A7FB0201B6EB0B0164EB00042B0D43EA53
:1003A0000C335E1844EB1C50DA465146E7FB020161
:1003B000C5F313044FEA0B3343EA14534FEA0432F4
:1003C000019C43EA0603A4F10C040294009CCDE9CD
:1003D00000B400F0A5F903B0BDE8F08F002001469D
:1003E000F9E72DE9F04D81EA030404F0004B21F018
:1003F000004514464FF0000A23F0004150EA050280
:1004000020D054EA01021DD0C5F30A570246C5F3B5
:100410001303C1F31300C1F30A5640F4801543F4EB
:100420008013A7EB0608101BD64608F2FD3873EBC5
:10043000050002D308F1010801E092185B41B8F110
:10044000000F03DA00200146BDE8F08D00204FF4D4
:100450008011064684460EE0171B73EB050705D393
:10046000121B63EB050306434CEA010C49084FEAF3
:10047000300092185B4150EA0107EDD152EA0300C7
:1004800012D082EA040083EA0501084305D0101B5C
:10049000AB4106D20122002306E000224FF00043C8
:1004A00002E06FF0010253101AEB06004CEB08510A
:1004B00010EB0A0041EB0B01BDE8F04D00F021B953
:1004C00096230022114600F0EEB80EB540F23341FB
:1004D00002910021CDE900110A460B4600F020F9F7
:1004E00003B000BDC1F30A5210B5C1F3130140F2CD
:1004F000FF3341F480119A4201DA002010BD40F22E
:1005000033439A42A2F2334203DC524200F0A0F895
:1005100010BD904010BD00F0004230F000400AD005
:10052000C10D01F56071C0F3160042EA0151C20825
:1005300040071143704700200146704730B5041E44
:1005400071F1000404DB4FF00044404264EB010110
:10055000141E73F1000405DB1C464FF000435242A9
:1005600063EB04038B4208BF824230BD01F00043BD
:1005700030B421F0004150EA010206D00A0DA2F584
:100580006072C1F31301002A02DC30BC0020704706
:10059000440F44EAC104C100E01830BC00EBC25073
:1005A00000F078B830B50B46014600202022012427
:1005B00009E021FA02F59D4205D303FA02F5491B31
:1005C00004FA02F52844151EA2F10102F1DC30BD47
:1005D0002DE9F05F0546002092469B468846064678
:1005E000814640241BE0284641464746224600F00B
:1005F0002FF853465A46C01A914110D31146184657
:10060000224600F016F82D1A67EB01084F462246E5
:100610000120002100F00DF817EB00094E41201ECB
:10062000A4F10104DFDC484631462A464346BDE8D2
:10063000F09F202A04DB203A00FA02F100207047E4
:100640009140C2F1200320FA03F319439040704710
:10065000202A04DB203A21FA02F00021704721FA17
:1006600002F3D040C2F1200291400843194670477E
:10067000202A06DBCB17203A41FA02F043EAE07366
:1006800006E041FA02F3D040C2F120029140084353
:10069000194670470029A8BF7047401C490008BF91
:1006A00020F00100704710B4B0FA80FC00FA0CF0A2
:1006B00050EA010404BF10BC704749B1CCF12004DA
:1006C00021FA04F411FA0CF118BF01212143084367
:1006D000A3EB0C01CB1D4FEA00614FEA102042BF93
:1006E000002010BC704700EBC35010440029A4BF89
:1006F00010BC7047401C490008BF20F0010010BC2E
:10070000704710B5141E73F1000408DA401C41F163
:10071000000192185B411A4301D120F0010010BD85
:100720002DE9F04D92469B4611B1B1FA81F202E0FB
:10073000B0FA80F220329046FFF77BFF04460F4666
:1007400040EA0A0041EA0B0153465A46084313D0D7
:10075000114653EA010019D0C8F140025046FFF794
:1007600077FF05460E46504659464246FFF761FF61
:10077000084305D0012004E020463946BDE8F08D4D
:100780000020054346EAE0762C4337430A98630588
:10079000E40AA0EB08000022FD0A44EA47540A30AC
:1007A00002D500200146E9E7010510196941DDE99C
:1007B000084500196941BDE8F04DA2E7C1F30A52AE
:1007C000C1F3130140F2FF3341F480119A4202DA7F
:1007D00000200146704740F233439A42A2F233426E
:1007E00002DC5242FFF734BFFFF723BF30B5041ECF
:1007F00071F1000404DB4FF00044404264EB01015E
:10080000141E73F1000405DB1C464FF000435242F6
:1008100063EB0403994208BF904230BD064C074D7C
:1008200006E0E06840F0010394E8070098471034C0
:10083000AC42F6D3FFF780FCD04C0008F04C000827
:1008400010B540F20A6003F087FB032003F0CEFAF4
:10085000002001F059FE00224FF480711B4801F086
:10086000CAFE00220221194801F0C5FE01221146EC
:10087000164801F0D7FD0021144801F0C8FD0122FF
:100880001146124801F0A0FD03F040FA05230A22A8
:1008900000210E4801F046FE4FF4602201210B4872
:1008A00001F00EFE01221146084801F0EAFD07485A
:1008B00001F0DEFD012000F08FFA044801F06FFD29
:1008C0000121024801F088FE10BD0000002801400F
:1008D00070B50446002600250AE0681C85B2012098
:1008E00000F07AFA0A2D03DD0FA001F0CBF805E045
:1008F0000221134801F000FE0028EED000BF0221C3
:100900000F4801F0F5FD0E4801F062FE0646052392
:10091000224600210A4801F005FE0121084801F0A5
:100920005BFE304670BD00004552524F523A206186
:1009300064632074696D65206F75740D0A00000092
:10094000002801402DE9F05F0A20FFF7C1FF834630
:10095000FFF7BBFD80460022074BFFF7D0FC0646A1
:100960000022064BFFF73DFD0446FFF7BBFD1FFAD3
:1009700080FA5046BDE8F09F008050400000B04033
:1009800010B500F043FD4FF4A06003F093F94FF46D
:10099000C06003F0E1FA0121124802F01FFC00F0F0
:1009A0007DFE4FF4E131002002F058FA00F098FD8E
:1009B00002F0C2FF02F038FA00F0F4FCFFF740FF4B
:1009C00000F04EFC02F0E4FE074800680749B0FB67
:1009D000F1F0401E84B2214640F2E73000F0ECFE18
:1009E00010BD0000000230007400002040420F00E3
:1009F00000BFFEE77047000010B50A4803F0AAFEEA
:100A0000C4B2094801780078401C074A10700748B2
:100A1000445410460078202802DB0020114608705C
:100A200010BD0000004400403D0000207C0000207C
:100A30002DE9F041054682480078002871D128460A
:100A4000412D6FD00ADCA0F130000A281AD2DFE86D
:100A500000F020263C47595C616D838961286FD086
:100A600008DC42286DD043286CD044286BD04D2838
:100A700008D19DE0622867D0632870D064286FD0C9
:100A80006D286ED029466FA000F0FCFF01F002FF38
:100A900000BF7648016876A000F0F4FF8CE002F019
:100AA00069FA0646314674A000F0ECFF002409E024
:100AB0007748005D00EB8002214676A000F0E2FF5F
:100AC000601CC4B2072CF3DB76E078480068FFF7BF
:100AD00022FD064632460B4675A000F0D3FF6BE0C0
:100AE00002F0E0FE0646314675A000F0CBFF02F0B2
:100AF000B7FA401E804951F8206031467FA000F0CF
:100B0000C1FF59E003F036F956E082A182A000F05F
:100B1000B9FF51E002F0A4FA032804DC03F0F2FA72
:100B200003E04AE030E003F0C1FA45E08048007895
:100B300058B100207E4908707EA000F0A3FF0AE0B3
:100B400021E026E02AE02EE022E00120784908702A
:100B500082A000F097FF2FE003F0E6F82CE01CE005
:100B600020E024E08648007830B1002084490870F5
:100B700084A000F087FF05E001208149087088A06B
:100B800000F080FF18E000BF01202D49087013E03D
:100B900000BF02202A4908700EE000BF0420284947
:100BA000087009E000BF05202549087004E000BF77
:100BB00003202349087000BF3FE021480078012846
:100BC00007D10121284602F087FE00201C49087049
:100BD00033E01B480078022807D10021284602F0A4
:100BE0007BFE00201649087027E01548007803288E
:100BF00006D1284603F098FE0020114908701CE039
:100C00000F480078042806D1284602F07BFF002018
:100C10000B49087011E00A48007805280AD1302DE8
:100C200002D103F011FB01E003F024FB0020044992
:100C3000087002E0002002490870BDE8F081000061
:100C40003C0000204552524F523A20436F6D6D6177
:100C50006E6420556E6B6E6F7720636D64203D204F
:100C6000307825782121210D0A00000004000020A1
:100C700025730D0A000000006C61736572206172BB
:100C80006561203D2030782578200D0A00000000A5
:100C9000680000206C617365722070776D5B25645D
:100CA0005D203D202564200D0A0000004C0000203E
:100CB00074656D70203D2025302E32660D0A0000CF
:100CC00075736220636861726765207374617475FF
:100CD0007320256428303A6E6F20636861726765FF
:100CE0002C313A6368617267696E672C323A6675B7
:100CF0006C6C290D0A0000001C00002073797374CD
:100D0000656D2072756E2073746174757320257320
:100D1000200D0A006F666600576174636820446F97
:100D20006720537461747573203D2025730D0A008C
:100D30001900002044697361626C652073746172EC
:100D400074206C61736572207768656E20636861DA
:100D50007267696E67200D0A00000000456E6162CF
:100D60006C65207374617274206C61736572207796
:100D700068656E206368617267696E67200D0A009E
:100D800018000020657869742064656275675F6982
:100D900072726563765F6D6F64650D0A0000000016
:100DA000656E7465722064656275675F69727265ED
:100DB00063765F6D6F64650D0A00000010B504482E
:100DC00003F0C8FCC4B22046FFF732FE10BD00009D
:100DD00000380140704700000349086000BF024925
:100DE00009680029FBD170470C000020F0B50346CC
:100DF00000224FF0E0277D69104F3F68DFF840C0C8
:100E0000B7FBFCF7FEB203FB06F44FF0E027B9692D
:100E100010E04FF0E027B86988420BD0884202D238
:100E20000F1A3A4402E02F1A0F443A440146A242F4
:100E300000D300E0EDE700BFF0BD0000740000202B
:100E400040420F000448006820B103480068401E7B
:100E500001490860704700000C000020704710B581
:100E60004FF4007001F0C4FF30B102F073FB4FF497
:100E7000007001F0B7FF06E0202001F0B9FF10B1CB
:100E8000202001F0AFFF10BD10B50121014802F094
:100E9000F7F810BD0008014010B50121014802F02B
:100EA000F1F810BD0008014000BFFEE770B5044630
:100EB0000D462946204600F0D3F8204600F038F9C8
:100EC00090B100BF094B4FF4857209A10BA000F04F
:100ED000D9FD2A462146124800F0D4FD00BF204625
:100EE00000F006F9032070BD0020FCE7944A0008DA
:100EF0007372635C6969632E630000003C3C466961
:100F00006C653A257320204C696E653A2564202073
:100F100046756E6374696F6E3A25733E3E2000001D
:100F2000544B000810B504460021204600F0D4F9C7
:100F3000204600F05FFB0021204600F0F9F9042074
:100F4000FFF754FF0121204600F0C6F90620FFF705
:100F50004DFF0021204600F0BFF90320FFF746FFB8
:100F600010BD000070B5054640F2036002F0F4FFCA
:100F7000012D02D14FF4406405E0022D02D14FF45F
:100F8000407400E0C024234602221021054802F0EC
:100F9000C7F80121284600F09FF90121284600F0FA
:100FA000C7F970BD000C014010B504460021204671
:100FB00000F092F9204600F01DFB0121204600F0D0
:100FC000B7F90420FFF712FF0121204600F084F951
:100FD0000620FFF70BFF0021204600F07DF90320DB
:100FE000FFF704FF10BD2DE9F04107460D46002430
:100FF0000021384600F070F9384600F0DDFA032091
:10100000FFF7F4FE00261EE00021384600F064F9E8
:101010000520FFF7EBFE0121384600F05DF9600680
:10102000040E0420FFF7E2FE384600F041FA08B152
:10103000601CC4B20420FFF7D9FE0021384600F03E
:101040004BF9701CC6B2082EDEDB1DB93846FFF71F
:10105000ABFF02E03846FFF765FF2046BDE8F081B0
:1010600070B506460C460021304600F035F9304692
:1010700000F0C0FA00251CE00320FFF7B7FE04F0E3
:101080008001304600F054F96006040E0420FFF79A
:10109000ADFE0121304600F01FF90620FFF7A6FE45
:1010A0000021304600F018F90320FFF79FFE681C6E
:1010B000C5B2082DE0DB70BD10B504460121204605
:1010C00000F036F9204600F095FA0121204600F0A4
:1010D00003F90420FFF78AFE0021204600F028F9DA
:1010E0000620FFF783FE0021204600F0F5F810BD32
:1010F00010B504460021204600F0EEF8204600F02E
:1011000079FA0021204600F013F90620FFF76EFE61
:101110000121204600F0E0F80320FFF767FE0121DF
:10112000204600F005F90620FFF760FE10BD000024
:1011300070B5054600240021284600F0CDF80320B4
:10114000FFF754FE0121284600F0F2F80320FFF7D4
:101150004DFE284600F030FA0121284600F0BCF888
:101160000320FFF743FE0EE0601CC4B2FA2C07DD3B
:101170002846FFF7BDFF0BA000F084FC012070BDE6
:101180001420FFF733FE284600F092F90028EBD137
:101190000021284600F0A0F80320FFF727FE0020DA
:1011A000EDE700004552524F523A204949435F57FC
:1011B0006169745F41636B0D0A0000002DE9F04125
:1011C00005460E4600BF02F047FB42F22830FFF70B
:1011D0000DFE02F051FB41F29410FFF707FE00BF35
:1011E00000242CE02F5D4FF0000823E007F0010001
:1011F00070B100BF02F030FB4FF40C70FFF7F6FD4A
:1012000002F03AFB40F29A60FFF7F0FD00BF0EE0FB
:1012100000BF02F021FB4FF40C70FFF7E7FD02F076
:101220002BFB4FF40C70FFF7E1FD00BF00BF7F10F8
:1012300008F10108B8F1080FD8DB601CC4B2B44251
:10124000D0DB00F002F8BDE8F08110B502F004FB3D
:1012500040F28A20FFF7CAFD02F00EFB10BD00002D
:1012600010B502F003F802F0E5F9064800680649F7
:10127000B0FBF1F0401E84B2214642F20F7000F044
:10128000B7FA10BD7400002040420F0010B50446AC
:101290001CB1044803F080F902E0024803F077F93A
:1012A00010BD00000008004010B504460120A04019
:1012B00008490978084000B110BD2046FFF752FEEA
:1012C0000120A0400349097808430249087000BF83
:1012D000F2E700000000002070B505460C46012D25
:1012E0000BD124B18102114801F0CCFE1DE04FF476
:1012F00080610E4801F0C4FE17E0022D0BD124B12D
:10130000E9010A4801F0BEFE0FE04FF48071074882
:1013100001F0B6FE09E024B18021044801F0B2FEDC
:1013200003E08021014801F0ABFE70BD000C0140DC
:1013300070B505460C46012D0BD124B1C1021148F0
:1013400001F0A0FE1DE04FF400610E4801F098FE90
:1013500017E0022D0BD124B129020A4801F092FEB8
:101360000FE04FF40071074801F08AFE09E024B154
:101370004021044801F086FE03E04021014801F0CD
:101380007FFE70BD000C014010B5044624B14FF043
:10139000804003F001F903E04FF0804003F0F7F8DC
:1013A00010BD000010B540F2026002F0D5FD03232D
:1013B00002221021054801F0B3FE0221034801F08A
:1013C0005FFE0121014801F05BFE10BD00080140F5
:1013D00000BFFEE77047000010B50221014801F090
:1013E0004FFE10BD0008014010B50221014801F078
:1013F00049FE10BD000801407047000010B50821EB
:10140000014801F03DFE10BD0010014010B540F252
:10141000036002F0A1FD40F2046002F09DFD4FF474
:10142000C04302221021204801F07AFE4FF40051FF
:101430001D4801F025FE4FF480411B4801F022FEBB
:1014400008211A4801F01EFE082302221021174825
:1014500001F066FE4FF4805302220421124801F08D
:101460005FFE802302220421104801F059FE402330
:10147000022248210D4801F053FE4FF4004302229E
:101480001021094801F04CFE4FF40041064801F0DC
:10149000F7FD1021054801F0F3FD10230222194643
:1014A000024801F03DFE10BD000C0140001001405B
:1014B00010B50446012C04D1C102084801F086FE93
:1014C00010BD022C04D12102044801F07FFEF7E791
:1014D0004021024801F07AFEF2E70000000C0140D2
:1014E00010B50020FFF7E0FE10BD00002DE9F04F21
:1014F00089B082460020FFF7DFFD012000EB4A00A3
:10150000C1B20020FFF7D2FC0790079888BB0121E9
:101510000020FFF768FDADF8100000210846FFF736
:1015200062FDADF812000020FFF7E2FDBDF81200E9
:10153000BDF8101040EA01201FFA80FB5846FEF764
:10154000BFFF0190FEF7E7FF0022164BCDE9020135
:10155000FEF7D5FE06460022134BFEF742FF044677
:101560000022124BFEF7C5FE8046FEF7FFFF104932
:1015700008600020FFF7A0FD88210020FFF796FCFF
:1015800007902C210020FFF791FC079006210020F6
:10159000FFF78CFC07900020FFF7AAFD09B0BDE81B
:1015A000F08F000000E06540E0FFEF400080464023
:1015B0004C0000207047000010B50446012C06D1F5
:1015C000C302022248210A4801F0AAFD0EE0022CC3
:1015D00006D1230202224821054801F0A1FD05E0C1
:1015E000402302224821024801F09AFD10BD00006C
:1015F000000C014010B50446012C06D1C3020222A2
:1016000010210A4801F08CFD0EE0022C06D12302C5
:1016100002221021054801F083FD05E0402302224B
:101620001021024801F07CFD10BD0000000C0140BB
:1016300010B500F05BF810BD10B51448006840F01C
:1016400001001249086008464068114908400F49E6
:101650004860084600680F4908400C490860084681
:10166000006820F480200860084640680A49084065
:101670000649486008460068064908400349086072
:101680004FF41F00886002F00DFD10BD00100240F5
:101690000C00FFE8FFFFF6FEFFFF00F710B5124851
:1016A00000684FF47A71B0FBF1F4601EB0F1807FF6
:1016B00001D301200FE0601E4FF0E02148610F21AF
:1016C0004FF0FF3000F0EEF900204FF0E02188618C
:1016D00007200861002008B100BFFEE70021481E76
:1016E00000F0E0F910BD00007400002010B5304893
:1016F0000068401C2E490860FFF7A4FB2C480068D6
:101700000A21B0FBF1F201FB120028B92948008838
:1017100040F0010027490880254800683221B0FBCD
:10172000F1F201FB12000F2805D12248008840F099
:1017300010002049088001F093FC032837DD1D4884
:10174000008840F002001B490880194800684FF4E7
:101750007A71B0FBF1F201FB120040F29A2188424B
:1017600005D11448008840F008001249088010484C
:1017700000684FF4FA71B0FBF1F201FB1200B128DE
:1017800005D10C48008840F020000A49088008482C
:1017900000684FF4FA71B0FBF1F201FB12008528EA
:1017A00005D10448008840F040000249088010BD7F
:1017B00010000020080000207FB505460C464FF4BD
:1017C000E06002F0C9FB684602F070FF0295ADF8D8
:1017D000004069464FF0804002F0E4FE01221146CD
:1017E0001C2002F011FA0121880702F04BFF7FBD97
:1017F0007FB505460C4640F2027002F0ADFB68462C
:1018000002F054FF0295ADF800406946064802F028
:10181000C9FE012211461E2002F0F6F901210248FC
:1018200002F030FF7FBD00000008004010B501212C
:10183000880702F02FFF002831D01B48007840B302
:101840001A480078401C1949087008460078142886
:101850001BDA154800781649087000240EE0154878
:10186000005D12490978884206DC0120A040104939
:10187000097881430E480170601CC4B2072CEEDB6E
:101880000B48007802F0CCF809E000200749087006
:1018900005E00648007810B10020044908700121D5
:1018A000880702F0F3FE10BD7000002071000020D8
:1018B0006F0000206800002010B50121054802F0EB
:1018C000E9FE08B101F0CEFE0121024802F0DEFE81
:1018D00010BD00000008004070B52B480078401C87
:1018E0002949087001F0DEFF0546002D1ADD012DA3
:1018F00013D1FFF771FD244800780A2802DAFFF7B8
:10190000CBFA3FE020480078142802DAFFF7BCFA4F
:1019100038E000201C49087034E0FFF7BDFAFFF7FB
:101920005BFD2FE001F09CFB0446032C07D1002057
:1019300015490870FFF7A8FAFFF74EFD70BD052C9A
:1019400004D1FFF7A9FAFFF747FD1BE0042C13D1E0
:10195000FFF79AFA0C4800780A2802DAFFF744FDEC
:1019600010E009480078142802DAFFF735FD09E095
:1019700000200549087005E0012C03D1FFF784FA27
:10198000FFF732FD00BFD9E74200002010B50B4938
:101990000B4802F07CFF30B1FFF710FA0749084806
:1019A00002F068FF08E00749054802F070FF18B12F
:1019B0000449034802F05EFF10BD00000503050066
:1019C000003801400403040010B51749174802F01D
:1019D0005EFF88B1FFF710F81349144802F04AFF80
:1019E00013480078F0B94FF44171104802F035FF08
:1019F00001200F49087015E00E490C4802F047FF1E
:101A000080B1FEF7F7FF0B49084802F033FF0848A2
:101A1000007838B14FF44171044802F011FF002002
:101A20000349087010BD0000050305000044004094
:101A300045000020040304007CB504460D460E4911
:101A400003C9CDE90001012C00DD7CBD0120A040CF
:101A50000A490978084060B100BF5DF824000721F9
:101A600002F0CFFE0028F8D05DF82400294602F0ED
:101A700076FE00BFE9E70000EC4A000814000020F1
:101A800000BFFEE70FB4054B10B503A9044A029846
:101A900000F0EEF810BC5DF814FB0000152E0008F5
:101AA0007800002010B5002804DB0A07130E054A51
:101AB000135406E00A07140E034A00F00F031B1F1D
:101AC000D45410BD00E400E018ED00E002E008C8C6
:101AD000121F08C1002AFAD170477047002001E0A8
:101AE00001C1121F002AFBD1704700002DE9FF5FE2
:101AF00082B00021DDE90430020DDDF840B003437F
:101B000018D044F61050A2F2FF3242431514119837
:101B100001281FD0A5EB0B00401C5FEA000A4FF024
:101B200000064E4FDFF83891B046504615D5CAF141
:101B3000000413E0119801244AA3012801D16FEA9F
:101B40000B010298119AC0E90031C0E9024206B0C7
:101B5000BDE8F09FCBF10000DFE704460021404ADA
:101B6000491842EB0450CDE9001012E0E00707D01D
:101B700032463B4640464946FEF7C1FB8046894611
:101B800032463B4610461946FEF7B9FB06460F465D
:101B90006410002CEAD1DDE90401DDE90023BAF18B
:101BA000000F06DAFEF7ABFB42464B46FEF7A7FBFB
:101BB00005E0FEF716FC42464B46FEF712FC0446D3
:101BC0000E460022284BFEF711FE03D84FF0FF30DF
:101BD000014607E00022254B20463146FEF7E8FA91
:101BE000FEF7ECFD102409E0002C0ADB0A2200239A
:101BF000FEF7EEFC039B30321A55641E50EA0102D8
:101C0000F2D1641C039AC4F111031444119A012AFD
:101C100003D0012208430DD10AE0084304D000207C
:101C20004FF0110B119072E7A3EB0B056D1E0DE049
:101C30005B4504DD4FF0000205F1010504E003DA25
:101C40004FF00002A5F10105002AECD0029811998D
:101C5000C0E90231C0E9004579E700000000144006
:101C60000000F03F300000000000F0430000E03FC3
:101C70002DE9FF4F95B09B468946064600250FE2A9
:101C8000252877D100242746F84A0121059400E051
:101C9000044316F8013F203B01FA03F01042F7D14C
:101CA00030782A2811D06FF02F033078A0F130025D
:101CB000092A16D8059A44F0020402EB820203EBCB
:101CC00042021044761C0590EFE759F8042B059268
:101CD000002A03DA504244F40054059044F0020410
:101CE000761C30782E2816D116F8010F44F0040423
:101CF0002A280DD06FF02F023078A0F13003092B85
:101D000009D807EB870302EB4303C718761CF3E7F8
:101D100059F8047B761C30786C280FD006DC4C28F0
:101D200017D068280DD06A2814D104E0742810D088
:101D30007A280FD10DE044F400140AE044F4801432
:101D400001E044F440147278824202D104F5801418
:101D5000761C761C307866280BD013DC582877D098
:101D600009DC002875D04528F6D04628F4D047284D
:101D70001AD19DE118E0632835D0642879D0652810
:101D800012D195E1702873D008DC6728F1D069285A
:101D90006FD06E280DD06F2806D1B5E073282CD0F7
:101DA000752875D0782874D05A46179990476D1CBD
:101DB00075E1C4F30250022809D003280DD0D9F8E8
:101DC000001004280DD00D6009F1040967E1D9F86D
:101DD0000010EA17C1E90052F6E7D9F800100D80AB
:101DE000F2E70D70F0E719F8041B8DF800100020E1
:101DF0008DF80100EA46012003E059F804AB4FF0EA
:101E0000FF3061074FF0000102D40DE008F101013D
:101E10008846B9420FDA8045F8DB1AF80810002925
:101E2000F4D108E008F1010188468142FADB1AF892
:101E300008100029F6D105985B46A0EB080721465B
:101E40003846179A00F094FA284400EB080507E09A
:101E50004DE029E10DE01AF8010B5A461799904719
:101E6000B8F10108F7D25B4621463846179A13E1CC
:101E700042E00A220092C4F302524FF0000A022A02
:101E800008D059F804CB032A4FEAEC710AD00DE0D0
:101E900029E02AE009F1070121F00702F2E802C176
:101EA000914609E00FFA8CFC4FEAEC71042A03D149
:101EB0004FFA8CFC4FEAEC71002907DA0A46002140
:101EC000DCF1000C61EB02012D2202E0220504D5B9
:101ED0002B228DF80420012203E0E20701D020220A
:101EE000F7E7904659E00A2102E010220DE01021A8
:101EF0004FF0000A00910BE010224FF0000A44F06E
:101F000004040827009203E008224FF0000A009220
:101F1000C4F30252022A05D059F804CB0021032A47
:101F200008D009E009F1070121F00702F2E802C137
:101F3000914605E01FFA8CFC042A01D10CF0FF0C3D
:101F40004FF00008220728D5702806D0009B83F0A8
:101F5000100353EA0A0305D00EE040228DF8042056
:101F6000012208E05CEA010206D030228DF804204C
:101F70008DF8050002229046009B83F0080353EA87
:101F80000A030AD15CEA010201D1620705D53022B9
:101F90008DF804204FF001087F1E582804D034A08B
:101FA00003900EA802900DE036A0F9E75346604674
:101FB000009AFEF70DFB84460398825C0298401E4F
:101FC000029002705CEA0100F0D1029806A9081A9A
:101FD00000F1200A600702D524F4803400E00127D4
:101FE000574502DDA7EB0A0000E0002000EB0A01E4
:101FF000009005984144401A0590E00306D45B46E2
:102000002146179A059800F0B3F90544002706E029
:1020100001A85A46C05D179990476D1C7F1C474523
:10202000F6DBE0030CD55B462146179A059800F0D5
:102030009FF9054404E030205A46179990476D1CDB
:102040000099481E00900029F5DC08E002980299EA
:102050005A460078491C0291179990476D1CBAF1B5
:102060000001AAF1010AF1DC65E100000928010084
:1020700030313233343536373839616263646566FE
:1020800000000000303132333435363738394142C0
:10209000434445460000000000F058F90544761C12
:1020A000307800287FF4ECAD19B02846BDE8F08FF9
:1020B000620700D4062709F1070222F0070CFCE8AA
:1020C0000223E14603F000485FEA080C02D00FF259
:1020D000702C0DE05FEA045C02D50FF2682C07E07B
:1020E0005FEAC47C02D00FF2602C01E0AFF2700C0A
:1020F0004FF0FF3823F00043CDF850C065280CD0D6
:1021000006DC452809D046281DD047283DD13DE0B2
:10211000662818D067287ED138E00021112F01DB16
:10212000112000E0781CCDE9000106A90EA8FFF7F8
:10213000DDFCDDE90F010E9A03910021009207F109
:10214000010A04914DE04FF000400097CDE90110E5
:1021500006A90EA8FFF7CAFCDDE90F0203920E9B49
:1021600011990022DDF80CA00093049211B9791C9A
:1021700000EB010AB7EB0A0004D4C0F1FF3007F10D
:10218000010A0490AAEB0700019044E0012F00DA55
:1021900001270021112F01DD112000E03846CDE993
:1021A000000106A90EA8FFF7A1FCDDE90F010E9AB8
:1021B0000391002104910092BA4621070CD403999F
:1021C000514500DA8A46BAF1010F05DD009AAAF1FD
:1021D0000101515C302908D0B84202DA10F1040F35
:1021E00006DA0121CDE9011015E0AAF10101E9E7C4
:1021F000002805DC049901440491AAEB000102E0E7
:10220000411C514500DD8A460499401A401C01904A
:102210004FF000400290200704D40198504501DBA4
:10222000CDF8048000208DF84F0002980DF14F0783
:10223000B0F1004F25D02B200E9002984FF00208ED
:1022400000280CDA404202902D200E9007E00A216F
:102250000298FEF7A7F93031029007F8011DB8F196
:102260000001A8F10108F2DC02980028EFD1791EE4
:102270000E980870307800F0200040F0450007F814
:10228000020D12A8C01B00F107081498007800B1D5
:10229000012000EB0A01019801EBE071059841442F
:1022A000401A401E0590E00306D45B462146179A6B
:1022B000059800F05DF805441498007818B15A4666
:1022C000179990476D1CE00324D55B462146179A69
:1022D000059800F04DF805441CE00498002807DB41
:1022E000DDE90301884203DD0098405C179901E0B5
:1022F000179930205A469047049805F10105401C73
:1023000004900198401E019004D12E205A4617993E
:1023100090476D1CBAF10001AAF1010ADDDC05E06D
:1023200017F8010B5A46179990476D1CB8F1000138
:10233000A8F10108F4DC5B462146179A0598ABE644
:102340002D0000002B000000200000002DE9F041CE
:10235000044600251E461746880404D405E0394685
:102360002020B0476D1C641EF9D52846BDE8F081D9
:102370002DE9F041044600251E469046C80301D5CC
:10238000302700E02027880404D505E04146384680
:10239000B0476D1C641EF9D52846BDE8F081816800
:1023A00041F00801816000BF816801F00801002947
:1023B000FAD1816841F00401816000BF816801F0B9
:1023C00004010029FAD1704730B5012902D0022951
:1023D0001AD10CE0C36A23F47003C362C36A541EAB
:1023E0004FF4700505EA04542343C3620DE0836B88
:1023F00023F440138363836B541E4FF4401505EAA6
:1024000004542343836300E000BF00BF30BD21B10B
:10241000826842F40062826003E0826822F4006213
:102420008260704730B5436823F4C053436001298C
:1024300004D0022913D0042916D116E0436823F4EE
:10244000604343604368541E4FF4604505EA4434DA
:1024500023434360436843F40063436006E04368FA
:1024600043F48053436001E000BF00BF00BF30BDB4
:10247000816801F0010119B9816841F001018160B1
:10248000704772B101F001031BB1836843F48013FC
:10249000836001F0020393B1836843F400438360D7
:1024A0000DE001F001031BB1836823F48013836006
:1024B00001F002031BB1836823F40043836070477B
:1024C000012902D0022910D107E0836823F4602398
:1024D000836083681343836008E0836823F4E043E8
:1024E000836083681343836000E000BF00BF7047D0
:1024F00002688A43026070470246002013680B405E
:1025000003B10120704700000549096821F47021DA
:10251000034A1160114609680143116070470000C9
:1025200004240140F0B51D4606290CDA436B01EB8B
:1025300081071F26BE40B34301EB810602FA06F66F
:102540003343436322E00C290EDA036B8E1F06EB44
:1025500086071F26BE40B3438E1F06EB860602FA8F
:1025600006F63343036311E010290FDAC36AA1F1C1
:102570000C0606EB86071F26BE40B343A1F10C06EE
:1025800006EB860602FA06F63343C3620A2A0CDA21
:10259000046902EB42070726BE40B44302EB420641
:1025A00005FA06F63443046111E0122A0FDAC46812
:1025B000A2F10A0606EB46070726BE40B443A2F185
:1025C0000A0606EB460605FA06F63443C460F0BD7B
:1025D0000146C86C80B2704701F001021AB18268EE
:1025E00042F48002826001F002021AB1826842F471
:1025F000001282607047AAB101F480731BB1436876
:1026000043F48073436001F480631BB1436843F477
:102610008063436001F00203CBB1836843F002039F
:10262000836014E001F480731BB1436823F480736A
:10263000436001F480631BB1436823F4806343600B
:1026400001F002031BB1836823F00203836070472B
:1026500010B501F027F940B11548007828B915A048
:10266000FFF710FA01F022FD10BDFEF76BF90446EA
:1026700001F018F910B119490C7005E017480078FD
:10268000844201DA15490C7014480078222803DDD1
:10269000052001F09FFC09E0104800781E2803DDAA
:1026A000042001F097FC01E001F000FD00BFDBE732
:1026B00019000020706F7765725F636861726769E7
:1026C0006E672C2073797374656D20706F776572F7
:1026D0006F66662121212121210D0A00440000207E
:1026E00010B500F0BDFC04462848007860B901F040
:1026F000D9F848B12648008828B10020244908802C
:1027000024A0FFF7BFF910BD00F09EFB01282AD1DD
:102710001F480088B0F5967F35DC1D480088401CB6
:102720001B49088008460088B0F5967F2BDD032CF6
:102730000CDC00BF23A0FFF7A5F97422254926A0D1
:10274000FFF7A0F900BF01F0DDFC1CE000BF1DA0F9
:10275000FFF798F979221F491FA0FFF793F900BFEF
:1027600001F0A4FC0FE00A48008860B100BF15A08A
:10277000FFF788F98622174919A0FFF783F900BFF0
:1027800000200349088000BFBDE7000019000020B9
:1027900040000020706F7765725F636861726769DF
:1027A0006E672C2073797374656D20646973616240
:1027B0006C6520746F207374617274212121212152
:1027C000210D0A003C3C4D595F44454255473E3E71
:1027D00020000000F44A000825732025640D0A003B
:1027E00025732025642062746E2072656C656173A8
:1027F000650D0A001CB52148006808B900201CBD01
:102800001E480068000E8DF807001C480068000C88
:102810008DF8060019480088000A8DF80500174851
:1028200000788DF8040000201449086014480078EE
:102830009DF80410884213D1114840789DF8051086
:1028400088420DD10E4880789DF80610884207D145
:102850000B48C0789DF80710884201D10120CEE7CF
:102860009DF8070000909DF806309DF805209DF822
:1028700004100448FFF706F90020C0E75C000020C0
:102880001F4B0008884C0008002001490880704751
:102890006200002010B52DA0FFF7F4F834A0FFF778
:1028A000F1F83DA0FFF7EEF844A0FFF7EBF84CA0DD
:1028B000FFF7E8F852A0FFF7E5F859A0FFF7E2F8B4
:1028C00066A0FFF7DFF86EA0FFF7DCF878A0FFF74F
:1028D000D9F87EA0FFF7D6F885A0FFF7D3F88FA030
:1028E000FFF7D0F898A0FFF7CDF8A1A0FFF7CAF83E
:1028F000AAA0FFF7C7F8B0A0FFF7C4F8B5A0FFF78C
:10290000C1F8B6A0FFF7BEF8BBA0FFF7BBF8C1A0A7
:10291000FFF7B8F8AFA0FFF7B5F8C5A0FFF7B2F81A
:10292000CAA0FFF7AFF8D0A0FFF7ACF8D5A0FFF72B
:10293000A9F8D7A0FFF7A6F8DCA0FFF7A3F8E5A059
:10294000FFF7A0F8EEA0FFF79DF810BD6465627573
:10295000675F68656C702C706C656173652075735A
:102960006520736F6D6520636D64730D0A00000050
:10297000302E207072696E742070726F6772616D94
:10298000206275696C642074696D6520616E6420D5
:10299000646174650D0A0000312E207072696E74D6
:1029A000206C617365722061726561732070776D50
:1029B0002076616C75650D0A00000000322E2070D3
:1029C00072696E742068617427732074656D706518
:1029D0007261747572652076616C75650D0A000010
:1029E000332E207072696E74207573622063686183
:1029F000726765207374617475730D0A00000000BE
:102A0000342E207072696E74206C61736572206C54
:102A100069676874732074696D65730D0A0000003E
:102A2000352E207072696E7420576174636820447B
:102A30006F6720537461747573286F66662C6E6FB0
:102A40007420656E61626C652074686973207665B8
:102A50007273696F6E290D0A00000000362E206324
:102A60006F6D20636F6D6D616E642073746172743D
:102A70002F73746F70206C617365720D0A00000013
:102A8000372E20456E61626C652F44697361626CFC
:102A900065207374617274206C617365722077684D
:102AA000656E206368617267696E67200D0A0000B9
:102AB000382E207072696E74204261747465727968
:102AC00020766F6C746167650D0A0000392E2065F1
:102AD0006E7465722F657869742064656275675FCE
:102AE0006972726563765F6D6F64650D0A00000040
:102AF0006D312E206D75736963206F722073706560
:102B0000616B657220636F6E74726F6C3A206E65D4
:102B10007874206F6E650D0A000000006D322E2063
:102B20006D75736963206F7220737065616B657278
:102B300020636F6E74726F6C3A206C617374206FD7
:102B40006E650D0A000000006D332E206D757369EF
:102B500063206F7220737065616B657220636F6EA6
:102B600074726F6C3A20766F6C207570200D0A00BD
:102B70006D342E206D75736963206F7220737065DC
:102B8000616B657220636F6E74726F6C3A20766F42
:102B90006C20646F776E0D0A0000000041302E201B
:102BA000656E61626C65206C61736572206172652F
:102BB0006120300D0A00000041312E20656E6162F7
:102BC0006C65206C61736572206172656120310DE6
:102BD0000A0000002E2E2E2E2E0D0A0041362E2029
:102BE000656E61626C65206C6173657220617265EF
:102BF0006120360D0A00000042302E2064697361A6
:102C0000626C65206C617365722061726561203051
:102C10000D0A000042312E2064697361626C6520E8
:102C20006C61736572206172656120310D0A00006C
:102C300042362E2064697361626C65206C61736535
:102C400072206172656120360D0A000063302E200B
:102C5000736574206C617365722070776D203130FC
:102C600025250D0A0000000063312E2073657420B5
:102C70006C617365722070776D20323025250D0AE6
:102C8000000000002E2E2E2E2E2E0D0A0000000019
:102C900063392E20736574206C61736572207077C0
:102CA0006D2031303025250D0A00000064302E20C3
:102CB0007365742074656D7020636F6E74726F6CD1
:102CC000206C617365722070776D20656E61626C37
:102CD000650D0A0064312E207365742074656D7073
:102CE00020636F6E74726F6C206C617365722070FC
:102CF000776D2064697361626C650D0A00000000E5
:102D00006F746865722E207072696E7420746869C1
:102D1000732068656C700D0A0000000010B52C4B24
:102D20001B6883432A4C2360231D1B688343241D97
:102D30002360231D1B688343241D2360231D1B6800
:102D40008343241D236011B101290ED105E0204BDE
:102D50001B6803431E4C236008E01D4B1B1D1B68B2
:102D600003431B4C241D236000E000BF00BF22B1C1
:102D7000012A0FD0022A27D119E0154B08331B680E
:102D80000343134C08342360231D1B688343241D15
:102D900023601AE00E4B08331B6883430C4C083445
:102DA0002360231D1B680343241D23600DE0084B93
:102DB00008331B680343064C08342360231D1B683B
:102DC0000343241D236000E000BF00BF10BD0000CE
:102DD00000040140024909680143014A116070473B
:102DE00000040140014908607047000014040140DC
:102DF00001460748006800EA0102054814380068E7
:102E000000EA010312B10BB1012070470020FCE77A
:102E10001404014070B504460D46E1B20020FEF7EF
:102E20000BFE204670BD000010B540F2026001F0BC
:102E300093F84FF4004302222821024800F070F971
:102E400010BD00000008014010B54FF400410248D9
:102E500000F0BCF910BD00000008014070B5044648
:102E60000D46344E012C00D1334E0120A040334991
:102E70000978084000B170BD314931F8140001F003
:102E80006BF8304931F8140001F066F82E4951F81A
:102E900024302E4951F824000222182100F040F974
:102EA0002B4951F82430294951F8240002220421E9
:102EB00000F036F9304601F057FC2946304601F063
:102EC00001FC0021304601F01EFD0021304601F0DA
:102ED0000AFD0021304601F0F6FC0021304601F0E9
:102EE000A7FC0021304601F09BFC0421304601F094
:102EF000F2FC0821304601F0FEFC304601F07CFC7B
:102F000040F20531304601F0A8FC124B1B5D03F086
:102F10000302104B1B5D99100F4B13F8240000F0B7
:102F200073FE0120A0400549097808430349087051
:102F300000BFA0E70038014000440040140000201A
:102F4000DC4A0008C04A0008C44A0008D44A000805
:102F5000CC4A0008E84A0008E04A000810B54021C1
:102F6000034800F033F908B9012010BD0020FCE748
:102F700000100140014800787047000070000020F8
:102F800070B54420FEF7B2FA2D480078002856D0DC
:102F90002C480068FDF7BFFA044600222A4BFDF7D3
:102FA000CDFA03D2282000F00FFF48E02548006842
:102FB000FDF7B1FA04460022244BFDF7BFFA03D215
:102FC000232000F001FF3AE01E480068FDF7A3FA55
:102FD000044600221E4BFDF7B1FA03D21E2000F07A
:102FE000F3FE2CE017480068FDF795FA044600222E
:102FF000184BFDF7A3FA03D2192000F0E5FE1EE0FE
:1030000010480068FDF787FA04460022124BFDF7CE
:1030100095FA03D2142000F0D7FE10E009480068AA
:10302000FDF779FA044600220C4BFDF787FA03D22C
:103030000A2000F0C9FE02E0002000F0C5FE70BDCD
:10304000500000204C00002000003E400080414025
:1030500000004440008046400000484000004940D5
:1030600001480078704700004300002010B54FF47D
:103070008051024800F0AAF810BD0000000C014089
:10308000416170470161704710B500228B071C0F2A
:103090000F2303FA04F204290EDA204B9B689343B2
:1030A0001E4CA36023469B688C07240F00FA04F48F
:1030B00023431A4CA3602FE008290EDA174BDB6874
:1030C0009343164CE3602346DB688C07240F00FA19
:1030D00004F42343114CE3601EE00C290EDA0F4B7D
:1030E0001B6993430D4C236123461B698C07240FF6
:1030F00000FA04F42343094C23610DE0074B5B699C
:103100009343064C636123465B698C07240F00FAE6
:1031100004F42343014C636110BD00000000014032
:10312000F0B5044616460025002201F00F0501F017
:10313000100707B1354300201EE0012787401F40DC
:10314000C7B122684FEA800C0F2707FA0CF7BA4381
:10315000870005FA07F73A43282904D10127874059
:103160001F40676105E0482903D1012787401F40C0
:1031700027612260471CB8B20828DED3082022E06D
:10318000012787401F40E7B16268A0F108074FEAB6
:10319000870C0F2707FA0CF7BA43A0F10807BF0006
:1031A00005FA07F73A43282904D1012787401F4031
:1031B000676105E0482903D1012787401F40276147
:1031C0006260471CB8B21028DAD3F0BD024690689E
:1031D000084008B1012070470020FCE7F0B50A461E
:1031E000002300240021002500F00046B6F1004F26
:1031F00002D11D4EF16901E01B4E7168C0F3034519
:1032000083B200F44016B6F5401F08D121F070617A
:10321000154E766826F07066134F7E6012E000F45B
:103220008016B6F5801F06D1032606FA05F4A143E1
:1032300041F0706106E0460D360103FA06F6B1432F
:1032400041F0706122B1460D360103FA06F63143B2
:1032500000F00046B6F1004F02D1034EF16101E0EB
:10326000014E7160F0BD00000000014010B540F259
:10327000046000F071FE4FF4C06000F06DFE4FF48A
:103280000073022204210D48FFF74AFF0222114673
:10329000172000F0B9FC09210220FFF7F5FE0222F9
:1032A00000211002FFF73AFD4FF40070FFF79AFD7E
:1032B0004FF40070FFF78EFD10BD000000100140BC
:1032C00010B5FFF7CDFE032807DC00205249088027
:1032D000524908705249087010BD04215148FDF749
:1032E0006DFFFFF787FA002847D04F48007810B1EC
:1032F0004EA0FEF7C7FBFFF73DFE30B1FFF73AFEE9
:103300004F490870002000F05FFE45480078401CDF
:10331000434908704148007810B100203F490870C7
:103320004148007888B13E49087800EBD0714910D7
:10333000A0EB410149B13A480078C0F1F00404EB38
:10334000D47041103FA0FEF79DFB35480078F0286F
:1033500060DD00BF4A4B4FF4F0724AA14FA0FEF768
:1033600091FB5748FEF78EFB00BF00202A490880DA
:103370002B49087000F09AFE4CE0284800780A2893
:1033800015DA26480078401C244908700846007861
:103390000A280CD12248007810B10020204908707A
:1033A0002748007818B12648007800F00DFE1E4826
:1033B000007810B143A0FEF765FB1748008870B98C
:1033C000642000F001FD00BF2D4B40F2FD122DA145
:1033D00032A0FEF757FB41A0FEF754FB00BF0E489A
:1033E0000088401C0C49088008460088B0F5526FE0
:1033F00010DD00BF224B40F20A2222A127A0FEF7D7
:1034000041FB44A0FEF73EFB00BF00F04FFE002052
:103410000149088000BF5FE76200002065000020CE
:10342000660000201F4B0008180000204040406943
:10343000725F726563765F646174610D0A000000FB
:103440006700002064657465637420646576696351
:1034500065206F6666202C32206D696E757465205C
:10346000636F756E74646F776E206C65667420741C
:10347000696D65203D20256420730D0A0000000061
:10348000244B00087372635C69725F72656D6F74C0
:10349000655F726563762E63000000003C3C466900
:1034A0006C653A257320204C696E653A25642020AE
:1034B00046756E6374696F6E3A25733E3E20000058
:1034C000344C00086E6F206E6F206E6F206E6F2080
:1034D00069725F646174610D0A00000069725F695E
:1034E0007271395F6465746563745F7461736B20B6
:1034F00064657465637420736F6D656F6E65202CF1
:10350000616E6420706F7765726F6E206C61736599
:10351000720D0A0069725F697271395F6465746562
:1035200063745F7461736B207461736B20697320C3
:1035300072756E203238206D696E732C616E642056
:1035400073797374656D20706F7765726F66660D41
:103550000A00000010B5064801F013F804460021E7
:10356000034801F012F8204600F0A2F810BD000058
:10357000000800402DE9F04F85B005460C4629486B
:1035800030F8140004900CB1012C03D1012005B0D7
:10359000BDE8F08F032C0DD140F6B830854206D23D
:1035A0000420214908701F480089049002E01D484A
:1035B000C08804900498FCF788FF82461B4A1C4B85
:1035C000FCF79DFE074688460498FCF77EFF3A46C6
:1035D0004346CDE90001FCF78CFECDE90201FCF782
:1035E00081FF81460498FCF770FF07460F4A104B95
:1035F000FCF785FECDE900010498FCF766FF8246E2
:10360000DDE90023FCF7D4FDCDE90201FCF76AFFF8
:1036100006464D4503D3B54201D80120B7E7002047
:10362000B5E700009C000020540000209A99999969
:103630009999C93F0020094908700949088042F258
:10364000283088804010C8804FF40C7048810120D9
:10365000488040F6CA0008817047000054000020EE
:103660009C00002010B50E480078B8B100200C492D
:1036700008700C48007820B10B48006800F072F820
:1036800007E00A48006800F06DF80848006806493D
:1036900008600020054908600249087010BD00005C
:1036A00054000020600000205C0000205800002032
:1036B00010B50446274801782046FFF75BFF10B994
:1036C000FFF7D0FF10BD2348007806283BD2DFE883
:1036D00000F003160A0E361202201E490870002060
:1036E0001D49087032E003201A4908702EE00520B9
:1036F000184908702AE001201649087026E00520C4
:103700001449087015480068400814490860B4F569
:103710007A7F04D90846006840F0004008600E48EF
:103720000078401C0C49087008460078202805DB0A
:1037300000200870094800680949086006E0052073
:103740000449087002E0FFF78DFF00BF00BF00BF13
:10375000B8E700005400002064000020580000205A
:103760005C0000202DE9F0410446260EC4F3072535
:10377000E7B2E819FF2804D12A46314602A0FEF735
:1037800081F9BDE8F081000025752025750D0A003E
:1037900030B587B0322440F2017000F0DDFB40F21A
:1037A000046000F0D9FB4FF4C06000F0D5FB4FF48B
:1037B0008073022218212248FFF7B2FC0121214820
:1037C000FFF70CFD642C00DD642403A800F06EFFFD
:1037D0001D480088401E05901C4800681C49B0FB2D
:1037E000F1F0401E80B2ADF80C0003A9194800F0BA
:1037F000D9FE684600F0BDFE0120ADF800006A4623
:103800000221144800F052FD70220221114800F0FC
:1038100043FEC4F164000C4909884843642190FBCD
:10382000F1F52A4602210B4800F063FE0022022136
:10383000084800F071FE074800F032FD07B030BDC7
:1038400000100140000C1A00460000207400002007
:1038500040420F000004004010B54FF48073022274
:1038600018210348FFF75CFC024800F095FE10BDEC
:10387000001001400004004010B5084800F087FE29
:103880004FF48073022210210548FFF749FC4FF4E2
:1038900080710348FFF7F4FB10BD000000040040F6
:1038A0000010014010B5FFF7E1FB08B9002010BD82
:1038B000FFF754FB08B10120F9E70220F7E7000009
:1038C000072806DA01218140024A12781143014A91
:1038D000117070477000002070B504460D46372CFB
:1038E0000DDA302C0BDB2DB1A4F13001C8B2FFF79B
:1038F000E7FF04E0A4F13001C8B200F029F9A4F117
:1039000030012A4601A0FEF7BDF870BD6C617365F9
:10391000725F617265615F636F6E74726F6C20209D
:1039200061726561203D20256420206164643D2032
:1039300025640D0A0000000010B540F2026000F09E
:103940000BFB40F2036000F007FB40F2046000F064
:1039500003FB40F2056000F0FFFA4FF480530222AF
:1039600010211948FFF7DCFB3823022210211748E9
:10397000FFF7D6FB4FF4E053022210211448FFF763
:10398000CFFB0423022210211248FFF7C9FB4FF49A
:1039900080510D48FFF774FB38210C48FFF770FB8E
:1039A0004FF4E0510A48FFF76BFB04210948FFF789
:1039B00067FB00BF08A0FEF765F839220A490BA093
:1039C000FEF760F800BF10BD00080140000C014088
:1039D00000100140001401403C3C4D595F444542F9
:1039E00055473E3E20000000384B00082573202537
:1039F000640D0A0010B538210648FFF741FB4FF46B
:103A0000E0510548FFF73CFB04210448FFF738FB71
:103A100010BD0000000C01400010014000140140E6
:103A200010B5044614B9FFF7E5FF10BDFFF718FB0A
:103A3000032802D1FFF7DEFFF7E700F045F904F0B5
:103A4000010020B110212C48FFF71CFB03E01021DE
:103A50002948FFF715FB04F0020020B10821264891
:103A6000FFF710FB03E008212348FFF709FB04F0F0
:103A7000040020B120212048FFF704FB03E02021AF
:103A80001D48FFF7FDFA04F0080020B104211B488F
:103A9000FFF7F8FA03E004211848FFF7F1FA04F001
:103AA000100028B14FF480511548FFF7EBFA04E0FD
:103AB0004FF480511248FFF7E3FA04F0200028B1D8
:103AC0004FF400610E48FFF7DDFA04E04FF40061A7
:103AD0000B48FFF7D5FA04F0400028B14FF480619D
:103AE0000748FFF7CFFA04E04FF480610448FFF77E
:103AF000C7FA00BF99E70000000C01400014014024
:103B00000010014070B50446392C0ADC302C08DB6B
:103B1000A4F12F0000EB80004006050E284600F0BF
:103B200053F9294601A0FDF7ADFF70BD6C617365C7
:103B3000725F70776D5F636F6E74726F6C2020645C
:103B40006567726565203D202564200D0A00000030
:103B5000072806DA01218140024A12788A43014986
:103B60000A7070477000002090B0242107A8FCF76D
:103B700014FB1C2217496846FCF7F6FAFCF700FF15
:103B80001548016815A0FDF77DFF16A0FDF77AFF27
:103B90001EE0002415E00120A0401A4909880840D1
:103BA00068B10120A0401749098881431548018068
:103BB0005DF8240018B15DF82400804707E0601C20
:103BC000C4B2102C03DA0F4800880028E3D100BFEC
:103BD000DFE70000A44A00080400002025730D0A56
:103BE00000000000426F617264496E697420646F66
:103BF0006E652120323032322D30372D32320D0AAF
:103C000000000000080000202DE9F04103460D46A9
:103C1000164600240027A0462448006800F4E0600F
:103C2000B0F5A06F15D006DCB0F5407F18D0B0F528
:103C3000806F19D110E0B0F5C06F06D0B0F5E06F1D
:103C400012D100274FF0040815E001274FF00308B8
:103C500011E00227B8460EE003274FF001080AE002
:103C600004274FF0000806E04FF4A06000F022F8AF
:103C70000227B84600BF00BFC7F1040005FA00F4F0
:103C8000C8F104010F20C840304004432401084813
:103C9000C45403F01F01012088405911890001F12B
:103CA000E021C1F80001BDE8F08100000CED00E06A
:103CB00000E400E002490143024A1160704700003D
:103CC0000000FA050CED00E010B54FF40041044887
:103CD000FFF7D8F94FF480410148FFF7D3F910BD41
:103CE000000C014010B54FF400510248FFF7C8F92D
:103CF00010BD0000000C014010B54FF40051024807
:103D0000FFF7C0F910BD0000000C014010B540F2F3
:103D1000046000F021F90123032200210148FFF78C
:103D2000FFF910BD001001402DE9F041084800786E
:103D3000FCF7CBFB06460022064BFCF752FB044681
:103D400022460B4604A0FDF79DFEBDE8F081000071
:103D50004400002000002440426174746572795F61
:103D6000766F6C74616765203D20252E31660D0AE3
:103D70000000000070B50949088800EBD0714C10B4
:103D80003C2094FBF0F100FB114594FBF0F62A4631
:103D9000314603A0FDF776FE70BD000062000020F2
:103DA0006C617365725F6C696768745F74696D6577
:103DB00073203A202564206D696E732C256420736E
:103DC0006563730D0A0000000146642900DD64216B
:103DD000002006E0052291FBF2F2034B1A54421C2C
:103DE000D0B20728F6DB7047680000200F4A516800
:103DF0000F4A1140082814D2DFE800F00405060736
:103E0000130A130B00BF00BF00BF41EA803109E075
:103E100000BF20F004004FF0805242EA803211438C
:103E200000E000BF00BF014A51607047001002402F
:103E3000FF3FFFEF2DE9F04F8BB0074600200990C0
:103E40003EA090E8004CC068CDE905BECDF810A0BA
:103E500007900FF2EC0ADAE9000ACDE9020A0FF244
:103E6000E00ADAE9000ACDE9000A38484068C0F300
:103E700081000A900A9820B1012804D0022829D193
:103E800003E0334928E0324926E03048406800F436
:103E90008038B8F5803F09D12D4C2C48406800F49B
:103EA0000039B9F5003F02D1641000E0294C2748E1
:103EB0004068C0F383422548406800F0006008B1C4
:103EC00042F010020F2A01D2921C00E0521C04FBA7
:103ED00002F101E01E4900BF00BF1C484068C0F36A
:103EE000031504A8465D21FA06F318484068C0F39C
:103EF000022502A8465D23FA06FC14484068C0F378
:103F0000C2251DF8056023FA06F0089037B1012F8D
:103F100006D0022F06D0032F0AD106E0099108E04F
:103F2000099306E0CDF824C003E00898099000E06A
:103F300000BF00BF09980BB0BDE8F08F0000000083
:103F400000000000010203040607080900100240F7
:103F500000127A0000093D00064A02EB9011096840
:103F600000F01F0301229A401143024B03EB901211
:103F70001160704700100240064A02EB9011096878
:103F800000F01F0301229A409143024B03EB901271
:103F90001160704700100240064A02EB9011096858
:103FA00000F01F0301229A401143024B03EB9012D1
:103FB000116070470010024010B510210148FFF752
:103FC00061F810BD00100140014908707047000001
:103FD0007000002001490870704700004300002075
:103FE000002000212C4A126842F480322A4B1A60C9
:103FF00000BF401C284A126802F4003119B94FF67C
:10400000FF729042F5D1244A126802F400320AB9D4
:1040100000BFFEE7204A52681F4B5A601A4652689A
:104020005A601A46526842F480625A601A465268D0
:1040300022F440325A601A46526842F440325A60C2
:104040001A465268154B1A40134B5A601A4652686A
:10405000134B1A43104B5A601A46126842F0807292
:104060001A6000BF0C4A126802F00072002AF9D0F0
:10407000094A526822F00302074B5A601A465268F6
:1040800042F002025A6000BF034A526802F008027E
:10409000002AF9D07047000000100240FFFFC3F76C
:1040A0000000280810B5FFF79BFF10BD10B5FDF705
:1040B000A5F900BF0CA0FDF7E5FC5C220E490FA09E
:1040C000FDF7E0FC00BF0320FFF784FF0020FFF7AF
:1040D000A7FCFFF707FE0020FDF7D8F80020FDF74A
:1040E00053F9FEF7D1FB10BD3C3C4D595F444542AE
:1040F00055473E3E200000000E4B0008257320254A
:10410000640D0A0010B500BF1EA0FDF7BBFC3322F2
:10411000204921A0FDF7B6FC00BFFFF7C3FB30B17B
:104120001F48007818B91FA0FDF7ACFC10BDFCF7C4
:1041300009FC044600BF13A0FDF7A4FC23463C2263
:10414000144924A0FDF79EFC00BF1E2C0CDC00BF10
:10415000104B3F2224A12AA0FDF794FC214631A058
:10416000FDF790FC00BFE1E70520FFF733FFFFF705
:10417000C3FD0120FDF78AF80120FDF705F900BF16
:10418000D4E700003C3C4D595F44454255473E3E14
:1041900020000000FE4A000825732025640D0A0057
:1041A00019000020706F7765725F636861726769DC
:1041B0006E672C2073797374656D20646973616216
:1041C0006C6520746F207374617274212121212128
:1041D000210D0A00257320256420766F6C203D2078
:1041E00025640D0A000000007372635C6465765FED
:1041F00072756E5F7374617475732E6300000000D6
:104200003C3C46696C653A257320204C696E653AE2
:104210002564202046756E6374696F6E3A25733E7F
:104220003E2000004552524F523A706F776572201F
:10423000697320746F6F206C6F7720766F6C203DF0
:104240002025640A0000000010B500200249087013
:1042500002A0FDF717FC10BD5000002074656D70C2
:104260005F636F6E74726F6C5F64697361626C65BB
:104270000D0A000010B501200249087002A0FDF7E8
:1042800001FC10BD5000002074656D705F636F6E9F
:1042900074726F6C5F656E61626C650D0A00000080
:1042A000016841F0800101607047000010B531B134
:1042B00001293FD002297DD003297CD1BFE0036AC8
:1042C00023F001030362836923F003038361036A1C
:1042D000148823430362036A23F002030362036A20
:1042E0009488234303626A4B984202D0694B9842F8
:1042F0001FD1036A23F004030362036A5488234333
:104300000362036A23F008030362036AD488234329
:104310000362436823F48073436043681489234332
:104320004360436823F40073436043685489234324
:104330004360ABE0036A23F010030362836923F454
:1043400040738361036A148843EA04130362036AB7
:1043500023F020030362036A948843EA0413036290
:104360004B4B984202D04B4B984226D1036A23F024
:1043700040030362036A548843EA04130362036A36
:1043800023F080030362036AD48843EA04130362C0
:10439000436823F4806343604368148943EA8403D9
:1043A0004360436823F4006343604368548943EAED
:1043B000840301E002E068E0436067E0036A23F4FD
:1043C00080730362C36923F00303C361036A148823
:1043D00043EA04230362036A23F400730362036A5B
:1043E000948843EA04230362294B984202D0294B64
:1043F000984223D1036A23F480630362036A5488DA
:1044000043EA04230362036A23F400630362036A3A
:10441000D48843EA04230362436823F4805343604F
:104420004368148943EA04134360436823F4005348
:1044300043604368548943EA0413436026E0036AF7
:1044400023F480530362C36923F44073C361036A96
:10445000148843EA04330362036A23F400530362BB
:10446000036A948843EA04330362094B984202D0FA
:10447000084B984208D1436823F480434360436863
:10448000148943EA8413436000E000BF00BF10BDFD
:10449000002C01400034014031B101290CD0022927
:1044A00013D0032922D118E0836923F070038361BC
:1044B0008369134383611AE0836923F4E0438361D2
:1044C000836943EA0223836111E0C36923F0700327
:1044D000C361C3691343C36109E0C36923F4E043C3
:1044E000C361C36943EA0223C36100E000BF00BFA8
:1044F000704731B1012906D0022906D0032908D11D
:1045000005E0426306E0826304E0C26302E0026405
:1045100000E000BF00BF704731B101290CD0022973
:1045200013D0032922D118E0836923F008038361A3
:104530008369134383611AE0836923F40063836111
:10454000836943EA0223836111E0C36923F008030E
:10455000C361C3691343C36109E0C36923F4006302
:10456000C361C36943EA0223C36100E000BF00BF27
:1045700070470021018041808180C180018141819B
:10458000704701460020486A7047416270470168E1
:1045900021F0010101607047016841F001010160F3
:1045A000704700000A888262294A904220D0B0F108
:1045B000804F1DD0274A90421AD0274A904217D0E8
:1045C000264A904214D0264A904211D0254A904261
:1045D0000ED0254A90420BD0244A904208D0244A5B
:1045E000904205D0234A904202D0234A90420FD1F4
:1045F000026822F07002026002688B7803F06003A8
:104600001A43026002680B7903F010031A43026038
:104610008A68C262194A90420CD0194A904209D065
:10462000026822F44072026002688B8903F44073CE
:104630001A430260064A904202D0094A904201D1D0
:104640008A7B0263426942F00102426170470000C6
:10465000002C01400004004000080040000C004015
:1046600000340140004C0140005001400054014022
:1046700000180040001C00400020004000100040D6
:1046800000140040C2680A43C260704702698A434E
:10469000026170470246D06800EA010310690840D1
:1046A00010B10BB1012070470020FCE70021018010
:1046B000418081804FF6FF7181600021818181738B
:1046C000704700002DE9F04704460D460027B84624
:1046D000B94600261D49601A8C421CD006DC1C48D5
:1046E000204470B1B0F5806F1FD10FE0B0F5806F3E
:1046F00016D0B0F56C4F18D10320FFF79BFB07468F
:1047000014E00220FFF796FB07460FE00220FFF7B8
:1047100091FB07460AE00220FFF78CFB074605E005
:104720000220FFF787FB074600E000BF00BF07EB52
:104730005500B0FBF5F64FF6F07006EA000806F0FB
:104740000F0948EA0900A060BDE8F087004C00406E
:1047500000BCFFBF01464868C0F308007047C1F3C2
:10476000080242607047000010B504462049601AF4
:104770008C4228D006DC1F48204490B1B0F5806FF1
:1047800033D117E0B0F5806F26D0B0F56C4F2CD147
:1047900040F20E30FFF700FC40F20E30FFF7ECFB6A
:1047A00024E040F21140FFF7F7FB40F21140FFF721
:1047B000E3FB1BE040F21240FFF7EEFB40F2124039
:1047C000FFF7DAFB12E040F21340FFF7E5FB40F29F
:1047D0001340FFF7D1FB09E040F21440FFF7DCFB88
:1047E00040F21440FFF7C8FB00E000BF00BF10BD5F
:1047F000004C004000BCFFBFC16841F40051C160E3
:10480000704710B5024602EB9110006801F01F04DA
:104810000123A340184008B1012010BD0020FCE78F
:104820000A460021416921F400711143416170473A
:104830000A460021416921F48071114341617047AA
:1048400010B5C1F38912825801F01F040123A3405F
:104850009A43C1F38913C25010BD10B5C1F3891238
:10486000825801F01F040123A3401A43C1F38913A6
:10487000C25010BD10B500EB91521268C1F3044450
:104880000123A3409A4300EB91531A6010BD70B509
:10489000024600230024C1F38910105801F01F06BE
:1048A0000125B54000EA050302EB91500068C1F311
:1048B00004460125B54000EA050414B10BB10120FE
:1048C00070BD0020FCE7C26822F4C062C260C2680A
:1048D0000A43C26070470A460021C16821F0040102
:1048E0001143C1607047026922F4405202610269BB
:1048F0000A43026170470A460021C16821F008019D
:104900001143C1607047C26822F48052C260C2681D
:104910000A43C2607047000010B520210148FEF72D
:10492000B1FB10BD0010014010B50446312C02D17E
:1049300000F02CF80DE0322C02D100F01DF808E058
:10494000332C02D100F092F803E0342C01D100F0B6
:1049500097F8214601A0FDF795F810BD777435381A
:1049600038645F636F6E74726F6C202062756620AE
:104970003D2025640D0A000010B503490978491E41
:10498000C8B200F00DF810BD4800002010B5034972
:104990000978491CC8B200F003F810BD4800002097
:1049A00010B504461E2C00DD10BDFFF705FB2046A8
:1049B00000F006F80148047000BFF5E74800002049
:1049C00070B5054600BF02211F48FEF75BFB00BF24
:1049D0000A20FCF701FAFFF79FFF0120FCF7FCF922
:1049E000002424E00120A040284030B100BF012174
:1049F0001548FEF747FB00BF06E000BF0121124843
:104A0000FEF740FB00BF00BF9620FCF7EFF900BFA8
:104A100020210E48FEF736FB00BF9620FCF7E6F992
:104A2000FFF77AFF3220FCF7E1F9601CC4B2082CD2
:104A3000D8DB00BF02210448FEF724FB00BF0120A1
:104A4000FCF7CAF970BD0000000C014000100140E5
:104A500010B50446E72C06DCE02C04DB2046FFF70B
:104A6000AFFF0148047010BD4900002010B5034994
:104A70000978491CC8B2FFF7EBFF10BD49000020C0
:104A800010B503490978491EC8B2FFF7E1FF10BD10
:104A9000490000204932635F577269746542797436
:104AA00065000000E1260008000000000000000092
:104AB000812F0008D9180008C132000851260008CB
:104AC0000E061107000200000400000000040000B0
:104AD000080000000008014000080140020602062C
:104AE00025000000260000000505000000380140F8
:104AF0000044004062746E735F7363616E0073798B
:104B00007374656D5F706F7765725F6F6E00737938
:104B10007374656D5F706F7765725F6F66660010A6
:104B20006880030069725F697271395F64657465DA
:104B300063745F7461736B006C617365725F636F44
:104B40006E74726F6C5F696E69740070776D5F6F01
:104B5000757400004552524F523A2073656E6420BE
:104B6000776F72645F61646472204949435F576183
:104B700069745F41636B28696E64657829213D2003
:104B80003020696E646578203D2025642074786447
:104B9000203D202523780D0A000000004275696C35
:104BA0006474696D65203A53657020313620323067
:104BB00032322030383A33333A3237004445565F88
:104BC000564F4C5F4C453330200000004445565F43
:104BD000564F4C5F4C453336200000004445565F2D
:104BE00043484152474500004445565F504F5745A2
:104BF000524F4646000000004445565F425547006C
:104C00004445565F4348415247455F4F4B000000C3
:104C10004445565F52554E5F4E4F524D414C000039
:104C20004445565F45585445524E5F504F57455284
:104C3000000000004552524F52203A2069725F69CD
:104C40007271395F6465746563745F7461736B203E
:104C500064657465637420646576696365206F6656
:104C6000662032206D696E732C616E6420737973D7
:104C700074656D2020676F20746F20706F77657288
:104C80006F66660D0A0000004552524F523A726537
:104C9000637620646174615B305D203D202523785C
:104CA0002C646174615B315D203D202523782C6488
:104CB0006174615B325D203D202523782C64617432
:104CC000615B335D203D202523780D0A0000000044
:104CD000F04C0008000000207C000000CC1A000806
:104CE0006C4D00087C0000202C200000DC1A00081D
:104CF000000000009C4B00080000000000000000C5
:104D0000000000000000000000000000F84B000858
:104D1000BC4B0008E84B0008CC4B0008104C0008C6
:104D2000DC4B0008004C0008204C0008000000008C
:104D30000000000328001A0000E00000000000004E
:104D40000100000000000000000000000000000062
:104D50000000000000000000000000000000000053
:0C4D60007F00000000F36F060000000060
:0400000508000131BD
:00000001FF
